{
  "address": "0x8fd0e112cBcFE4Bc993BBCcc234E24D31bF948cC",
  "abi": [
    {
      "inputs": [
        {
          "internalType": "contract IWETH",
          "name": "_weth",
          "type": "address"
        }
      ],
      "stateMutability": "nonpayable",
      "type": "constructor"
    },
    {
      "inputs": [
        {
          "internalType": "address",
          "name": "",
          "type": "address"
        },
        {
          "internalType": "address",
          "name": "from",
          "type": "address"
        },
        {
          "internalType": "address",
          "name": "",
          "type": "address"
        },
        {
          "internalType": "uint256",
          "name": "amount",
          "type": "uint256"
        },
        {
          "internalType": "bytes",
          "name": "userData",
          "type": "bytes"
        },
        {
          "internalType": "bytes",
          "name": "",
          "type": "bytes"
        }
      ],
      "name": "tokensReceived",
      "outputs": [],
      "stateMutability": "nonpayable",
      "type": "function"
    },
    {
      "inputs": [],
      "name": "weth",
      "outputs": [
        {
          "internalType": "contract IWETH",
          "name": "",
          "type": "address"
        }
      ],
      "stateMutability": "view",
      "type": "function"
    },
    {
      "stateMutability": "payable",
      "type": "receive"
    }
  ],
  "transactionHash": "0x8f991a968fabc02d88173defe827d4b7cbd0fefb6fbfcefb61becc2d4319a0c3",
  "args": [
    "0xc778417e063141139fce010982780140aa0cd5ab"
  ],
  "solcInputHash": "9d871ed13622b25923d3df2f7f2fc95d",
  "bytecode": "0x60a060405234801561001057600080fd5b50604051610b1a380380610b1a8339818101604052602081101561003357600080fd5b5051604080516329965a1d60e01b815230600482018190527fb281fc8c12954d22544db45de3159a39272895b169a852b314f9cc762e44c53b602483015260448201529051731820a4b7618bde71dce8cdc73aab6c95905fad24916329965a1d91606480830192600092919082900301818387803b1580156100b457600080fd5b505af11580156100c8573d6000803e3d6000fd5b505060408051630f41a04d60e11b8152326004820152905173084b1c3c81545d370f3634392de611caabff81489350631e83409a925060248083019260209291908290030181600087803b15801561011f57600080fd5b505af192505050801561014457506040513d602081101561013f57600080fd5b505160015b6101d05760408051630f41a04d60e11b81523260048201529051736f628b68b30dc3c17f345c9dbbb1e483c2b7ae5c91631e83409a9160248083019260209291908290030181600087803b15801561019b57600080fd5b505af19250505080156101c057506040513d60208110156101bb57600080fd5b505160015b6101c9576101cb565b505b6101d2565b505b606081901b6001600160601b0319166080526001600160a01b031661090861021260003980603c52806101ec52806103d6528061048e52506109086000f3fe60806040526004361061002c5760003560e01c806223de291461006d5780633fc8cef31461016457610068565b3661006857336001600160a01b037f0000000000000000000000000000000000000000000000000000000000000000161461006657600080fd5b005b600080fd5b34801561007957600080fd5b50610066600480360360c081101561009057600080fd5b6001600160a01b03823581169260208101358216926040820135909216916060820135919081019060a0810160808201356401000000008111156100d357600080fd5b8201836020820111156100e557600080fd5b8035906020019184600183028401116401000000008311171561010757600080fd5b91939092909160208101903564010000000081111561012557600080fd5b82018360208201111561013757600080fd5b8035906020019184600183028401116401000000008311171561015957600080fd5b509092509050610195565b34801561017057600080fd5b506101796101ea565b604080516001600160a01b039092168252519081900360200190f35b61019e3361020e565b6101e033888787878080601f01602080910402602001604051908101604052809392919081815260200183838082843760009201919091525061021192505050565b5050505050505050565b7f000000000000000000000000000000000000000000000000000000000000000081565b50565b60008490506000816001600160a01b031663fc0c546a6040518163ffffffff1660e01b815260040160206040518083038186803b15801561025157600080fd5b505afa158015610265573d6000803e3d6000fd5b505050506040513d602081101561027b57600080fd5b50516040805163555ddc6560e11b81526001600160a01b03891660048201527f71a86b72b6364f469fa6d4a1d52d0b4bac87d31788cc6601258e8eb3f51dc95360248201529051919250600091731820a4b7618bde71dce8cdc73aab6c95905fad249163aabbb8ca916044808301926020929190829003018186803b15801561030357600080fd5b505afa158015610317573d6000803e3d6000fd5b505050506040513d602081101561032d57600080fd5b505190506001600160a01b0381161561034a5761034a8787610503565b6000836001600160a01b031663de0e9a3e876040518263ffffffff1660e01b815260040180828152602001915050602060405180830381600087803b15801561039257600080fd5b505af11580156103a6573d6000803e3d6000fd5b505050506040513d60208110156103bc57600080fd5b5051604080516346ab38f160e01b81526001600160a01b037f0000000000000000000000000000000000000000000000000000000000000000811660048301526024820184905260006044830181905292519394509192918616916346ab38f19160648082019260209290919082900301818787803b15801561043e57600080fd5b505af1158015610452573d6000803e3d6000fd5b505050506040513d602081101561046857600080fd5b505160408051632e1a7d4d60e01b81526004810183905290519192506001600160a01b037f00000000000000000000000000000000000000000000000000000000000000001691632e1a7d4d9160248082019260009290919082900301818387803b1580156104d657600080fd5b505af11580156104ea573d6000803e3d6000fd5b505050506104f888826107b7565b505050505050505050565b6060826001600160a01b031663bbe3493e6040518163ffffffff1660e01b815260040160006040518083038186803b15801561053e57600080fd5b505afa158015610552573d6000803e3d6000fd5b505050506040513d6000823e601f3d908101601f19168201604052602081101561057b57600080fd5b810190808051604051939291908464010000000082111561059b57600080fd5b9083019060208201858111156105b057600080fd5b82518660208202830111640100000000821117156105cd57600080fd5b82525081516020918201928201910280838360005b838110156105fa5781810151838201526020016105e2565b50505050905001604052505050905060005b81518110156107b1576000846001600160a01b03166321cde2b684848151811061063257fe5b60200260200101516040518263ffffffff1660e01b815260040180826001600160a01b0316815260200191505060206040518083038186803b15801561067757600080fd5b505afa15801561068b573d6000803e3d6000fd5b505050506040513d60208110156106a157600080fd5b5051604080516370a0823160e01b815230600482015290519192506000916001600160a01b038416916370a08231916024808301926020929190829003018186803b1580156106ef57600080fd5b505afa158015610703573d6000803e3d6000fd5b505050506040513d602081101561071957600080fd5b5051905080156107a757816001600160a01b031663a9059cbb86836040518363ffffffff1660e01b815260040180836001600160a01b0316815260200182815260200192505050602060405180830381600087803b15801561077a57600080fd5b505af115801561078e573d6000803e3d6000fd5b505050506040513d60208110156107a457600080fd5b50505b505060010161060c565b50505050565b604080516000808252602082019092526001600160a01b0384169083906040518082805190602001908083835b602083106108035780518252601f1990920191602091820191016107e4565b6001836020036101000a03801982511681845116808217855250505050505090500191505060006040518083038185875af1925050503d8060008114610865576040519150601f19603f3d011682016040523d82523d6000602084013e61086a565b606091505b50509050806108aa5760405162461bcd60e51b81526004018080602001828103825260238152602001806108b06023913960400191505060405180910390fd5b50505056fe5472616e7366657248656c7065723a204554485f5452414e534645525f4641494c4544a26469706673582212206665b8dc20365045db5a65b6f9a6cc02d53f48987d182db1f293ee2a00c05eeb64736f6c634300060c0033",
  "devdoc": {
    "kind": "dev",
    "methods": {},
    "version": 1
  },
  "userdoc": {
    "kind": "user",
    "methods": {},
    "version": 1
  },
  "storageLayout": {
    "storage": [],
    "types": null
  }
}