{
  "address": "0x6f32213e54599344F65CeF3D4b75aEB350835C18",
  "abi": [
    {
      "inputs": [
        {
          "internalType": "address",
          "name": "__weth",
          "type": "address"
        }
      ],
      "stateMutability": "nonpayable",
      "type": "constructor"
    },
    {
      "anonymous": false,
      "inputs": [
        {
          "indexed": false,
          "internalType": "address",
          "name": "pool",
          "type": "address"
        }
      ],
      "name": "AdapterCreated",
      "type": "event"
    },
    {
      "inputs": [],
      "name": "ADAPTER_BYTECODE_HASH",
      "outputs": [
        {
          "internalType": "bytes32",
          "name": "",
          "type": "bytes32"
        }
      ],
      "stateMutability": "view",
      "type": "function"
    },
    {
      "inputs": [
        {
          "internalType": "address",
          "name": "pool",
          "type": "address"
        }
      ],
      "name": "calculateAdapterAddress",
      "outputs": [
        {
          "internalType": "address",
          "name": "calculatedAddress",
          "type": "address"
        }
      ],
      "stateMutability": "view",
      "type": "function"
    },
    {
      "inputs": [
        {
          "internalType": "address",
          "name": "pool",
          "type": "address"
        }
      ],
      "name": "createAdapter",
      "outputs": [],
      "stateMutability": "nonpayable",
      "type": "function"
    },
    {
      "inputs": [
        {
          "internalType": "address",
          "name": "pool",
          "type": "address"
        }
      ],
      "name": "getAdapterAddress",
      "outputs": [
        {
          "internalType": "address",
          "name": "wrapperAddress",
          "type": "address"
        }
      ],
      "stateMutability": "nonpayable",
      "type": "function"
    },
    {
      "inputs": [],
      "name": "nextToken",
      "outputs": [
        {
          "internalType": "address",
          "name": "",
          "type": "address"
        }
      ],
      "stateMutability": "view",
      "type": "function"
    },
    {
      "inputs": [],
      "name": "weth",
      "outputs": [
        {
          "internalType": "address",
          "name": "",
          "type": "address"
        }
      ],
      "stateMutability": "view",
      "type": "function"
    }
  ],
  "transactionHash": "0xf986375cacac3ecfecd914c9f7f05cdbfc576bd70e27a8366259b79e8e25f31e",
  "args": [
    "0xc778417e063141139fce010982780140aa0cd5ab"
  ],
  "solcInputHash": "9d871ed13622b25923d3df2f7f2fc95d",
  "bytecode": "0x60a060405234801561001057600080fd5b50604051610e4d380380610e4d8339818101604052602081101561003357600080fd5b5051606081901b6001600160601b0319166080526001600160a01b0316610de6610067600039806101235250610de66000f3fe608060405234801561001057600080fd5b50600436106100625760003560e01c80633fc8cef314610067578063407006ba1461008b5780636f665447146100a55780639499ac54146100cb578063acf461f9146100d3578063dfbaee2e146100fb575b600080fd5b61006f610121565b604080516001600160a01b039092168252519081900360200190f35b610093610145565b60408051918252519081900360200190f35b61006f600480360360208110156100bb57600080fd5b50356001600160a01b0316610172565b61006f610211565b6100f9600480360360208110156100e957600080fd5b50356001600160a01b0316610220565b005b61006f6004803603602081101561011157600080fd5b50356001600160a01b03166102bb565b7f000000000000000000000000000000000000000000000000000000000000000090565b6040516101546020820161030a565b6020820181038252601f19601f820116604052508051906020012081565b6040516000906001600160f81b03199030906001600160a01b0385169061019b6020820161030a565b6020820181038252601f19601f820116604052508051906020012060405160200180856001600160f81b0319168152600101846001600160a01b031660601b81526014018381526020018281526020019450505050506040516020818303038152906040528051906020012060001c9050919050565b6000546001600160a01b031690565b600080546001600160a01b0319166001600160a01b03831690811790915560405161024a9061030a565b8190604051809103906000f590508015801561026a573d6000803e3d6000fd5b5050600080546001600160a01b0319169055604080516001600160a01b038316815290517f26bdcb646ad71620005047421fb0169ac41ef04913ddf770ad9d6625555a4ffc9181900360200190a150565b60006102c682610172565b90506102da816001600160a01b0316610304565b6102ff576102e782610220565b6102f9816001600160a01b0316610304565b6102ff57fe5b919050565b3b151590565b610a99806103188339019056fe60e060405234801561001057600080fd5b50604080516329965a1d60e01b815230600482018190527fb281fc8c12954d22544db45de3159a39272895b169a852b314f9cc762e44c53b602483015260448201529051731820a4b7618bde71dce8cdc73aab6c95905fad24916329965a1d91606480830192600092919082900301818387803b15801561009057600080fd5b505af11580156100a4573d6000803e3d6000fd5b505060408051630f41a04d60e11b8152326004820152905173084b1c3c81545d370f3634392de611caabff81489350631e83409a925060248083019260209291908290030181600087803b1580156100fb57600080fd5b505af192505050801561012057506040513d602081101561011b57600080fd5b505160015b6101ac5760408051630f41a04d60e11b81523260048201529051736f628b68b30dc3c17f345c9dbbb1e483c2b7ae5c91631e83409a9160248083019260209291908290030181600087803b15801561017757600080fd5b505af192505050801561019c57506040513d602081101561019757600080fd5b505160015b6101a5576101a7565b505b6101ae565b505b6000336001600160a01b0316639499ac546040518163ffffffff1660e01b815260040160206040518083038186803b1580156101e957600080fd5b505afa1580156101fd573d6000803e3d6000fd5b505050506040513d602081101561021357600080fd5b505160408051633fc8cef360e01b815290519192503391633fc8cef391600480820192602092909190829003018186803b15801561025057600080fd5b505afa158015610264573d6000803e3d6000fd5b505050506040513d602081101561027a57600080fd5b505160601b6001600160601b03191660c05260408051637e062a3560e11b815290516000916001600160a01b0384169163fc0c546a91600480820192602092909190829003018186803b1580156102d057600080fd5b505afa1580156102e4573d6000803e3d6000fd5b505050506040513d60208110156102fa57600080fd5b50516001600160601b0319606093841b8116608052921b90911660a0525060805160601c60a05160601c60c05160601c61073061036960003980603e528060b5525080610225528061024e528061034452806104b152508061031052806103dd52806104d552506107306000f3fe6080604052600436106100375760003560e01c806223de29146100e257806316f0115b146101d9578063fc0c546a1461020a576100dd565b366100dd577f00000000000000000000000000000000000000000000000000000000000000006001600160a01b031663d0e30db0346040518263ffffffff1660e01b81526004016000604051808303818588803b15801561009757600080fd5b505af11580156100ab573d6000803e3d6000fd5b50505050506100db7f0000000000000000000000000000000000000000000000000000000000000000343361021f565b005b600080fd5b3480156100ee57600080fd5b506100db600480360360c081101561010557600080fd5b6001600160a01b03823581169260208101358216926040820135909216916060820135919081019060a08101608082013564010000000081111561014857600080fd5b82018360208201111561015a57600080fd5b8035906020019184600183028401116401000000008311171561017c57600080fd5b91939092909160208101903564010000000081111561019a57600080fd5b8201836020820111156101ac57600080fd5b803590602001918460018302840111640100000000831117156101ce57600080fd5b50909250905061045a565b3480156101e557600080fd5b506101ee6104af565b604080516001600160a01b039092168252519081900360200190f35b34801561021657600080fd5b506101ee6104d3565b61024a837f0000000000000000000000000000000000000000000000000000000000000000846104f7565b60007f00000000000000000000000000000000000000000000000000000000000000006001600160a01b0316635db34277858560006040518463ffffffff1660e01b815260040180846001600160a01b031681526020018381526020018281526020019350505050602060405180830381600087803b1580156102cc57600080fd5b505af11580156102e0573d6000803e3d6000fd5b505050506040513d60208110156102f657600080fd5b50516040805163a9059cbb60e01b81526001600160a01b037f0000000000000000000000000000000000000000000000000000000000000000811660048301526024820184905291519293507f00000000000000000000000000000000000000000000000000000000000000009091169163a9059cbb916044808201926020929091908290030181600087803b15801561038f57600080fd5b505af11580156103a3573d6000803e3d6000fd5b505050506040513d60208110156103b957600080fd5b505060408051631185197d60e31b81526001600160a01b03848116600483015291517f000000000000000000000000000000000000000000000000000000000000000090921691638c28cbe8916024808201926020929091908290030181600087803b15801561042857600080fd5b505af115801561043c573d6000803e3d6000fd5b505050506040513d602081101561045257600080fd5b505050505050565b61046333610604565b6104a533888787878080601f01602080910402602001604051908101604052809392919081815260200183838082843760009201919091525061060792505050565b5050505050505050565b7f000000000000000000000000000000000000000000000000000000000000000081565b7f000000000000000000000000000000000000000000000000000000000000000081565b60408051636eb1769f60e11b81523060048201526001600160a01b0384811660248301529151839286169163dd62ed3e916044808301926020929190829003018186803b15801561054757600080fd5b505afa15801561055b573d6000803e3d6000fd5b505050506040513d602081101561057157600080fd5b505110156105ff57826001600160a01b031663095ea7b3836000196040518363ffffffff1660e01b815260040180836001600160a01b0316815260200182815260200192505050602060405180830381600087803b1580156105d257600080fd5b505af11580156105e6573d6000803e3d6000fd5b505050506040513d60208110156105fc57600080fd5b50505b505050565b50565b6000846001600160a01b031663de0e9a3e846040518263ffffffff1660e01b815260040180828152602001915050602060405180830381600087803b15801561064f57600080fd5b505af1158015610663573d6000803e3d6000fd5b505050506040513d602081101561067957600080fd5b505160408051637e062a3560e11b815290519192506000916001600160a01b0388169163fc0c546a916004808301926020929190829003018186803b1580156106c157600080fd5b505afa1580156106d5573d6000803e3d6000fd5b505050506040513d60208110156106eb57600080fd5b5051905061045281838761021f56fea26469706673582212202ae42d6a96e9f1182c925b1fa7aaab52b8bcfeed41b4fead0e986046ff67a3bc64736f6c634300060c0033a264697066735822122094ef589bd005880a1e605d53514fe2f1795f6495ffbf2fd073165932a574722964736f6c634300060c0033",
  "devdoc": {
    "kind": "dev",
    "methods": {},
    "version": 1
  },
  "userdoc": {
    "kind": "user",
    "methods": {},
    "version": 1
  },
  "storageLayout": {
    "storage": [
      {
        "astId": 7755,
        "contract": "contracts/protocols/balancer/BalancerPoolFactory.sol:BalancerPoolFactory",
        "label": "_nextToken",
        "offset": 0,
        "slot": "0",
        "type": "t_address"
      }
    ],
    "types": {
      "t_address": {
        "encoding": "inplace",
        "label": "address",
        "numberOfBytes": "20"
      }
    }
  }
}