{
  "address": "0x09023D1b460d340Eb6Dc50E6dC9B0e0e4F63072D",
  "abi": [
    {
      "anonymous": false,
      "inputs": [
        {
          "indexed": false,
          "internalType": "address",
          "name": "token",
          "type": "address"
        }
      ],
      "name": "WrapperCreated",
      "type": "event"
    },
    {
      "inputs": [],
      "name": "WRAPPER_BYTECODE_HASH",
      "outputs": [
        {
          "internalType": "bytes32",
          "name": "",
          "type": "bytes32"
        }
      ],
      "stateMutability": "view",
      "type": "function"
    },
    {
      "inputs": [
        {
          "internalType": "address",
          "name": "token",
          "type": "address"
        }
      ],
      "name": "calculateWrapperAddress",
      "outputs": [
        {
          "internalType": "address",
          "name": "calculatedAddress",
          "type": "address"
        }
      ],
      "stateMutability": "view",
      "type": "function"
    },
    {
      "inputs": [
        {
          "internalType": "address",
          "name": "token",
          "type": "address"
        }
      ],
      "name": "createWrapper",
      "outputs": [],
      "stateMutability": "nonpayable",
      "type": "function"
    },
    {
      "inputs": [
        {
          "internalType": "address",
          "name": "token",
          "type": "address"
        }
      ],
      "name": "getWrapperAddress",
      "outputs": [
        {
          "internalType": "address",
          "name": "wrapperAddress",
          "type": "address"
        }
      ],
      "stateMutability": "nonpayable",
      "type": "function"
    },
    {
      "inputs": [],
      "name": "nextToken",
      "outputs": [
        {
          "internalType": "address",
          "name": "",
          "type": "address"
        }
      ],
      "stateMutability": "view",
      "type": "function"
    }
  ],
  "transactionHash": "0xccca537557c631cb1ba62bbe6493907774ed59994c2dcd442e3ebde8dd1d65ac",
  "args": [],
  "solcInputHash": "91f3f870d874f870af2858e9265ee793",
  "bytecode": "0x608060405234801561001057600080fd5b5061453f806100206000396000f3fe60806040523480156200001157600080fd5b50600436106200005e5760003560e01c8063014c6ddf14620000635780631d10177714620000a85780639499ac5414620000c4578063a7c4f0ef14620000ce578063da58c26514620000f9575b600080fd5b6200008c600480360360208110156200007b57600080fd5b50356001600160a01b031662000122565b604080516001600160a01b039092168252519081900360200190f35b620000b2620001c3565b60408051918252519081900360200190f35b6200008c620001f2565b620000f760048036036020811015620000e657600080fd5b50356001600160a01b031662000201565b005b6200008c600480360360208110156200011157600080fd5b50356001600160a01b03166200029f565b6040516000906001600160f81b03199030906001600160a01b038516906200014d60208201620002f8565b6020820181038252601f19601f820116604052508051906020012060405160200180856001600160f81b0319168152600101846001600160a01b031660601b81526014018381526020018281526020019450505050506040516020818303038152906040528051906020012060001c9050919050565b604051620001d460208201620002f8565b6020820181038252601f19601f820116604052508051906020012081565b6000546001600160a01b031690565b600080546001600160a01b0319166001600160a01b0383169081179091556040516200022d90620002f8565b8190604051809103906000f59050801580156200024e573d6000803e3d6000fd5b5050600080546001600160a01b0319169055604080516001600160a01b038316815290517fc67b3b27e4a7590b0ac11d5ea32726ca717e7225caf451f04f9da0f9f32fedb09181900360200190a150565b6000620002ac8262000122565b9050620002c2816001600160a01b0316620002f2565b620002ed57620002d28262000201565b620002e6816001600160a01b0316620002f2565b620002ed57fe5b919050565b3b151590565b61420380620003078339019056fe60c06040523480156200001157600080fd5b50604080516329965a1d60e01b815230600482018190527fac7fbab5f54a3ca8194167523c6753bfeb96a445279294b6125b68cce2177054602483015260448201529051731820a4b7618bde71dce8cdc73aab6c95905fad24916329965a1d91606480830192600092919082900301818387803b1580156200009257600080fd5b505af1158015620000a7573d6000803e3d6000fd5b5050604080516329965a1d60e01b815230600482018190527faea199e31a596269b42cdafd93407f14436db6e4cad65417994c2eb37381e05a602483015260448201529051731820a4b7618bde71dce8cdc73aab6c95905fad2493506329965a1d9250606480830192600092919082900301818387803b1580156200012b57600080fd5b505af115801562000140573d6000803e3d6000fd5b5050604080516329965a1d60e01b815230600482018190527fb281fc8c12954d22544db45de3159a39272895b169a852b314f9cc762e44c53b602483015260448201529051731820a4b7618bde71dce8cdc73aab6c95905fad2493506329965a1d9250606480830192600092919082900301818387803b158015620001c457600080fd5b505af1158015620001d9573d6000803e3d6000fd5b505050506000336001600160a01b0316639499ac546040518163ffffffff1660e01b815260040160206040518083038186803b1580156200021957600080fd5b505afa1580156200022e573d6000803e3d6000fd5b505050506040513d60208110156200024557600080fd5b5051606081901b6001600160601b03191660805290506200027281620005c8602090811b620019e217901c565b6040516020018082805190602001908083835b60208310620002a65780518252601f19909201916020918201910162000285565b51815160209384036101000a6000190180199092169116179052632d37373760e01b9190930190815260408051808303601b19018152600490920190528051620002fa955060039450920191905062000b95565b5062000311816200060760201b62001a131760201c565b6040516020018082805190602001908083835b60208310620003455780518252601f19909201916020918201910162000324565b51815160209384036101000a60001901801990921691161790526237373760e81b9190930190815260408051808303601c1901815260039092019052805162000398955060049450920191905062000b95565b506200040e816001600160a01b031663313ce5676040518163ffffffff1660e01b815260040160206040518083038186803b158015620003d757600080fd5b505afa158015620003ec573d6000803e3d6000fd5b505050506040513d60208110156200040357600080fd5b505160ff1662000635565b604080516329965a1d60e01b815230600482018190527f25d236b07c82ae6ff3fc3a505a958b70ece0b81ba97eb926f710865e5b69a2cd602483015260448201529051731820a4b7618bde71dce8cdc73aab6c95905fad24916329965a1d91606480830192600092919082900301818387803b1580156200048e57600080fd5b505af1158015620004a3573d6000803e3d6000fd5b505050507f8b73c3c69bb8fe3d512ecc4cf759cc79239f7b179b0ffacaa9a75d522b39400f60036040518082805460018160011615610100020316600290048015620005295780601f106200050657610100808354040283529182019162000529565b820191906000526020600020905b81548152906001019060200180831162000514575b50506040805191829003822082820190915260018252603160f81b60209092019190915291507fc89efdaa54c0f20c7adf612882df0950f5a951637e0307cdcb4c672f298b8bc690506200057c6200063a565b6040805160208082019690965280820194909452606084019290925260808301523060a08084019190915281518084038201815260c09093019091528151919092012090525062000c31565b606080620005de836306fdde0360e01b6200063e565b9050805160001415620005ff57620005f6836200087e565b91505062000602565b90505b919050565b6060806200061d836395d89b4160e01b6200063e565b9050805160001415620005ff57620005f68362000898565b600055565b4690565b60408051600481526024810182526020810180516001600160e01b03166001600160e01b031985161781529151815160609360009385936001600160a01b03891693919290918291908083835b60208310620006ac5780518252601f1990920191602091820191016200068b565b6001836020036101000a038019825116818451168082178552505050505050905001915050600060405180830381855afa9150503d80600081146200070e576040519150601f19603f3d011682016040523d82523d6000602084013e62000713565b606091505b50915091508115806200072557508051155b156200074557604051806020016040528060008152509250505062000878565b805160201415620007825760008180602001905160208110156200076857600080fd5b505190506200077781620008b2565b935050505062000878565b6040815111156200086357808060200190516020811015620007a357600080fd5b8101908080516040519392919084640100000000821115620007c457600080fd5b908301906020820185811115620007da57600080fd5b8251640100000000811182820188101715620007f557600080fd5b82525081516020918201929091019080838360005b83811015620008245781810151838201526020016200080a565b50505050905090810190601f168015620008525780820380516001836020036101000a031916815260200191505b506040525050509250505062000878565b60405180602001604052806000815250925050505b92915050565b6060620005ff826028620009fb60201b62001a3c1760201c565b6060620005ff826006620009fb60201b62001a3c1760201c565b6040805160208082528183019092526060918291906020820181803683370190505090506000805b602081101562000958576000858260208110620008f357fe5b1a60f81b90507fff000000000000000000000000000000000000000000000000000000000000008116156200094e57808484815181106200093057fe5b60200101906001600160f81b031916908160001a9053506001909201915b50600101620008da565b506060816001600160401b03811180156200097257600080fd5b506040519080825280601f01601f1916602001820160405280156200099e576020820181803683370190505b50905060005b82811015620009f257838181518110620009ba57fe5b602001015160f81c60f81b828281518110620009d257fe5b60200101906001600160f81b031916908160001a905350600101620009a4565b50949350505050565b60606002820615801562000a0f5750600082115b801562000a1d575060288211155b62000a6f576040805162461bcd60e51b815260206004820152601e60248201527f41646472657373537472696e675574696c3a20494e56414c49445f4c454e0000604482015290519081900360640190fd5b6060826001600160401b038111801562000a8857600080fd5b506040519080825280601f01601f19166020018201604052801562000ab4576020820181803683370190505b5090506001600160a01b03841660005b6002850481101562000b6057600860138290030282901c600f600482901c1660f08216820362000af48262000b6a565b86856002028151811062000b0457fe5b60200101906001600160f81b031916908160001a90535062000b268162000b6a565b86856002026001018151811062000b3957fe5b60200101906001600160f81b031916908160001a905350506001909201915062000ac49050565b5090949350505050565b6000600a8260ff16101562000b8757506030810160f81b62000602565b506037810160f81b62000602565b828054600181600116156101000203166002900490600052602060002090601f016020900481019282601f1062000bd857805160ff191683800117855562000c08565b8280016001018555821562000c08579182015b8281111562000c0857825182559160200191906001019062000beb565b5062000c1692915062000c1a565b5090565b5b8082111562000c16576000815560010162000c1b565b60805160601c60a05161356a62000c9960003980610eef5280611656525080610cf35280610e6152806110e9528061119c528061123a528061153752806119355280611bfe5280612c215280612c855280612f8d5280613063528061310b525061356a6000f3fe608060405234801561001057600080fd5b50600436106102055760003560e01c80637ecebe001161011a578063d95b6371116100ad578063ed9a5f511161007c578063ed9a5f5114610991578063fad8b32a14610999578063fc0c546a146109bf578063fc673c4f146109e3578063fe9d930314610b2157610205565b8063d95b6371146108fb578063dd62ed3e14610929578063de0e9a3e14610957578063ea598cb01461097457610205565b80639bd9bbc6116100e95780639bd9bbc6146107bd578063a9059cbb14610876578063bd27dc9f146108a2578063d505accf146108aa57610205565b80637ecebe00146107435780638c28cbe814610769578063959b8c3f1461078f57806395d89b41146107b557610205565b806330adf81f1161019d578063556f0dc71161016c578063556f0dc7146105625780635dbd60591461056a57806362ad1b831461059657806370a08231146106df578063796ab9801461070557610205565b806330adf81f146104b1578063313ce567146104b95780633644e515146104d75780633ea21465146104df57610205565b806318160ddd116101d957806318160ddd146104075780631be655e81461042157806323b872dd1461044f578063265998501461048557610205565b806223de291461020a57806306e48538146102f257806306fdde031461034a578063095ea7b3146103c7575b600080fd5b6102f0600480360360c081101561022057600080fd5b6001600160a01b03823581169260208101358216926040820135909216916060820135919081019060a081016080820135600160201b81111561026257600080fd5b82018360208201111561027457600080fd5b803590602001918460018302840111600160201b8311171561029557600080fd5b919390929091602081019035600160201b8111156102b257600080fd5b8201836020820111156102c457600080fd5b803590602001918460018302840111600160201b831117156102e557600080fd5b509092509050610bcc565b005b6102fa610c21565b60408051602080825283518183015283519192839290830191858101910280838360005b8381101561033657818101518382015260200161031e565b505050509050019250505060405180910390f35b610352610c26565b6040805160208082528351818301528351919283929083019185019080838360005b8381101561038c578181015183820152602001610374565b50505050905090810190601f1680156103b95780820380516001836020036101000a031916815260200191505b509250505060405180910390f35b6103f3600480360360408110156103dd57600080fd5b506001600160a01b038135169060200135610cbc565b604080519115158252519081900360200190f35b61040f610ce0565b60408051918252519081900360200190f35b61040f6004803603604081101561043757600080fd5b506001600160a01b0381358116916020013516610cef565b6103f36004803603606081101561046557600080fd5b506001600160a01b03813581169160208101359091169060400135610d49565b61040f6004803603604081101561049b57600080fd5b50803590602001356001600160a01b0316610e4f565b61040f610ec4565b6104c1610ee8565b6040805160ff9092168252519081900360200190f35b61040f610eed565b6102f0600480360360608110156104f557600080fd5b6001600160a01b0382351691602081013591810190606081016040820135600160201b81111561052457600080fd5b82018360208201111561053657600080fd5b803590602001918460018302840111600160201b8311171561055757600080fd5b509092509050610f11565b61040f610ff4565b61040f6004803603604081101561058057600080fd5b50803590602001356001600160a01b0316610ffe565b6102f0600480360360a08110156105ac57600080fd5b6001600160a01b03823581169260208101359091169160408201359190810190608081016060820135600160201b8111156105e657600080fd5b8201836020820111156105f857600080fd5b803590602001918460018302840111600160201b8311171561061957600080fd5b91908080601f0160208091040260200160405190810160405280939291908181526020018383808284376000920191909152509295949360208101935035915050600160201b81111561066b57600080fd5b82018360208201111561067d57600080fd5b803590602001918460018302840111600160201b8311171561069e57600080fd5b91908080601f016020809104026020016040519081016040528093929190818152602001838380828437600092019190915250929550611012945050505050565b61040f600480360360208110156106f557600080fd5b50356001600160a01b031661107b565b61040f600480360360c081101561071b57600080fd5b5080359060208101359060408101359060ff6060820135169060808101359060a0013561108e565b61040f6004803603602081101561075957600080fd5b50356001600160a01b0316611216565b61040f6004803603602081101561077f57600080fd5b50356001600160a01b0316611228565b6102f0600480360360208110156107a557600080fd5b50356001600160a01b0316611308565b6103526113f2565b6102f0600480360360608110156107d357600080fd5b6001600160a01b0382351691602081013591810190606081016040820135600160201b81111561080257600080fd5b82018360208201111561081457600080fd5b803590602001918460018302840111600160201b8311171561083557600080fd5b91908080601f016020809104026020016040519081016040528093929190818152602001838380828437600092019190915250929550611453945050505050565b6103f36004803603604081101561088c57600080fd5b506001600160a01b03813516906020013561147d565b6102fa611510565b6102f0600480360360e08110156108c057600080fd5b506001600160a01b03813581169160208101359091169060408101359060608101359060ff6080820135169060a08101359060c00135611580565b6103f36004803603604081101561091157600080fd5b506001600160a01b038135811691602001351661178a565b61040f6004803603604081101561093f57600080fd5b506001600160a01b03813581169160200135166117d7565b61040f6004803603602081101561096d57600080fd5b5035611802565b61040f6004803603602081101561098a57600080fd5b503561181a565b610352611831565b6102f0600480360360208110156109af57600080fd5b50356001600160a01b0316611852565b6109c7611933565b604080516001600160a01b039092168252519081900360200190f35b6102f0600480360360808110156109f957600080fd5b6001600160a01b0382351691602081013591810190606081016040820135600160201b811115610a2857600080fd5b820183602082011115610a3a57600080fd5b803590602001918460018302840111600160201b83111715610a5b57600080fd5b91908080601f0160208091040260200160405190810160405280939291908181526020018383808284376000920191909152509295949360208101935035915050600160201b811115610aad57600080fd5b820183602082011115610abf57600080fd5b803590602001918460018302840111600160201b83111715610ae057600080fd5b91908080601f016020809104026020016040519081016040528093929190818152602001838380828437600092019190915250929550611957945050505050565b6102f060048036036040811015610b3757600080fd5b81359190810190604081016020820135600160201b811115610b5857600080fd5b820183602082011115610b6a57600080fd5b803590602001918460018302840111600160201b83111715610b8b57600080fd5b91908080601f0160208091040260200160405190810160405280939291908181526020018383808284376000920191909152509295506119bc945050505050565b610bd533611b9f565b610c1733888787878080601f016020809104026020016040519081016040528093929190818152602001838380828437600092019190915250611ba292505050565b5050505050505050565b606090565b60038054604080516020601f6002600019610100600188161502019095169490940493840181900481028201810190925282815260609390929091830182828015610cb25780601f10610c8757610100808354040283529160200191610cb2565b820191906000526020600020905b815481529060010190602001808311610c9557829003601f168201915b5050505050905090565b600080610cc7611c24565b9050610cd4818585611c28565b60019150505b92915050565b6000610cea611c8a565b905090565b60007f00000000000000000000000000000000000000000000000000000000000000006001600160a01b0316826001600160a01b031614610d31576000610d42565b610d42610d3d84611c90565b611cab565b9392505050565b600080610d54611c24565b9050610d82818686866040518060200160405280600081525060405180602001604052806000815250611cc4565b610dae818686866040518060200160405280600081525060405180602001604052806000815250611ef1565b60408051808201825260128152714552433737373a204f5645522d414c4c4f5760701b6020808301919091526001600160a01b03808916600090815260078352848120918616815291529190912054610e169187918491610e1191908890612213565b611c28565b610e4481868686604051806020016040528060008152506040518060200160405280600081525060006122aa565b506001949350505050565b600080610e5a611c24565b9050610e887f000000000000000000000000000000000000000000000000000000000000000082308761253b565b610e9184612698565b9150610ebd838360405180602001604052806000815250604051806020016040528060008152506126aa565b5092915050565b7f6e71edae12b1b97f4d1f60370fef10105fa2faae0126114a169c64845d6126c981565b601290565b7f000000000000000000000000000000000000000000000000000000000000000081565b610f60848484848080601f0160208091040260200160405190810160405280939291908181526020018383808284376000920182905250604080516020810190915290815292506126aa915050565b610faf848484848080601f01602080910402602001604051908101604052809392919081815260200183838082843760009201829052506040805160208101909152908152925061292b915050565b6040805184815290516001600160a01b038616917f5b9ea35ccc2de5176fed8512b7b27b62fd5c98bce089f76ef67287ffa759db9d919081900360200190a250505050565b6000610cea612bd9565b6000610d428361100c611c24565b84612be5565b61102361101d611c24565b8661178a565b611065576040805162461bcd60e51b815260206004820152600e60248201526d22a9219b9b9b90272796a7a822a960911b604482015290519081900360640190fd5b61107485858585856001612c47565b5050505050565b600061108682611c90565b90505b919050565b600080611099611c24565b6040805163d505accf60e01b81526001600160a01b038381166004830152306024830152604482018c9052606482018b905260ff8916608483015260a4820188905260c4820187905291519293507f00000000000000000000000000000000000000000000000000000000000000009091169163d505accf9160e48082019260009290919082900301818387803b15801561113357600080fd5b505af1925050508015611144575060015b61120057604080516323f2ebc360e21b81526001600160a01b03838116600483015230602483015260448201899052606482018a90526001608483015260ff881660a483015260c4820187905260e4820186905291517f000000000000000000000000000000000000000000000000000000000000000090921691638fcbaf0c916101048082019260009290919082900301818387803b1580156111e757600080fd5b505af11580156111fb573d6000803e3d6000fd5b505050505b61120a8189612c7e565b98975050505050505050565b60086020526000908152604090205481565b60006112dc611235611c8a565b6112d67f00000000000000000000000000000000000000000000000000000000000000006001600160a01b03166370a08231306040518263ffffffff1660e01b815260040180826001600160a01b0316815260200191505060206040518083038186803b1580156112a557600080fd5b505afa1580156112b9573d6000803e3d6000fd5b505050506040513d60208110156112cf57600080fd5b5051612698565b90612ce1565b9050611089828260405180602001604052806000815250604051806020016040528060008152506126aa565b806001600160a01b031661131a611c24565b6001600160a01b03161415611362576040805162461bcd60e51b815260206004820152600960248201526829a2a62316a7a822a960b91b604482015290519081900360640190fd5b600160066000611370611c24565b6001600160a01b03908116825260208083019390935260409182016000908120918616815292529020805460ff19169115159190911790556113b0611c24565b6001600160a01b0316816001600160a01b03167ff4caeb2d6ca8932a215a353d0703c326ec2d81fc68170f320eb2ab49e9df61f960405160405180910390a350565b60048054604080516020601f6002600019610100600188161502019095169490940493840181900481028201810190925282815260609390929091830182828015610cb25780601f10610c8757610100808354040283529160200191610cb2565b61147861145e611c24565b848484604051806020016040528060008152506001612c47565b505050565b600080611488611c24565b90506114b6818286866040518060200160405280600081525060405180602001604052806000815250611cc4565b6114e2818286866040518060200160405280600081525060405180602001604052806000815250611ef1565b610cd481828686604051806020016040528060008152506040518060200160405280600081525060006122aa565b604080516001808252818301909252606091829190602080830190803683370190505090507f00000000000000000000000000000000000000000000000000000000000000008160008151811061156357fe5b6001600160a01b0390921660209283029190910190910152905090565b428410156115bf576040805162461bcd60e51b81526020600482015260076024820152661156141254915160ca1b604482015290519081900360640190fd5b6001600160a01b0380881660008181526008602090815260408083208054600180820190925582517f6e71edae12b1b97f4d1f60370fef10105fa2faae0126114a169c64845d6126c98186015280840196909652958c166060860152608085018b905260a085019590955260c08085018a90528151808603909101815260e08501825280519083012061190160f01b6101008601527f00000000000000000000000000000000000000000000000000000000000000006101028601526101228086019190915281518086039091018152610142850180835281519184019190912090849052610162850180835281905260ff89166101828601526101a285018890526101c285018790529051909492936101e28082019392601f1981019281900390910190855afa1580156116f8573d6000803e3d6000fd5b5050604051601f1901519150506001600160a01b0381161580159061172e5750886001600160a01b0316816001600160a01b0316145b611774576040805162461bcd60e51b81526020600482015260126024820152715065726d697420494e56414c49445f53494760701b604482015290519081900360640190fd5b61177f898989611c28565b505050505050505050565b6000816001600160a01b0316836001600160a01b03161480610d425750506001600160a01b0390811660009081526006602090815260408083209490931682529290925290205460ff1690565b6001600160a01b03918216600090815260076020908152604080832093909416825291909152205490565b60008061180d611c24565b9050610d42838283612be5565b600080611825611c24565b9050610d428184612c7e565b604051806040016040528060058152602001640302e322e360dc1b81525081565b61185a611c24565b6001600160a01b0316816001600160a01b031614156118ac576040805162461bcd60e51b815260206004820152600960248201526829a2a62316a7a822a960b91b604482015290519081900360640190fd5b600660006118b8611c24565b6001600160a01b03908116825260208083019390935260409182016000908120918516815292529020805460ff191690556118f1611c24565b6001600160a01b0316816001600160a01b03167f50546e66e5f44d728365dc3908c63bc5cfeeab470722c1677e3073a6ac294aa160405160405180910390a350565b7f000000000000000000000000000000000000000000000000000000000000000081565b611968611962611c24565b8561178a565b6119aa576040805162461bcd60e51b815260206004820152600e60248201526d22a9219b9b9b90272796a7a822a960911b604482015290519081900360640190fd5b6119b68484848461292b565b50505050565b6119de6119c7611c24565b83836040518060200160405280600081525061292b565b5050565b6060806119f6836306fdde0360e01b612d23565b905080516000141561108657611a0b83612f49565b915050611089565b606080611a27836395d89b4160e01b612d23565b905080516000141561108657611a0b83612f56565b606060028206158015611a4f5750600082115b8015611a5c575060288211155b611aad576040805162461bcd60e51b815260206004820152601e60248201527f41646472657373537472696e675574696c3a20494e56414c49445f4c454e0000604482015290519081900360640190fd5b60608267ffffffffffffffff81118015611ac657600080fd5b506040519080825280601f01601f191660200182016040528015611af1576020820181803683370190505b5090506001600160a01b03841660005b60028504811015611b9557600860138290030282901c600f600482901c1660f082168203611b2e82612f63565b868560020281518110611b3d57fe5b60200101906001600160f81b031916908160001a905350611b5d81612f63565b868560020260010181518110611b6f57fe5b60200101906001600160f81b031916908160001a9053505060019092019150611b019050565b5090949350505050565b50565b6001600160a01b0384163014611bc257611bbd848484612f8b565b6119b6565b611bec3083604051806020016040528060008152506040518060200160405280600081525061292b565b6000611bf783611cab565b90506110747f00000000000000000000000000000000000000000000000000000000000000008583613226565b3390565b6001600160a01b03808416600081815260076020908152604080832094871680845294825291829020859055815185815291517f8c5be1e5ebec7d5bd14f71427d1e84f3dd0314c0f7b2291e5b200ac8c7c3b9259281900390910190a3505050565b60025490565b6001600160a01b031660009081526001602052604090205490565b6000611cb5612bd9565b8281611cbd57fe5b0492915050565b6040805163555ddc6560e11b81526001600160a01b03871660048201527f29ddb589b1fb5fc7cf394961c1adf5f8c6454761adf795e67fe149f658abe89560248201529051600091731820a4b7618bde71dce8cdc73aab6c95905fad249163aabbb8ca91604480820192602092909190829003018186803b158015611d4857600080fd5b505afa158015611d5c573d6000803e3d6000fd5b505050506040513d6020811015611d7257600080fd5b505190506001600160a01b03811615611ee857806001600160a01b03166375ab97828888888888886040518763ffffffff1660e01b815260040180876001600160a01b03168152602001866001600160a01b03168152602001856001600160a01b031681526020018481526020018060200180602001838103835285818151815260200191508051906020019080838360005b83811015611e1d578181015183820152602001611e05565b50505050905090810190601f168015611e4a5780820380516001836020036101000a031916815260200191505b50838103825284518152845160209182019186019080838360005b83811015611e7d578181015183820152602001611e65565b50505050905090810190601f168015611eaa5780820380516001836020036101000a031916815260200191505b5098505050505050505050600060405180830381600087803b158015611ecf57600080fd5b505af1158015611ee3573d6000803e3d6000fd5b505050505b50505050505050565b6001600160a01b038516611f40576040805162461bcd60e51b81526020600482015260116024820152704552433737373a2053454e442d5a45524f60781b604482015290519081900360640190fd5b6001600160a01b038416611f8f576040805162461bcd60e51b81526020600482015260116024820152704552433737373a2053454e442d5a45524f60781b604482015290519081900360640190fd5b611f97612bd9565b8381611f9f57fe5b0615611fe5576040805162461bcd60e51b815260206004820152601060248201526f22a9219b9b9b9d102120a216a3a920a760811b604482015290519081900360640190fd5b611ff1868686866119b6565b60408051808201825260138152724552433737373a2053454e442d45584345535360681b6020808301919091526001600160a01b038816600090815260019091529190912054612042918590612213565b6001600160a01b0380871660009081526001602052604080822093909355908616815220546120719084613389565b60016000866001600160a01b03166001600160a01b0316815260200190815260200160002081905550836001600160a01b0316856001600160a01b0316876001600160a01b03167f06b541ddaa720db2b10a4d0cdac39b8d360425fc073085fac19bc82614677987868686604051808481526020018060200180602001838103835285818151815260200191508051906020019080838360005b8381101561212357818101518382015260200161210b565b50505050905090810190601f1680156121505780820380516001836020036101000a031916815260200191505b50838103825284518152845160209182019186019080838360005b8381101561218357818101518382015260200161216b565b50505050905090810190601f1680156121b05780820380516001836020036101000a031916815260200191505b509550505050505060405180910390a4836001600160a01b0316856001600160a01b03167fddf252ad1be2c89b69c2b068fc378daa952ba7f163c4a11628f55a4df523b3ef856040518082815260200191505060405180910390a3505050505050565b600081848411156122a25760405162461bcd60e51b81526004018080602001828103825283818151815260200191508051906020019080838360005b8381101561226757818101518382015260200161224f565b50505050905090810190601f1680156122945780820380516001836020036101000a031916815260200191505b509250505060405180910390fd5b505050900390565b6040805163555ddc6560e11b81526001600160a01b03871660048201527fb281fc8c12954d22544db45de3159a39272895b169a852b314f9cc762e44c53b60248201529051600091731820a4b7618bde71dce8cdc73aab6c95905fad249163aabbb8ca91604480820192602092909190829003018186803b15801561232e57600080fd5b505afa158015612342573d6000803e3d6000fd5b505050506040513d602081101561235857600080fd5b505190506001600160a01b038116156124d157806001600160a01b03166223de298989898989896040518763ffffffff1660e01b815260040180876001600160a01b03168152602001866001600160a01b03168152602001856001600160a01b031681526020018481526020018060200180602001838103835285818151815260200191508051906020019080838360005b838110156124025781810151838201526020016123ea565b50505050905090810190601f16801561242f5780820380516001836020036101000a031916815260200191505b50838103825284518152845160209182019186019080838360005b8381101561246257818101518382015260200161244a565b50505050905090810190601f16801561248f5780820380516001836020036101000a031916815260200191505b5098505050505050505050600060405180830381600087803b1580156124b457600080fd5b505af11580156124c8573d6000803e3d6000fd5b50505050610c17565b8115610c17576124e9866001600160a01b03166133e3565b15610c17576040805162461bcd60e51b815260206004820152601960248201527f4e4f5420455243373737546f6b656e73526563697069656e7400000000000000604482015290519081900360640190fd5b604080516001600160a01b0385811660248301528481166044830152606480830185905283518084039091018152608490920183526020820180516001600160e01b03166323b872dd60e01b17815292518251600094606094938a169392918291908083835b602083106125c05780518252601f1990920191602091820191016125a1565b6001836020036101000a0380198251168184511680821785525050505050509050019150506000604051808303816000865af19150503d8060008114612622576040519150601f19603f3d011682016040523d82523d6000602084013e612627565b606091505b5091509150818015612655575080511580612655575080806020019051602081101561265257600080fd5b50515b6126905760405162461bcd60e51b81526004018080602001828103825260248152602001806135116024913960400191505060405180910390fd5b505050505050565b60006126a2612bd9565b909102919050565b6001600160a01b0384166126f9576040805162461bcd60e51b81526020600482015260116024820152704552433737373a204d494e542d5a45524f60781b604482015290519081900360640190fd5b612701612bd9565b838161270957fe5b061561274f576040805162461bcd60e51b815260206004820152601060248201526f22a9219b9b9b9d102120a216a3a920a760811b604482015290519081900360640190fd5b6000612759611c24565b905061276881600087876119b6565b6002546127759085613389565b6002556001600160a01b03851660009081526001602052604090205461279b9085613389565b6001600160a01b0386166000908152600160205260408120919091556127c790829087878787846122aa565b846001600160a01b0316816001600160a01b03167f2fe5be0146f74c5bce36c0b80911af6c7d86ff27e89d5cfa61fc681327954e5d868686604051808481526020018060200180602001838103835285818151815260200191508051906020019080838360005b8381101561284657818101518382015260200161282e565b50505050905090810190601f1680156128735780820380516001836020036101000a031916815260200191505b50838103825284518152845160209182019186019080838360005b838110156128a657818101518382015260200161288e565b50505050905090810190601f1680156128d35780820380516001836020036101000a031916815260200191505b509550505050505060405180910390a36040805185815290516001600160a01b038716916000917fddf252ad1be2c89b69c2b068fc378daa952ba7f163c4a11628f55a4df523b3ef9181900360200190a35050505050565b6001600160a01b03841661297a576040805162461bcd60e51b81526020600482015260116024820152704552433737373a204255524e2d5a45524f60781b604482015290519081900360640190fd5b612982612bd9565b838161298a57fe5b06156129d0576040805162461bcd60e51b815260206004820152601060248201526f22a9219b9b9b9d102120a216a3a920a760811b604482015290519081900360640190fd5b60006129da611c24565b90506129e981866000876119b6565b6129f881866000878787611cc4565b60408051808201825260138152724552433737373a204255524e2d45584345535360681b6020808301919091526001600160a01b038816600090815260019091529190912054612a49918690612213565b6001600160a01b038616600090815260016020526040902055600254612a6f9085612ce1565b600281905550846001600160a01b0316816001600160a01b03167fa78a9be3a7b862d26933ad85fb11d80ef66b8f972d7cbba06621d583943a4098868686604051808481526020018060200180602001838103835285818151815260200191508051906020019080838360005b83811015612af4578181015183820152602001612adc565b50505050905090810190601f168015612b215780820380516001836020036101000a031916815260200191505b50838103825284518152845160209182019186019080838360005b83811015612b54578181015183820152602001612b3c565b50505050905090810190601f168015612b815780820380516001836020036101000a031916815260200191505b509550505050505060405180910390a36040805185815290516000916001600160a01b038816917fddf252ad1be2c89b69c2b068fc378daa952ba7f163c4a11628f55a4df523b3ef9181900360200190a35050505050565b600054601203600a0a90565b6000612c118385604051806020016040528060008152506040518060200160405280600081525061292b565b612c1a84611cab565b9050610d427f00000000000000000000000000000000000000000000000000000000000000008383613226565b6000612c51611c24565b9050612c61818888888888611cc4565b612c6f818888888888611ef1565b611ee8818888888888886122aa565b6000612cac7f000000000000000000000000000000000000000000000000000000000000000084308561253b565b612cb582612698565b9050610cda838260405180602001604052806000815250604051806020016040528060008152506126aa565b6000610d4283836040518060400160405280601e81526020017f536166654d6174683a207375627472616374696f6e206f766572666c6f770000815250612213565b60408051600481526024810182526020810180516001600160e01b03166001600160e01b031985161781529151815160609360009385936001600160a01b03891693919290918291908083835b60208310612d8f5780518252601f199092019160209182019101612d70565b6001836020036101000a038019825116818451168082178552505050505050905001915050600060405180830381855afa9150503d8060008114612def576040519150601f19603f3d011682016040523d82523d6000602084013e612df4565b606091505b5091509150811580612e0557508051155b15612e23576040518060200160405280600081525092505050610cda565b805160201415612e5b576000818060200190516020811015612e4457600080fd5b50519050612e51816133e9565b9350505050610cda565b604081511115612f3157808060200190516020811015612e7a57600080fd5b8101908080516040519392919084600160201b821115612e9957600080fd5b908301906020820185811115612eae57600080fd5b8251600160201b811182820188101715612ec757600080fd5b82525081516020918201929091019080838360005b83811015612ef4578181015183820152602001612edc565b50505050905090810190601f168015612f215780820380516001836020036101000a031916815260200191505b5060405250505092505050610cda565b50506040805160208101909152600081529392505050565b6060611086826028611a3c565b6060611086826006611a3c565b6000600a8260ff161015612f7e57506030810160f81b611089565b506037810160f81b611089565b7f00000000000000000000000000000000000000000000000000000000000000006001600160a01b0316836001600160a01b031663fc0c546a6040518163ffffffff1660e01b815260040160206040518083038186803b158015612fee57600080fd5b505afa158015613002573d6000803e3d6000fd5b505050506040513d602081101561301857600080fd5b50516001600160a01b03161461305f576040805162461bcd60e51b81526020600482015260076024820152661253959053125160ca1b604482015290519081900360640190fd5b60007f00000000000000000000000000000000000000000000000000000000000000006001600160a01b03166370a08231306040518263ffffffff1660e01b815260040180826001600160a01b0316815260200191505060206040518083038186803b1580156130ce57600080fd5b505afa1580156130e2573d6000803e3d6000fd5b505050506040513d60208110156130f857600080fd5b50519050613107848084613226565b60007f00000000000000000000000000000000000000000000000000000000000000006001600160a01b03166370a08231306040518263ffffffff1660e01b815260040180826001600160a01b0316815260200191505060206040518083038186803b15801561317657600080fd5b505afa15801561318a573d6000803e3d6000fd5b505050506040513d60208110156131a057600080fd5b5051905060006131b86131b38385612ce1565b612698565b9050600081116131fc576040805162461bcd60e51b815260206004820152600a6024820152694e4f2d5550475241444560b01b604482015290519081900360640190fd5b612690858260405180602001604052806000815250604051806020016040528060008152506126aa565b604080516001600160a01b038481166024830152604480830185905283518084039091018152606490920183526020820180516001600160e01b031663a9059cbb60e01b178152925182516000946060949389169392918291908083835b602083106132a35780518252601f199092019160209182019101613284565b6001836020036101000a0380198251168184511680821785525050505050509050019150506000604051808303816000865af19150503d8060008114613305576040519150601f19603f3d011682016040523d82523d6000602084013e61330a565b606091505b5091509150818015613338575080511580613338575080806020019051602081101561333557600080fd5b50515b611074576040805162461bcd60e51b815260206004820152601f60248201527f5472616e7366657248656c7065723a205452414e534645525f4641494c454400604482015290519081900360640190fd5b600082820183811015610d42576040805162461bcd60e51b815260206004820152601b60248201527f536166654d6174683a206164646974696f6e206f766572666c6f770000000000604482015290519081900360640190fd5b3b151590565b6040805160208082528183019092526060918291906020820181803683370190505090506000805b602081101561347257600085826020811061342857fe5b1a60f81b90506001600160f81b0319811615613469578084848151811061344b57fe5b60200101906001600160f81b031916908160001a9053506001909201915b50600101613411565b5060608167ffffffffffffffff8111801561348c57600080fd5b506040519080825280601f01601f1916602001820160405280156134b7576020820181803683370190505b50905060005b82811015613507578381815181106134d157fe5b602001015160f81c60f81b8282815181106134e857fe5b60200101906001600160f81b031916908160001a9053506001016134bd565b5094935050505056fe5472616e7366657248656c7065723a205452414e534645525f46524f4d5f4641494c4544a26469706673582212203135bb0daaabaedee5d3085ca1aa8865e99d22a1201907c803615279eda8b8d464736f6c634300060c0033a2646970667358221220b57929a5cb765beefd9563508f2903a289b3f62b1e55061b6e9c82ed75e7d88f64736f6c634300060c0033",
  "devdoc": {
    "kind": "dev",
    "methods": {},
    "version": 1
  },
  "userdoc": {
    "kind": "user",
    "methods": {},
    "version": 1
  },
  "storageLayout": {
    "storage": [
      {
        "astId": 17036,
        "contract": "contracts/tokens/WrapperFactory.sol:WrapperFactory",
        "label": "_nextToken",
        "offset": 0,
        "slot": "0",
        "type": "t_address"
      }
    ],
    "types": {
      "t_address": {
        "encoding": "inplace",
        "label": "address",
        "numberOfBytes": "20"
      }
    }
  }
}