{
  "address": "0xd4D69C58B4F771afeEBf457635dc210947f2C281",
  "abi": [
    {
      "inputs": [
        {
          "internalType": "address",
          "name": "_addressProvider",
          "type": "address"
        },
        {
          "internalType": "contract IWETH",
          "name": "_weth",
          "type": "address"
        },
        {
          "internalType": "address",
          "name": "firstOwner",
          "type": "address"
        }
      ],
      "stateMutability": "nonpayable",
      "type": "constructor"
    },
    {
      "anonymous": false,
      "inputs": [
        {
          "indexed": true,
          "internalType": "address",
          "name": "previousOwner",
          "type": "address"
        },
        {
          "indexed": true,
          "internalType": "address",
          "name": "newOwner",
          "type": "address"
        }
      ],
      "name": "OwnershipTransferred",
      "type": "event"
    },
    {
      "inputs": [],
      "name": "addressProvider",
      "outputs": [
        {
          "internalType": "contract ILendingPoolAddressesProvider",
          "name": "",
          "type": "address"
        }
      ],
      "stateMutability": "view",
      "type": "function"
    },
    {
      "inputs": [],
      "name": "owner",
      "outputs": [
        {
          "internalType": "address",
          "name": "",
          "type": "address"
        }
      ],
      "stateMutability": "view",
      "type": "function"
    },
    {
      "inputs": [],
      "name": "renounceOwnership",
      "outputs": [],
      "stateMutability": "nonpayable",
      "type": "function"
    },
    {
      "inputs": [
        {
          "internalType": "address",
          "name": "wrappedToken",
          "type": "address"
        },
        {
          "internalType": "address",
          "name": "wrappedAToken",
          "type": "address"
        }
      ],
      "name": "setWrappedAToken",
      "outputs": [],
      "stateMutability": "nonpayable",
      "type": "function"
    },
    {
      "inputs": [
        {
          "internalType": "address",
          "name": "",
          "type": "address"
        }
      ],
      "name": "tokenToWrappedAToken",
      "outputs": [
        {
          "internalType": "address",
          "name": "",
          "type": "address"
        }
      ],
      "stateMutability": "view",
      "type": "function"
    },
    {
      "inputs": [
        {
          "internalType": "address",
          "name": "",
          "type": "address"
        },
        {
          "internalType": "address",
          "name": "from",
          "type": "address"
        },
        {
          "internalType": "address",
          "name": "",
          "type": "address"
        },
        {
          "internalType": "uint256",
          "name": "amount",
          "type": "uint256"
        },
        {
          "internalType": "bytes",
          "name": "userData",
          "type": "bytes"
        },
        {
          "internalType": "bytes",
          "name": "",
          "type": "bytes"
        }
      ],
      "name": "tokensReceived",
      "outputs": [],
      "stateMutability": "nonpayable",
      "type": "function"
    },
    {
      "inputs": [
        {
          "internalType": "address",
          "name": "newOwner",
          "type": "address"
        }
      ],
      "name": "transferOwnership",
      "outputs": [],
      "stateMutability": "nonpayable",
      "type": "function"
    },
    {
      "inputs": [],
      "name": "weth",
      "outputs": [
        {
          "internalType": "contract IWETH",
          "name": "",
          "type": "address"
        }
      ],
      "stateMutability": "view",
      "type": "function"
    },
    {
      "inputs": [
        {
          "internalType": "address",
          "name": "",
          "type": "address"
        }
      ],
      "name": "wrappedATokenToWrapper",
      "outputs": [
        {
          "internalType": "address",
          "name": "",
          "type": "address"
        }
      ],
      "stateMutability": "view",
      "type": "function"
    },
    {
      "stateMutability": "payable",
      "type": "receive"
    }
  ],
  "transactionHash": "0x5d03216b31afe3419fe862109e93499c0a03cfd8a1ccff104ee83ce460d5f258",
  "args": [
    "0xbF3f2372E6073FCf31d16212A471b36cDb8D6071",
    "0xd0a1e359811322d97991e03f863a0c30c2cf029c",
    "0x2E65c74c304703c7D6400A0084550eaB31f7E442"
  ],
  "solcInputHash": "d6f18ec82971b8a30427097261b55c28",
  "bytecode": "0x60c06040523480156200001157600080fd5b50604051620014c5380380620014c5833981810160405260608110156200003757600080fd5b508051602082015160409283015183516329965a1d60e01b815230600482018190527fb281fc8c12954d22544db45de3159a39272895b169a852b314f9cc762e44c53b602483015260448201529351929391929091731820a4b7618bde71dce8cdc73aab6c95905fad24916329965a1d9160648082019260009290919082900301818387803b158015620000ca57600080fd5b505af1158015620000df573d6000803e3d6000fd5b505050506000620000f56200015c60201b60201c565b600080546001600160a01b0319166001600160a01b038316908117825560405192935091600080516020620014a5833981519152908290a3506001600160601b0319606084811b821660805283901b1660a052620001538162000160565b5050506200025e565b3390565b6200016a6200015c565b6000546001600160a01b03908116911614620001cd576040805162461bcd60e51b815260206004820181905260248201527f4f776e61626c653a2063616c6c6572206973206e6f7420746865206f776e6572604482015290519081900360640190fd5b6001600160a01b038116620002145760405162461bcd60e51b81526004018080602001828103825260268152602001806200147f6026913960400191505060405180910390fd5b600080546040516001600160a01b0380851693921691600080516020620014a583398151915291a3600080546001600160a01b0319166001600160a01b0392909216919091179055565b60805160601c60a05160601c6111c7620002b8600039806099528060c0528061013752806105a3528061073d52806107675280610b1e5280610cf05280610d835280610e3e52508061057f528061096752506111c76000f3fe6080604052600436106100895760003560e01c8063715018a611610059578063715018a6146102d457806382d50fa0146102e95780638da5cb5b1461031c578063c6e17a7714610331578063f2fde38b1461036c5761015f565b806223de29146101645780630490f8bb1461025b5780632954018c146102aa5780633fc8cef3146102bf5761015f565b3661015f57336001600160a01b037f0000000000000000000000000000000000000000000000000000000000000000161461015d577f00000000000000000000000000000000000000000000000000000000000000006001600160a01b031663d0e30db0346040518263ffffffff1660e01b81526004016000604051808303818588803b15801561011957600080fd5b505af115801561012d573d6000803e3d6000fd5b505050505061015d7f0000000000000000000000000000000000000000000000000000000000000000343361039f565b005b600080fd5b34801561017057600080fd5b5061015d600480360360c081101561018757600080fd5b6001600160a01b03823581169260208101358216926040820135909216916060820135919081019060a0810160808201356401000000008111156101ca57600080fd5b8201836020820111156101dc57600080fd5b803590602001918460018302840111640100000000831117156101fe57600080fd5b91939092909160208101903564010000000081111561021c57600080fd5b82018360208201111561022e57600080fd5b8035906020019184600183028401116401000000008311171561025057600080fd5b50909250905061050d565b34801561026757600080fd5b5061028e6004803603602081101561027e57600080fd5b50356001600160a01b0316610562565b604080516001600160a01b039092168252519081900360200190f35b3480156102b657600080fd5b5061028e61057d565b3480156102cb57600080fd5b5061028e6105a1565b3480156102e057600080fd5b5061015d6105c5565b3480156102f557600080fd5b5061028e6004803603602081101561030c57600080fd5b50356001600160a01b0316610679565b34801561032857600080fd5b5061028e610694565b34801561033d57600080fd5b5061015d6004803603604081101561035457600080fd5b506001600160a01b03813581169160200135166106a3565b34801561037857600080fd5b5061015d6004803603602081101561038f57600080fd5b50356001600160a01b0316610859565b60006103a9610963565b6001600160a01b038086166000908152600260205260409020549192501680610407576040805162461bcd60e51b815260206004820152600b60248201526a155b9cdd5c1c1bdc9d195960aa1b604482015290519081900360640190fd5b6104128583866109ef565b6040805163e8eda9df60e01b81526001600160a01b038781166004830152602482018790528381166044830152602d606483015291519184169163e8eda9df9160848082019260009290919082900301818387803b15801561047357600080fd5b505af1158015610487573d6000803e3d6000fd5b50505050806001600160a01b0316638c28cbe8846040518263ffffffff1660e01b815260040180826001600160a01b03168152602001915050602060405180830381600087803b1580156104da57600080fd5b505af11580156104ee573d6000803e3d6000fd5b505050506040513d602081101561050457600080fd5b50505050505050565b61051633610afc565b61055833888787878080601f016020809104026020016040519081016040528093929190818152602001838380828437600092019190915250610aff92505050565b5050505050505050565b6002602052600090815260409020546001600160a01b031681565b7f000000000000000000000000000000000000000000000000000000000000000081565b7f000000000000000000000000000000000000000000000000000000000000000081565b6105cd610c5e565b6000546001600160a01b0390811691161461062f576040805162461bcd60e51b815260206004820181905260248201527f4f776e61626c653a2063616c6c6572206973206e6f7420746865206f776e6572604482015290519081900360640190fd5b600080546040516001600160a01b03909116907f8be0079c531659141344cd1fd0a4f28419497f9722a3daafe3b4186f6b6457e0908390a3600080546001600160a01b0319169055565b6001602052600090815260409020546001600160a01b031681565b6000546001600160a01b031690565b6106ab610c5e565b6000546001600160a01b0390811691161461070d576040805162461bcd60e51b815260206004820181905260248201527f4f776e61626c653a2063616c6c6572206973206e6f7420746865206f776e6572604482015290519081900360640190fd5b6001600160a01b03818116600090815260016020526040902080546001600160a01b0319168483169081179091557f000000000000000000000000000000000000000000000000000000000000000090911614156107b9577f00000000000000000000000000000000000000000000000000000000000000006001600160a01b03908116600090815260026020526040902080546001600160a01b031916918316919091179055610855565b8060026000846001600160a01b031663fc0c546a6040518163ffffffff1660e01b815260040160206040518083038186803b1580156107f757600080fd5b505afa15801561080b573d6000803e3d6000fd5b505050506040513d602081101561082157600080fd5b50516001600160a01b039081168252602082019290925260400160002080546001600160a01b031916929091169190911790555b5050565b610861610c5e565b6000546001600160a01b039081169116146108c3576040805162461bcd60e51b815260206004820181905260248201527f4f776e61626c653a2063616c6c6572206973206e6f7420746865206f776e6572604482015290519081900360640190fd5b6001600160a01b0381166109085760405162461bcd60e51b81526004018080602001828103825260268152602001806111496026913960400191505060405180910390fd5b600080546040516001600160a01b03808516939216917f8be0079c531659141344cd1fd0a4f28419497f9722a3daafe3b4186f6b6457e091a3600080546001600160a01b0319166001600160a01b0392909216919091179055565b60007f00000000000000000000000000000000000000000000000000000000000000006001600160a01b0316630261bf8b6040518163ffffffff1660e01b815260040160206040518083038186803b1580156109be57600080fd5b505afa1580156109d2573d6000803e3d6000fd5b505050506040513d60208110156109e857600080fd5b5051905090565b60408051636eb1769f60e11b81523060048201526001600160a01b0384811660248301529151839286169163dd62ed3e916044808301926020929190829003018186803b158015610a3f57600080fd5b505afa158015610a53573d6000803e3d6000fd5b505050506040513d6020811015610a6957600080fd5b50511015610af757826001600160a01b031663095ea7b3836000196040518363ffffffff1660e01b815260040180836001600160a01b0316815260200182815260200192505050602060405180830381600087803b158015610aca57600080fd5b505af1158015610ade573d6000803e3d6000fd5b505050506040513d6020811015610af457600080fd5b50505b505050565b50565b6001600160a01b038085166000908152600160205260409020548116907f000000000000000000000000000000000000000000000000000000000000000016811415610b5557610b50858585610c62565b610af4565b6001600160a01b03811615610b7057610b5085828686610ea8565b6000856001600160a01b031663fc0c546a6040518163ffffffff1660e01b815260040160206040518083038186803b158015610bab57600080fd5b505afa158015610bbf573d6000803e3d6000fd5b505050506040513d6020811015610bd557600080fd5b505160408051636f074d1f60e11b81526004810187905290519192506000916001600160a01b0389169163de0e9a3e91602480830192602092919082900301818787803b158015610c2557600080fd5b505af1158015610c39573d6000803e3d6000fd5b505050506040513d6020811015610c4f57600080fd5b5051905061050482828861039f565b3390565b6000836001600160a01b031663de0e9a3e836040518263ffffffff1660e01b815260040180828152602001915050602060405180830381600087803b158015610caa57600080fd5b505af1158015610cbe573d6000803e3d6000fd5b505050506040513d6020811015610cd457600080fd5b50519050610ce0610963565b6001600160a01b03166369328dec7f000000000000000000000000000000000000000000000000000000000000000083306040518463ffffffff1660e01b815260040180846001600160a01b03168152602001838152602001826001600160a01b031681526020019350505050600060405180830381600087803b158015610d6757600080fd5b505af1158015610d7b573d6000803e3d6000fd5b5050505060007f00000000000000000000000000000000000000000000000000000000000000006001600160a01b03166370a08231306040518263ffffffff1660e01b815260040180826001600160a01b0316815260200191505060206040518083038186803b158015610dee57600080fd5b505afa158015610e02573d6000803e3d6000fd5b505050506040513d6020811015610e1857600080fd5b505160408051632e1a7d4d60e01b81526004810183905290519192506001600160a01b037f00000000000000000000000000000000000000000000000000000000000000001691632e1a7d4d9160248082019260009290919082900301818387803b158015610e8657600080fd5b505af1158015610e9a573d6000803e3d6000fd5b50505050610af48482611055565b6000846001600160a01b031663de0e9a3e836040518263ffffffff1660e01b815260040180828152602001915050602060405180830381600087803b158015610ef057600080fd5b505af1158015610f04573d6000803e3d6000fd5b505050506040513d6020811015610f1a57600080fd5b50519050610f26610963565b6001600160a01b03166369328dec856001600160a01b031663fc0c546a6040518163ffffffff1660e01b815260040160206040518083038186803b158015610f6d57600080fd5b505afa158015610f81573d6000803e3d6000fd5b505050506040513d6020811015610f9757600080fd5b5051604080516001600160e01b031960e085901b1681526001600160a01b03928316600482015260248101869052918816604483015251606480830192600092919082900301818387803b158015610fee57600080fd5b505af1158015611002573d6000803e3d6000fd5b50505050836001600160a01b0316638c28cbe8846040518263ffffffff1660e01b815260040180826001600160a01b03168152602001915050602060405180830381600087803b1580156104da57600080fd5b604080516000808252602082019092526001600160a01b0384169083906040518082805190602001908083835b602083106110a15780518252601f199092019160209182019101611082565b6001836020036101000a03801982511681845116808217855250505050505090500191505060006040518083038185875af1925050503d8060008114611103576040519150601f19603f3d011682016040523d82523d6000602084013e611108565b606091505b5050905080610af75760405162461bcd60e51b815260040180806020018281038252602381526020018061116f6023913960400191505060405180910390fdfe4f776e61626c653a206e6577206f776e657220697320746865207a65726f20616464726573735472616e7366657248656c7065723a204554485f5452414e534645525f4641494c4544a264697066735822122009a099ab288e3590eb963ea2d07146167fcbd34583ca044abf6527863c0b99e564736f6c634300060c00334f776e61626c653a206e6577206f776e657220697320746865207a65726f20616464726573738be0079c531659141344cd1fd0a4f28419497f9722a3daafe3b4186f6b6457e0",
  "devdoc": {
    "kind": "dev",
    "methods": {
      "owner()": {
        "details": "Returns the address of the current owner."
      },
      "renounceOwnership()": {
        "details": "Leaves the contract without owner. It will not be possible to call `onlyOwner` functions anymore. Can only be called by the current owner. NOTE: Renouncing ownership will leave the contract without an owner, thereby removing any functionality that is only available to the owner."
      },
      "transferOwnership(address)": {
        "details": "Transfers ownership of the contract to a new account (`newOwner`). Can only be called by the current owner."
      }
    },
    "version": 1
  },
  "userdoc": {
    "kind": "user",
    "methods": {},
    "version": 1
  },
  "storageLayout": {
    "storage": [
      {
        "astId": 30,
        "contract": "contracts/protocols/aave/AaveAdapter.sol:AaveAdapter",
        "label": "_owner",
        "offset": 0,
        "slot": "0",
        "type": "t_address"
      },
      {
        "astId": 5770,
        "contract": "contracts/protocols/aave/AaveAdapter.sol:AaveAdapter",
        "label": "wrappedATokenToWrapper",
        "offset": 0,
        "slot": "1",
        "type": "t_mapping(t_address,t_address)"
      },
      {
        "astId": 5774,
        "contract": "contracts/protocols/aave/AaveAdapter.sol:AaveAdapter",
        "label": "tokenToWrappedAToken",
        "offset": 0,
        "slot": "2",
        "type": "t_mapping(t_address,t_address)"
      }
    ],
    "types": {
      "t_address": {
        "encoding": "inplace",
        "label": "address",
        "numberOfBytes": "20"
      },
      "t_mapping(t_address,t_address)": {
        "encoding": "mapping",
        "key": "t_address",
        "label": "mapping(address => address)",
        "numberOfBytes": "32",
        "value": "t_address"
      }
    }
  }
}