{
  "address": "0x301fce26DaEE8aC7Eb8Cdac969527f61Ad8848e1",
  "abi": [
    {
      "inputs": [
        {
          "internalType": "contract IAddressBook",
          "name": "_defaultFactory",
          "type": "address"
        }
      ],
      "stateMutability": "nonpayable",
      "type": "constructor"
    },
    {
      "anonymous": false,
      "inputs": [
        {
          "indexed": false,
          "internalType": "address",
          "name": "factory",
          "type": "address"
        }
      ],
      "name": "DefaultFactorySet",
      "type": "event"
    },
    {
      "anonymous": false,
      "inputs": [
        {
          "indexed": false,
          "internalType": "address",
          "name": "token",
          "type": "address"
        },
        {
          "indexed": false,
          "internalType": "address",
          "name": "wrapper",
          "type": "address"
        }
      ],
      "name": "EntrySet",
      "type": "event"
    },
    {
      "anonymous": false,
      "inputs": [
        {
          "indexed": true,
          "internalType": "address",
          "name": "previousOwner",
          "type": "address"
        },
        {
          "indexed": true,
          "internalType": "address",
          "name": "newOwner",
          "type": "address"
        }
      ],
      "name": "OwnershipTransferred",
      "type": "event"
    },
    {
      "inputs": [
        {
          "internalType": "address",
          "name": "token",
          "type": "address"
        }
      ],
      "name": "calculateWrapperAddress",
      "outputs": [
        {
          "internalType": "address",
          "name": "calculatedAddress",
          "type": "address"
        }
      ],
      "stateMutability": "view",
      "type": "function"
    },
    {
      "inputs": [],
      "name": "defaultFactory",
      "outputs": [
        {
          "internalType": "contract IAddressBook",
          "name": "",
          "type": "address"
        }
      ],
      "stateMutability": "view",
      "type": "function"
    },
    {
      "inputs": [
        {
          "internalType": "address",
          "name": "",
          "type": "address"
        }
      ],
      "name": "entries",
      "outputs": [
        {
          "internalType": "address",
          "name": "",
          "type": "address"
        }
      ],
      "stateMutability": "view",
      "type": "function"
    },
    {
      "inputs": [
        {
          "internalType": "address",
          "name": "token",
          "type": "address"
        }
      ],
      "name": "getWrapperAddress",
      "outputs": [
        {
          "internalType": "address",
          "name": "wrapperAddress",
          "type": "address"
        }
      ],
      "stateMutability": "nonpayable",
      "type": "function"
    },
    {
      "inputs": [],
      "name": "owner",
      "outputs": [
        {
          "internalType": "address",
          "name": "",
          "type": "address"
        }
      ],
      "stateMutability": "view",
      "type": "function"
    },
    {
      "inputs": [],
      "name": "renounceOwnership",
      "outputs": [],
      "stateMutability": "nonpayable",
      "type": "function"
    },
    {
      "inputs": [
        {
          "internalType": "address",
          "name": "newFactory",
          "type": "address"
        }
      ],
      "name": "setDefaultFactory",
      "outputs": [],
      "stateMutability": "nonpayable",
      "type": "function"
    },
    {
      "inputs": [
        {
          "internalType": "address",
          "name": "token",
          "type": "address"
        },
        {
          "internalType": "address",
          "name": "wrapper",
          "type": "address"
        }
      ],
      "name": "setEntry",
      "outputs": [],
      "stateMutability": "nonpayable",
      "type": "function"
    },
    {
      "inputs": [
        {
          "internalType": "address",
          "name": "newOwner",
          "type": "address"
        }
      ],
      "name": "transferOwnership",
      "outputs": [],
      "stateMutability": "nonpayable",
      "type": "function"
    }
  ],
  "transactionHash": "0x35ec0c331254022612a2202dc135c3396af088d86986a6c4b9a52c5f0a65676a",
  "args": [
    "0xD10C3a43D11Ac7c5665b8C4408BC340aE05F5bF8"
  ],
  "solcInputHash": "154b6895e0a4b76c9249b199b14f57cd",
  "bytecode": "0x608060405234801561001057600080fd5b506040516107e13803806107e18339818101604052602081101561003357600080fd5b5051600061003f6100e6565b600080546001600160a01b0319166001600160a01b0383169081178255604051929350917f8be0079c531659141344cd1fd0a4f28419497f9722a3daafe3b4186f6b6457e0908290a350600180546001600160a01b0319166001600160a01b03838116919091179182905560408051929091168252517f564e3133339fff8ec3cdefa6b896eca6f5c549699587e275b39a4d09f7c0851c916020908290030190a1506100ea565b3390565b6106e8806100f96000396000f3fe608060405234801561001057600080fd5b50600436106100935760003560e01c8063d4b6846d11610066578063d4b6846d14610112578063da58c2651461011a578063f08cc9f314610140578063f29ee1251461016e578063f2fde38b1461019457610093565b8063014c6ddf1461009857806363186e5f146100da578063715018a6146101025780638da5cb5b1461010a575b600080fd5b6100be600480360360208110156100ae57600080fd5b50356001600160a01b03166101ba565b604080516001600160a01b039092168252519081900360200190f35b610100600480360360208110156100f057600080fd5b50356001600160a01b031661027e565b005b61010061032a565b6100be6103cc565b6100be6103db565b6100be6004803603602081101561013057600080fd5b50356001600160a01b03166103ea565b6101006004803603604081101561015657600080fd5b506001600160a01b0381358116916020013516610490565b6100be6004803603602081101561018457600080fd5b50356001600160a01b0316610555565b610100600480360360208110156101aa57600080fd5b50356001600160a01b0316610570565b6001600160a01b03818116600090815260026020526040812054909116156101fd57506001600160a01b0380821660009081526002602052604090205416610279565b6001546040805163014c6ddf60e01b81526001600160a01b0385811660048301529151919092169163014c6ddf916024808301926020929190829003018186803b15801561024a57600080fd5b505afa15801561025e573d6000803e3d6000fd5b505050506040513d602081101561027457600080fd5b505190505b919050565b610286610668565b6000546001600160a01b039081169116146102d6576040805162461bcd60e51b81526020600482018190526024820152600080516020610693833981519152604482015290519081900360640190fd5b600180546001600160a01b0383166001600160a01b0319909116811790915560408051918252517f564e3133339fff8ec3cdefa6b896eca6f5c549699587e275b39a4d09f7c0851c9181900360200190a150565b610332610668565b6000546001600160a01b03908116911614610382576040805162461bcd60e51b81526020600482018190526024820152600080516020610693833981519152604482015290519081900360640190fd5b600080546040516001600160a01b03909116907f8be0079c531659141344cd1fd0a4f28419497f9722a3daafe3b4186f6b6457e0908390a3600080546001600160a01b0319169055565b6000546001600160a01b031690565b6001546001600160a01b031681565b6001600160a01b038181166000908152600260205260408120549091161561042d57506001600160a01b0380821660009081526002602052604090205416610279565b6001546040805163da58c26560e01b81526001600160a01b0385811660048301529151919092169163da58c2659160248083019260209291908290030181600087803b15801561047c57600080fd5b505af115801561025e573d6000803e3d6000fd5b610498610668565b6000546001600160a01b039081169116146104e8576040805162461bcd60e51b81526020600482018190526024820152600080516020610693833981519152604482015290519081900360640190fd5b6001600160a01b0382811660008181526002602090815260409182902080546001600160a01b0319169486169485179055815192835282019290925281517f7802a4fbc3083af41f7fadf3a42ea79b187752c7b2742f25ef5b218ac334ca28929181900390910190a15050565b6002602052600090815260409020546001600160a01b031681565b610578610668565b6000546001600160a01b039081169116146105c8576040805162461bcd60e51b81526020600482018190526024820152600080516020610693833981519152604482015290519081900360640190fd5b6001600160a01b03811661060d5760405162461bcd60e51b815260040180806020018281038252602681526020018061066d6026913960400191505060405180910390fd5b600080546040516001600160a01b03808516939216917f8be0079c531659141344cd1fd0a4f28419497f9722a3daafe3b4186f6b6457e091a3600080546001600160a01b0319166001600160a01b0392909216919091179055565b339056fe4f776e61626c653a206e6577206f776e657220697320746865207a65726f20616464726573734f776e61626c653a2063616c6c6572206973206e6f7420746865206f776e6572a2646970667358221220d632af35d7e7745c525afc922f23c14da3700377e09cddf5730c9c067fa0369264736f6c634300060c0033",
  "devdoc": {
    "kind": "dev",
    "methods": {
      "owner()": {
        "details": "Returns the address of the current owner."
      },
      "renounceOwnership()": {
        "details": "Leaves the contract without owner. It will not be possible to call `onlyOwner` functions anymore. Can only be called by the current owner. NOTE: Renouncing ownership will leave the contract without an owner, thereby removing any functionality that is only available to the owner."
      },
      "transferOwnership(address)": {
        "details": "Transfers ownership of the contract to a new account (`newOwner`). Can only be called by the current owner."
      }
    },
    "version": 1
  },
  "userdoc": {
    "kind": "user",
    "methods": {},
    "version": 1
  },
  "storageLayout": {
    "storage": [
      {
        "astId": 30,
        "contract": "contracts/tokens/AddressBook.sol:AddressBook",
        "label": "_owner",
        "offset": 0,
        "slot": "0",
        "type": "t_address"
      },
      {
        "astId": 18592,
        "contract": "contracts/tokens/AddressBook.sol:AddressBook",
        "label": "defaultFactory",
        "offset": 0,
        "slot": "1",
        "type": "t_contract(IAddressBook)20701"
      },
      {
        "astId": 18596,
        "contract": "contracts/tokens/AddressBook.sol:AddressBook",
        "label": "entries",
        "offset": 0,
        "slot": "2",
        "type": "t_mapping(t_address,t_address)"
      }
    ],
    "types": {
      "t_address": {
        "encoding": "inplace",
        "label": "address",
        "numberOfBytes": "20"
      },
      "t_contract(IAddressBook)20701": {
        "encoding": "inplace",
        "label": "contract IAddressBook",
        "numberOfBytes": "20"
      },
      "t_mapping(t_address,t_address)": {
        "encoding": "mapping",
        "key": "t_address",
        "label": "mapping(address => address)",
        "numberOfBytes": "32",
        "value": "t_address"
      }
    }
  }
}