{
  "address": "0x4BD509159Dd731808E5CfEa53849e1ff43bC3745",
  "abi": [
    {
      "inputs": [],
      "stateMutability": "nonpayable",
      "type": "constructor"
    },
    {
      "anonymous": false,
      "inputs": [
        {
          "indexed": false,
          "internalType": "address",
          "name": "input",
          "type": "address"
        },
        {
          "indexed": false,
          "internalType": "address",
          "name": "output",
          "type": "address"
        }
      ],
      "name": "MappingSet",
      "type": "event"
    },
    {
      "anonymous": false,
      "inputs": [
        {
          "indexed": true,
          "internalType": "address",
          "name": "previousOwner",
          "type": "address"
        },
        {
          "indexed": true,
          "internalType": "address",
          "name": "newOwner",
          "type": "address"
        }
      ],
      "name": "OwnershipTransferred",
      "type": "event"
    },
    {
      "inputs": [],
      "name": "owner",
      "outputs": [
        {
          "internalType": "address",
          "name": "",
          "type": "address"
        }
      ],
      "stateMutability": "view",
      "type": "function"
    },
    {
      "inputs": [],
      "name": "renounceOwnership",
      "outputs": [],
      "stateMutability": "nonpayable",
      "type": "function"
    },
    {
      "inputs": [
        {
          "internalType": "address",
          "name": "wrappedToken",
          "type": "address"
        },
        {
          "internalType": "address",
          "name": "wrappedAToken",
          "type": "address"
        }
      ],
      "name": "setWrappedCToken",
      "outputs": [],
      "stateMutability": "nonpayable",
      "type": "function"
    },
    {
      "inputs": [
        {
          "internalType": "address",
          "name": "",
          "type": "address"
        }
      ],
      "name": "tokenToWrappedCToken",
      "outputs": [
        {
          "internalType": "address",
          "name": "",
          "type": "address"
        }
      ],
      "stateMutability": "view",
      "type": "function"
    },
    {
      "inputs": [
        {
          "internalType": "address",
          "name": "",
          "type": "address"
        },
        {
          "internalType": "address",
          "name": "from",
          "type": "address"
        },
        {
          "internalType": "address",
          "name": "",
          "type": "address"
        },
        {
          "internalType": "uint256",
          "name": "amount",
          "type": "uint256"
        },
        {
          "internalType": "bytes",
          "name": "userData",
          "type": "bytes"
        },
        {
          "internalType": "bytes",
          "name": "",
          "type": "bytes"
        }
      ],
      "name": "tokensReceived",
      "outputs": [],
      "stateMutability": "nonpayable",
      "type": "function"
    },
    {
      "inputs": [
        {
          "internalType": "address",
          "name": "newOwner",
          "type": "address"
        }
      ],
      "name": "transferOwnership",
      "outputs": [],
      "stateMutability": "nonpayable",
      "type": "function"
    },
    {
      "inputs": [
        {
          "internalType": "address",
          "name": "",
          "type": "address"
        }
      ],
      "name": "wrappedCTokenToWrapper",
      "outputs": [
        {
          "internalType": "address",
          "name": "",
          "type": "address"
        }
      ],
      "stateMutability": "view",
      "type": "function"
    },
    {
      "stateMutability": "payable",
      "type": "receive"
    }
  ],
  "transactionHash": "0xb2dd9ca157d78aed3a2e164437ffc4662cb728ce628d07f24cbd2797d23bfec1",
  "args": [],
  "solcInputHash": "4e744d077c5e62f1ac74b6f4c73f18d4",
  "bytecode": "0x608060405260016003553480156200001657600080fd5b50604080516329965a1d60e01b815230600482018190527fb281fc8c12954d22544db45de3159a39272895b169a852b314f9cc762e44c53b602483015260448201529051731820a4b7618bde71dce8cdc73aab6c95905fad24916329965a1d91606480830192600092919082900301818387803b1580156200009757600080fd5b505af1158015620000ac573d6000803e3d6000fd5b505050506000620000c2620002c560201b60201c565b600080546001600160a01b0319166001600160a01b03831690811782556040519293509160008051602062001652833981519152908290a350604080513260248083019190915282518083039091018152604490910182526020810180516001600160e01b0316630f41a04d60e11b17815291518151919260009273084b1c3c81545d370f3634392de611caabff814892859290918291908083835b602083106200017f5780518252601f1990920191602091820191016200015e565b6001836020036101000a0380198251168184511680821785525050505050509050019150506000604051808303816000865af19150503d8060008114620001e3576040519150601f19603f3d011682016040523d82523d6000602084013e620001e8565b606091505b5050905080620002b157736f628b68b30dc3c17f345c9dbbb1e483c2b7ae5c6001600160a01b0316826040518082805190602001908083835b60208310620002425780518252601f19909201916020918201910162000221565b6001836020036101000a0380198251168184511680821785525050505050509050019150506000604051808303816000865af19150503d8060008114620002a6576040519150601f19603f3d011682016040523d82523d6000602084013e620002ab565b606091505b50909150505b50620002bf905032620002c9565b620003c7565b3390565b620002d3620002c5565b6000546001600160a01b0390811691161462000336576040805162461bcd60e51b815260206004820181905260248201527f4f776e61626c653a2063616c6c6572206973206e6f7420746865206f776e6572604482015290519081900360640190fd5b6001600160a01b0381166200037d5760405162461bcd60e51b81526004018080602001828103825260268152602001806200162c6026913960400191505060405180910390fd5b600080546040516001600160a01b03808516939216916000805160206200165283398151915291a3600080546001600160a01b0319166001600160a01b0392909216919091179055565b61125580620003d76000396000f3fe6080604052600436106100735760003560e01c8063715018a61161004e578063715018a6146104c25780638da5cb5b146104d7578063ac8528cb146104ec578063f2fde38b1461051f5761033c565b806223de29146103415780631693dda11461043857806352bfdd27146104735761033c565b3661033c576003546100845761033a565b600160005260026020527fe90b7bceb6e7df5418fb78d8ee546e97c83a08bbccc01a0644d599ccd2a7c2e0546001600160a01b0316806100f9576040805162461bcd60e51b815260206004820152600b60248201526a155b9cdd5c1c1bdc9d195960aa1b604482015290519081900360640190fd5b6000816001600160a01b031663fc0c546a6040518163ffffffff1660e01b815260040160206040518083038186803b15801561013457600080fd5b505afa158015610148573d6000803e3d6000fd5b505050506040513d602081101561015e57600080fd5b505160408051631249c58b60e01b815290519192506001600160a01b03831691631249c58b913491600480830192600092919082900301818588803b1580156101a657600080fd5b505af11580156101ba573d6000803e3d6000fd5b5050505050806001600160a01b031663a9059cbb83836001600160a01b03166370a08231306040518263ffffffff1660e01b815260040180826001600160a01b0316815260200191505060206040518083038186803b15801561021c57600080fd5b505afa158015610230573d6000803e3d6000fd5b505050506040513d602081101561024657600080fd5b5051604080516001600160e01b031960e086901b1681526001600160a01b03909316600484015260248301919091525160448083019260209291908290030181600087803b15801561029757600080fd5b505af11580156102ab573d6000803e3d6000fd5b505050506040513d60208110156102c157600080fd5b505060408051631185197d60e31b815233600482015290516001600160a01b03841691638c28cbe89160248083019260209291908290030181600087803b15801561030b57600080fd5b505af115801561031f573d6000803e3d6000fd5b505050506040513d602081101561033557600080fd5b505050505b005b600080fd5b34801561034d57600080fd5b5061033a600480360360c081101561036457600080fd5b6001600160a01b03823581169260208101358216926040820135909216916060820135919081019060a0810160808201356401000000008111156103a757600080fd5b8201836020820111156103b957600080fd5b803590602001918460018302840111640100000000831117156103db57600080fd5b9193909290916020810190356401000000008111156103f957600080fd5b82018360208201111561040b57600080fd5b8035906020019184600183028401116401000000008311171561042d57600080fd5b509092509050610552565b34801561044457600080fd5b5061033a6004803603604081101561045b57600080fd5b506001600160a01b03813581169160200135166105a7565b34801561047f57600080fd5b506104a66004803603602081101561049657600080fd5b50356001600160a01b0316610775565b604080516001600160a01b039092168252519081900360200190f35b3480156104ce57600080fd5b5061033a610790565b3480156104e357600080fd5b506104a6610844565b3480156104f857600080fd5b506104a66004803603602081101561050f57600080fd5b50356001600160a01b0316610853565b34801561052b57600080fd5b5061033a6004803603602081101561054257600080fd5b50356001600160a01b031661086e565b61055b33610978565b61059d33888787878080601f01602080910402602001604051908101604052809392919081815260200183838082843760009201919091525061097b92505050565b5050505050505050565b6105af610ac8565b6000546001600160a01b03908116911614610611576040805162461bcd60e51b815260206004820181905260248201527f4f776e61626c653a2063616c6c6572206973206e6f7420746865206f776e6572604482015290519081900360640190fd5b6001600160a01b03818116600090815260016020819052604090912080546001600160a01b0319169285169283179055141561069057600160005260026020527fe90b7bceb6e7df5418fb78d8ee546e97c83a08bbccc01a0644d599ccd2a7c2e080546001600160a01b0319166001600160a01b03831617905561072c565b8060026000846001600160a01b031663fc0c546a6040518163ffffffff1660e01b815260040160206040518083038186803b1580156106ce57600080fd5b505afa1580156106e2573d6000803e3d6000fd5b505050506040513d60208110156106f857600080fd5b50516001600160a01b039081168252602082019290925260400160002080546001600160a01b031916929091169190911790555b604080516001600160a01b0380851682528316602082015281517f08634b9514f56e887504e263cf1e0f6c8cc749e7b7361372cf460823a777fb3e929181900390910190a15050565b6001602052600090815260409020546001600160a01b031681565b610798610ac8565b6000546001600160a01b039081169116146107fa576040805162461bcd60e51b815260206004820181905260248201527f4f776e61626c653a2063616c6c6572206973206e6f7420746865206f776e6572604482015290519081900360640190fd5b600080546040516001600160a01b03909116907f8be0079c531659141344cd1fd0a4f28419497f9722a3daafe3b4186f6b6457e0908390a3600080546001600160a01b0319169055565b6000546001600160a01b031690565b6002602052600090815260409020546001600160a01b031681565b610876610ac8565b6000546001600160a01b039081169116146108d8576040805162461bcd60e51b815260206004820181905260248201527f4f776e61626c653a2063616c6c6572206973206e6f7420746865206f776e6572604482015290519081900360640190fd5b6001600160a01b03811661091d5760405162461bcd60e51b81526004018080602001828103825260268152602001806111d76026913960400191505060405180910390fd5b600080546040516001600160a01b03808516939216917f8be0079c531659141344cd1fd0a4f28419497f9722a3daafe3b4186f6b6457e091a3600080546001600160a01b0319166001600160a01b0392909216919091179055565b50565b6001600160a01b038085166000818152600160209081526040808320548151637e062a3560e11b8152915195169492939263fc0c546a92600480840193919291829003018186803b1580156109cf57600080fd5b505afa1580156109e3573d6000803e3d6000fd5b505050506040513d60208110156109f957600080fd5b505160408051636f074d1f60e11b81526004810187905290519192506000916001600160a01b0389169163de0e9a3e91602480830192602092919082900301818787803b158015610a4957600080fd5b505af1158015610a5d573d6000803e3d6000fd5b505050506040513d6020811015610a7357600080fd5b505190506001600160a01b03831660011415610a9957610a94828288610acc565b610abf565b6001600160a01b03831615610ab457610a9482848884610b60565b610abf828288610db7565b50505050505050565b3390565b60008390506000600381905550806001600160a01b031663db006a75846040518263ffffffff1660e01b815260040180828152602001915050602060405180830381600087803b158015610b1f57600080fd5b505af1158015610b33573d6000803e3d6000fd5b505050506040513d6020811015610b4957600080fd5b50506001600355610b5a82476110de565b50505050565b6000849050806001600160a01b031663db006a75836040518263ffffffff1660e01b815260040180828152602001915050602060405180830381600087803b158015610bab57600080fd5b505af1158015610bbf573d6000803e3d6000fd5b505050506040513d6020811015610bd557600080fd5b505060408051636f307dc360e01b815290516000916001600160a01b03841691636f307dc391600480820192602092909190829003018186803b158015610c1b57600080fd5b505afa158015610c2f573d6000803e3d6000fd5b505050506040513d6020811015610c4557600080fd5b5051604080516370a0823160e01b815230600482015290519192506001600160a01b0383169163a9059cbb91889184916370a08231916024808301926020929190829003018186803b158015610c9a57600080fd5b505afa158015610cae573d6000803e3d6000fd5b505050506040513d6020811015610cc457600080fd5b5051604080516001600160e01b031960e086901b1681526001600160a01b03909316600484015260248301919091525160448083019260209291908290030181600087803b158015610d1557600080fd5b505af1158015610d29573d6000803e3d6000fd5b505050506040513d6020811015610d3f57600080fd5b505060408051631185197d60e31b81526001600160a01b038681166004830152915191871691638c28cbe8916024808201926020929091908290030181600087803b158015610d8d57600080fd5b505af1158015610da1573d6000803e3d6000fd5b505050506040513d602081101561059d57600080fd5b6001600160a01b038084166000908152600260205260409020541680610e12576040805162461bcd60e51b815260206004820152600b60248201526a155b9cdd5c1c1bdc9d195960aa1b604482015290519081900360640190fd5b6000816001600160a01b031663fc0c546a6040518163ffffffff1660e01b815260040160206040518083038186803b158015610e4d57600080fd5b505afa158015610e61573d6000803e3d6000fd5b505050506040513d6020811015610e7757600080fd5b50516040805163095ea7b360e01b81526001600160a01b0380841660048301526024820188905291519293509087169163095ea7b3916044808201926020929091908290030181600087803b158015610ecf57600080fd5b505af1158015610ee3573d6000803e3d6000fd5b505050506040513d6020811015610ef957600080fd5b50506040805163140e25ad60e31b81526004810186905290516001600160a01b0383169163a0712d689160248083019260209291908290030181600087803b158015610f4457600080fd5b505af1158015610f58573d6000803e3d6000fd5b505050506040513d6020811015610f6e57600080fd5b5050604080516370a0823160e01b815230600482015290516001600160a01b0383169163a9059cbb91859184916370a0823191602480820192602092909190829003018186803b158015610fc157600080fd5b505afa158015610fd5573d6000803e3d6000fd5b505050506040513d6020811015610feb57600080fd5b5051604080516001600160e01b031960e086901b1681526001600160a01b03909316600484015260248301919091525160448083019260209291908290030181600087803b15801561103c57600080fd5b505af1158015611050573d6000803e3d6000fd5b505050506040513d602081101561106657600080fd5b505060408051631185197d60e31b81526001600160a01b038581166004830152915191841691638c28cbe8916024808201926020929091908290030181600087803b1580156110b457600080fd5b505af11580156110c8573d6000803e3d6000fd5b505050506040513d6020811015610abf57600080fd5b604080516000808252602082019092526001600160a01b0384169083906040518082805190602001908083835b6020831061112a5780518252601f19909201916020918201910161110b565b6001836020036101000a03801982511681845116808217855250505050505090500191505060006040518083038185875af1925050503d806000811461118c576040519150601f19603f3d011682016040523d82523d6000602084013e611191565b606091505b50509050806111d15760405162461bcd60e51b81526004018080602001828103825260238152602001806111fd6023913960400191505060405180910390fd5b50505056fe4f776e61626c653a206e6577206f776e657220697320746865207a65726f20616464726573735472616e7366657248656c7065723a204554485f5452414e534645525f4641494c4544a26469706673582212205bfe1ec43e8d1a4ca24b21a857bb9c37aa22ffdfe9cf7946468888dc0e96b9a464736f6c634300060c00334f776e61626c653a206e6577206f776e657220697320746865207a65726f20616464726573738be0079c531659141344cd1fd0a4f28419497f9722a3daafe3b4186f6b6457e0",
  "devdoc": {
    "kind": "dev",
    "methods": {
      "owner()": {
        "details": "Returns the address of the current owner."
      },
      "renounceOwnership()": {
        "details": "Leaves the contract without owner. It will not be possible to call `onlyOwner` functions anymore. Can only be called by the current owner. NOTE: Renouncing ownership will leave the contract without an owner, thereby removing any functionality that is only available to the owner."
      },
      "transferOwnership(address)": {
        "details": "Transfers ownership of the contract to a new account (`newOwner`). Can only be called by the current owner."
      }
    },
    "version": 1
  },
  "userdoc": {
    "kind": "user",
    "methods": {},
    "version": 1
  },
  "storageLayout": {
    "storage": [
      {
        "astId": 30,
        "contract": "contracts/protocols/compound/CompoundAdapter.sol:CompoundAdapter",
        "label": "_owner",
        "offset": 0,
        "slot": "0",
        "type": "t_address"
      },
      {
        "astId": 8519,
        "contract": "contracts/protocols/compound/CompoundAdapter.sol:CompoundAdapter",
        "label": "wrappedCTokenToWrapper",
        "offset": 0,
        "slot": "1",
        "type": "t_mapping(t_address,t_address)"
      },
      {
        "astId": 8523,
        "contract": "contracts/protocols/compound/CompoundAdapter.sol:CompoundAdapter",
        "label": "tokenToWrappedCToken",
        "offset": 0,
        "slot": "2",
        "type": "t_mapping(t_address,t_address)"
      },
      {
        "astId": 8532,
        "contract": "contracts/protocols/compound/CompoundAdapter.sol:CompoundAdapter",
        "label": "unwrapping",
        "offset": 0,
        "slot": "3",
        "type": "t_uint256"
      }
    ],
    "types": {
      "t_address": {
        "encoding": "inplace",
        "label": "address",
        "numberOfBytes": "20"
      },
      "t_mapping(t_address,t_address)": {
        "encoding": "mapping",
        "key": "t_address",
        "label": "mapping(address => address)",
        "numberOfBytes": "32",
        "value": "t_address"
      },
      "t_uint256": {
        "encoding": "inplace",
        "label": "uint256",
        "numberOfBytes": "32"
      }
    }
  }
}