{
  "address": "0xE6F3D8Aa1E28220087393aB0f303F25315e771C5",
  "abi": [
    {
      "inputs": [
        {
          "internalType": "address",
          "name": "__adapterFactory",
          "type": "address"
        }
      ],
      "stateMutability": "nonpayable",
      "type": "constructor"
    },
    {
      "anonymous": false,
      "inputs": [
        {
          "indexed": true,
          "internalType": "address",
          "name": "token",
          "type": "address"
        },
        {
          "indexed": false,
          "internalType": "address",
          "name": "wrapper",
          "type": "address"
        }
      ],
      "name": "WrapperCreated",
      "type": "event"
    },
    {
      "inputs": [],
      "name": "WRAPPER_BYTECODE_HASH",
      "outputs": [
        {
          "internalType": "bytes32",
          "name": "",
          "type": "bytes32"
        }
      ],
      "stateMutability": "view",
      "type": "function"
    },
    {
      "inputs": [
        {
          "internalType": "address",
          "name": "token",
          "type": "address"
        },
        {
          "internalType": "address[]",
          "name": "rewards",
          "type": "address[]"
        }
      ],
      "name": "calculateWrapperAddress",
      "outputs": [
        {
          "internalType": "address",
          "name": "calculatedAddress",
          "type": "address"
        }
      ],
      "stateMutability": "view",
      "type": "function"
    },
    {
      "inputs": [
        {
          "internalType": "address",
          "name": "token",
          "type": "address"
        },
        {
          "internalType": "address[]",
          "name": "rewards",
          "type": "address[]"
        }
      ],
      "name": "createWrapper",
      "outputs": [],
      "stateMutability": "nonpayable",
      "type": "function"
    },
    {
      "inputs": [
        {
          "internalType": "address",
          "name": "token",
          "type": "address"
        },
        {
          "internalType": "address[]",
          "name": "rewards",
          "type": "address[]"
        }
      ],
      "name": "getWrapperAddress",
      "outputs": [
        {
          "internalType": "address",
          "name": "wrapperAddress",
          "type": "address"
        }
      ],
      "stateMutability": "nonpayable",
      "type": "function"
    },
    {
      "inputs": [],
      "name": "nextToken",
      "outputs": [
        {
          "internalType": "address",
          "name": "",
          "type": "address"
        }
      ],
      "stateMutability": "view",
      "type": "function"
    },
    {
      "inputs": [],
      "name": "yieldAdapterFactoryAndRewards",
      "outputs": [
        {
          "internalType": "address",
          "name": "",
          "type": "address"
        },
        {
          "internalType": "address[]",
          "name": "",
          "type": "address[]"
        }
      ],
      "stateMutability": "view",
      "type": "function"
    }
  ],
  "transactionHash": "0xde572e195926ab373dd161eb62cefeb37b76964abf180b203b233f522fa4a912",
  "args": [
    "0x8EC19A3d9f8F41b79efc6824be786F9e6E8CE7d6"
  ],
  "solcInputHash": "17ab2317f1c05b7fec7c306769bb6179",
  "bytecode": "0x60a060405234801561001057600080fd5b50604051615ac6380380615ac68339818101604052602081101561003357600080fd5b5051606081901b6001600160601b0319166080526001600160a01b0316615a5f610067600039806103d95250615a5f6000f3fe60806040523480156200001157600080fd5b50600436106200006a5760003560e01c80631d101777146200006f578063287878f1146200008b5780632c05e45814620001605780638491830114620001d05780639499ac541462000289578063b3e32ad71462000293575b600080fd5b620000796200034e565b60408051918252519081900360200190f35b6200014460048036036040811015620000a357600080fd5b6001600160a01b038235169190810190604081016020820135640100000000811115620000cf57600080fd5b820183602082011115620000e257600080fd5b803590602001918460208302840111640100000000831117156200010557600080fd5b9190808060200260200160405190810160405280939291908181526020018383602002808284376000920191909152509295506200037d945050505050565b604080516001600160a01b039092168252519081900360200190f35b6200016a620003d3565b60405180836001600160a01b0316815260200180602001828103825283818151815260200191508051906020019060200280838360005b83811015620001bb578181015183820152602001620001a1565b50505050905001935050505060405180910390f35b6200014460048036036040811015620001e857600080fd5b6001600160a01b0382351691908101906040810160208201356401000000008111156200021457600080fd5b8201836020820111156200022757600080fd5b803590602001918460208302840111640100000000831117156200024a57600080fd5b91908080602002602001604051908101604052809392919081815260200183836020028082843760009201919091525092955062000460945050505050565b6200014462000558565b6200034c60048036036040811015620002ab57600080fd5b6001600160a01b038235169190810190604081016020820135640100000000811115620002d757600080fd5b820183602082011115620002ea57600080fd5b803590602001918460208302840111640100000000831117156200030d57600080fd5b91908080602002602001604051908101604052809392919081815260200183836020028082843760009201919091525092955062000567945050505050565b005b6040516200035f60208201620006b1565b6020820181038252601f19601f820116604052508051906020012081565b60006200038b838362000460565b9050620003a1816001600160a01b0316620006ab565b620003cd57620003b2838362000567565b620003c6816001600160a01b0316620006ab565b620003cd57fe5b92915050565b600060607f00000000000000000000000000000000000000000000000000000000000000006001808054806020026020016040519081016040528092919081815260200182805480156200045157602002820191906000526020600020905b81546001600160a01b0316815260019091019060200180831162000432575b50505050509050915091509091565b600060ff60f81b30848460405160200180836001600160a01b031660601b8152601401828051906020019060200280838360005b83811015620004ae57818101518382015260200162000494565b50505050905001925050506040516020818303038152906040528051906020012060405180602001620004e190620006b1565b6020820181038252601f19601f820116604052508051906020012060405160200180856001600160f81b0319168152600101846001600160a01b031660601b81526014018381526020018281526020019450505050506040516020818303038152906040528051906020012060001c905092915050565b6000546001600160a01b031690565b600080546001600160a01b0319166001600160a01b038416179055805162000597906001906020840190620006bf565b506000828260405160200180836001600160a01b031660601b8152601401828051906020019060200280838360005b83811015620005e0578181015183820152602001620005c6565b5050505090500192505050604051602081830303815290604052805190602001206040516200060f90620006b1565b8190604051809103906000f590508015801562000630573d6000803e3d6000fd5b50600080546001600160a01b03191681556040805191825260208201908190529051919250620006649160019190620006bf565b50604080516001600160a01b0383811682529151918516917feca658fb45a042c9a15f37be8099dbc152e104331b942dc253680509f9727d079181900360200190a2505050565b3b151590565b6152df806200074b83390190565b82805482825590600052602060002090810192821562000717579160200282015b828111156200071757825182546001600160a01b0319166001600160a01b03909116178255602090920191600190910190620006e0565b506200072592915062000729565b5090565b5b80821115620007255780546001600160a01b03191681556001016200072a56fe60e06040523480156200001157600080fd5b50604080516329965a1d60e01b815230600482018190527fac7fbab5f54a3ca8194167523c6753bfeb96a445279294b6125b68cce2177054602483015260448201529051600080516020620052bf833981519152916329965a1d91606480830192600092919082900301818387803b1580156200008d57600080fd5b505af1158015620000a2573d6000803e3d6000fd5b5050604080516329965a1d60e01b815230600482018190527faea199e31a596269b42cdafd93407f14436db6e4cad65417994c2eb37381e05a602483015260448201529051600080516020620052bf83398151915293506329965a1d9250606480830192600092919082900301818387803b1580156200012157600080fd5b505af115801562000136573d6000803e3d6000fd5b5050604080516329965a1d60e01b815230600482018190527fb281fc8c12954d22544db45de3159a39272895b169a852b314f9cc762e44c53b602483015260448201529051600080516020620052bf83398151915293506329965a1d9250606480830192600092919082900301818387803b158015620001b557600080fd5b505af1158015620001ca573d6000803e3d6000fd5b505050506000336001600160a01b0316639499ac546040518163ffffffff1660e01b815260040160206040518083038186803b1580156200020a57600080fd5b505afa1580156200021f573d6000803e3d6000fd5b505050506040513d60208110156200023657600080fd5b5051606081901b6001600160601b031916608052905062000263816200096b602090811b62001f6317901c565b6040516020018082805190602001908083835b60208310620002975780518252601f19909201916020918201910162000276565b51815160209384036101000a6000190180199092169116179052632d37373760e01b9190930190815260408051808303601b19018152600490920190528051620002eb955060039450920191905062000f38565b506200030281620009aa60201b62001f941760201c565b6040516020018082805190602001908083835b60208310620003365780518252601f19909201916020918201910162000315565b51815160209384036101000a60001901801990921691161790526237373760e81b9190930190815260408051808303601c1901815260039092019052805162000389955060049450920191905062000f38565b50620003ff816001600160a01b031663313ce5676040518163ffffffff1660e01b815260040160206040518083038186803b158015620003c857600080fd5b505afa158015620003dd573d6000803e3d6000fd5b505050506040513d6020811015620003f457600080fd5b505160ff16620009d8565b604080516329965a1d60e01b815230600482018190527f25d236b07c82ae6ff3fc3a505a958b70ece0b81ba97eb926f710865e5b69a2cd602483015260448201529051600080516020620052bf833981519152916329965a1d91606480830192600092919082900301818387803b1580156200047a57600080fd5b505af11580156200048f573d6000803e3d6000fd5b505050507f8b73c3c69bb8fe3d512ecc4cf759cc79239f7b179b0ffacaa9a75d522b39400f60036040518082805460018160011615610100020316600290048015620005155780601f10620004f257610100808354040283529182019162000515565b820191906000526020600020905b81548152906001019060200180831162000500575b50506040805191829003822082820190915260018252603160f81b60209092019190915291507fc89efdaa54c0f20c7adf612882df0950f5a951637e0307cdcb4c672f298b8bc6905062000568620009dd565b3060405160200180868152602001858152602001848152602001838152602001826001600160a01b03168152602001955050505050506040516020818303038152906040528051906020012060a081815250505060006060336001600160a01b0316632c05e4586040518163ffffffff1660e01b815260040160006040518083038186803b158015620005fa57600080fd5b505afa1580156200060f573d6000803e3d6000fd5b505050506040513d6000823e601f3d908101601f1916820160409081528110156200063957600080fd5b8151602083018051604051929492938301929190846401000000008211156200066157600080fd5b9083019060208201858111156200067757600080fd5b82518660208202830111640100000000821117156200069557600080fd5b82525081516020918201928201910280838360005b83811015620006c4578181015183820152602001620006aa565b505050509190910160405250505050606082811b6001600160601b03191660c052815192945090925083916001600160401b03811180156200070557600080fd5b5060405190808252806020026020018201604052801562000730578160200160208202803683370190505b50905060005b83518160ff161015620008a0576000848260ff16815181106200075557fe5b602002602001015190506000816001600160a01b031663fc0c546a6040518163ffffffff1660e01b815260040160206040518083038186803b1580156200079b57600080fd5b505afa158015620007b0573d6000803e3d6000fd5b505050506040513d6020811015620007c757600080fd5b505184519091508190859060ff8616908110620007e057fe5b60200260200101906001600160a01b031690816001600160a01b031681525050846001600160a01b031663db426e2d30888660ff16815181106200082057fe5b60200260200101516040518363ffffffff1660e01b815260040180836001600160a01b03168152602001826001600160a01b0316815260200192505050600060405180830381600087803b1580156200087857600080fd5b505af11580156200088d573d6000803e3d6000fd5b5050600190940193506200073692505050565b508051620008b690600990602084019062000fbd565b508251620008cc90600a90602086019062000fbd565b50604080516329965a1d60e01b815230600482018190527f71a86b72b6364f469fa6d4a1d52d0b4bac87d31788cc6601258e8eb3f51dc953602483015260448201529051600080516020620052bf833981519152916329965a1d91606480830192600092919082900301818387803b1580156200094857600080fd5b505af11580156200095d573d6000803e3d6000fd5b50505050505050506200105b565b60608062000981836306fdde0360e01b620009e1565b9050805160001415620009a257620009998362000c21565b915050620009a5565b90505b919050565b606080620009c0836395d89b4160e01b620009e1565b9050805160001415620009a257620009998362000c3b565b600055565b4690565b60408051600481526024810182526020810180516001600160e01b03166001600160e01b031985161781529151815160609360009385936001600160a01b03891693919290918291908083835b6020831062000a4f5780518252601f19909201916020918201910162000a2e565b6001836020036101000a038019825116818451168082178552505050505050905001915050600060405180830381855afa9150503d806000811462000ab1576040519150601f19603f3d011682016040523d82523d6000602084013e62000ab6565b606091505b509150915081158062000ac857508051155b1562000ae857604051806020016040528060008152509250505062000c1b565b80516020141562000b2557600081806020019051602081101562000b0b57600080fd5b5051905062000b1a8162000c55565b935050505062000c1b565b60408151111562000c065780806020019051602081101562000b4657600080fd5b810190808051604051939291908464010000000082111562000b6757600080fd5b90830190602082018581111562000b7d57600080fd5b825164010000000081118282018810171562000b9857600080fd5b82525081516020918201929091019080838360005b8381101562000bc757818101518382015260200162000bad565b50505050905090810190601f16801562000bf55780820380516001836020036101000a031916815260200191505b506040525050509250505062000c1b565b60405180602001604052806000815250925050505b92915050565b6060620009a282602862000d9e60201b62001fbd1760201c565b6060620009a282600662000d9e60201b62001fbd1760201c565b6040805160208082528183019092526060918291906020820181803683370190505090506000805b602081101562000cfb57600085826020811062000c9657fe5b1a60f81b90507fff0000000000000000000000000000000000000000000000000000000000000081161562000cf1578084848151811062000cd357fe5b60200101906001600160f81b031916908160001a9053506001909201915b5060010162000c7d565b506060816001600160401b038111801562000d1557600080fd5b506040519080825280601f01601f19166020018201604052801562000d41576020820181803683370190505b50905060005b8281101562000d955783818151811062000d5d57fe5b602001015160f81c60f81b82828151811062000d7557fe5b60200101906001600160f81b031916908160001a90535060010162000d47565b50949350505050565b60606002820615801562000db25750600082115b801562000dc0575060288211155b62000e12576040805162461bcd60e51b815260206004820152601e60248201527f41646472657373537472696e675574696c3a20494e56414c49445f4c454e0000604482015290519081900360640190fd5b6060826001600160401b038111801562000e2b57600080fd5b506040519080825280601f01601f19166020018201604052801562000e57576020820181803683370190505b5090506001600160a01b03841660005b6002850481101562000f0357600860138290030282901c600f600482901c1660f08216820362000e978262000f0d565b86856002028151811062000ea757fe5b60200101906001600160f81b031916908160001a90535062000ec98162000f0d565b86856002026001018151811062000edc57fe5b60200101906001600160f81b031916908160001a905350506001909201915062000e679050565b5090949350505050565b6000600a8260ff16101562000f2a57506030810160f81b620009a5565b506037810160f81b620009a5565b828054600181600116156101000203166002900490600052602060002090601f016020900481019282601f1062000f7b57805160ff191683800117855562000fab565b8280016001018555821562000fab579182015b8281111562000fab57825182559160200191906001019062000f8e565b5062000fb992915062001023565b5090565b82805482825590600052602060002090810192821562001015579160200282015b828111156200101557825182546001600160a01b0319166001600160a01b0390911617825560209092019160019091019062000fde565b5062000fb99291506200103a565b5b8082111562000fb9576000815560010162001024565b5b8082111562000fb95780546001600160a01b03191681556001016200103b565b60805160601c60a05160c05160601c6141f0620010cf6000398061100b528061118d5250806112fb5280611bd1525080610f74528061126d52806114ed52806115a0528061163e52806119d95280611ec05280612eb95280612f1d528061322552806132fb52806133a352506141f06000f3fe608060405234801561001057600080fd5b50600436106102525760003560e01c80637ecebe0011610146578063d505accf116100c3578063ed9a5f5111610087578063ed9a5f5114610ac0578063f3fef3a314610ac8578063fad8b32a14610af4578063fc0c546a14610b1a578063fc673c4f14610b22578063fe9d930314610c6057610252565b8063d505accf146109d9578063d95b637114610a2a578063dd62ed3e14610a58578063de0e9a3e14610a86578063ea598cb014610aa357610252565b8063a9059cbb1161010a578063a9059cbb14610967578063aca2efc714610993578063bbe3493e146109c1578063bd27dc9f146109c9578063c2b18aa0146109d157610252565b80637ecebe00146108345780638c28cbe81461085a578063959b8c3f1461088057806395d89b41146108a65780639bd9bbc6146108ae57610252565b806326599850116101d4578063556f0dc711610198578063556f0dc7146106535780635dbd60591461065b57806362ad1b831461068757806370a08231146107d0578063796ab980146107f657610252565b8063265998501461057657806330adf81f146105a2578063313ce567146105aa5780633644e515146105c85780633ea21465146105d057610252565b806318160ddd1161021b57806318160ddd1461047a5780631be655e81461049457806321cde2b6146104c257806323b872dd14610504578063264413181461053a57610252565b806223de291461025757806306e485381461033f57806306fdde0314610397578063095ea7b3146104145780630e5c011e14610454575b600080fd5b61033d600480360360c081101561026d57600080fd5b6001600160a01b03823581169260208101358216926040820135909216916060820135919081019060a081016080820135600160201b8111156102af57600080fd5b8201836020820111156102c157600080fd5b803590602001918460018302840111600160201b831117156102e257600080fd5b919390929091602081019035600160201b8111156102ff57600080fd5b82018360208201111561031157600080fd5b803590602001918460018302840111600160201b8311171561033257600080fd5b509092509050610d0b565b005b610347610d60565b60408051602080825283518183015283519192839290830191858101910280838360005b8381101561038357818101518382015260200161036b565b505050509050019250505060405180910390f35b61039f610d65565b6040805160208082528351818301528351919283929083019185019080838360005b838110156103d95781810151838201526020016103c1565b50505050905090810190601f1680156104065780820380516001836020036101000a031916815260200191505b509250505060405180910390f35b6104406004803603604081101561042a57600080fd5b506001600160a01b038135169060200135610dfb565b604080519115158252519081900360200190f35b61033d6004803603602081101561046a57600080fd5b50356001600160a01b0316610e1f565b610482610f61565b60408051918252519081900360200190f35b610482600480360360408110156104aa57600080fd5b506001600160a01b0381358116916020013516610f70565b6104e8600480360360208110156104d857600080fd5b50356001600160a01b0316610fe0565b604080516001600160a01b039092168252519081900360200190f35b6104406004803603606081101561051a57600080fd5b506001600160a01b03813581169160208101359091169060400135611085565b61033d6004803603608081101561055057600080fd5b506001600160a01b0381358116916020810135821691604082013516906060013561118b565b6104826004803603604081101561058c57600080fd5b50803590602001356001600160a01b031661125b565b6104826112d0565b6105b26112f4565b6040805160ff9092168252519081900360200190f35b6104826112f9565b61033d600480360360608110156105e657600080fd5b6001600160a01b0382351691602081013591810190606081016040820135600160201b81111561061557600080fd5b82018360208201111561062757600080fd5b803590602001918460018302840111600160201b8311171561064857600080fd5b50909250905061131d565b610482611400565b6104826004803603604081101561067157600080fd5b50803590602001356001600160a01b031661140a565b61033d600480360360a081101561069d57600080fd5b6001600160a01b03823581169260208101359091169160408201359190810190608081016060820135600160201b8111156106d757600080fd5b8201836020820111156106e957600080fd5b803590602001918460018302840111600160201b8311171561070a57600080fd5b91908080601f0160208091040260200160405190810160405280939291908181526020018383808284376000920191909152509295949360208101935035915050600160201b81111561075c57600080fd5b82018360208201111561076e57600080fd5b803590602001918460018302840111600160201b8311171561078f57600080fd5b91908080601f01602080910402602001604051908101604052809392919081815260200183838082843760009201919091525092955061141e945050505050565b610482600480360360208110156107e657600080fd5b50356001600160a01b0316611487565b610482600480360360c081101561080c57600080fd5b5080359060208101359060408101359060ff6060820135169060808101359060a00135611492565b6104826004803603602081101561084a57600080fd5b50356001600160a01b031661161a565b6104826004803603602081101561087057600080fd5b50356001600160a01b031661162c565b61033d6004803603602081101561089657600080fd5b50356001600160a01b031661170c565b61039f6117f6565b61033d600480360360608110156108c457600080fd5b6001600160a01b0382351691602081013591810190606081016040820135600160201b8111156108f357600080fd5b82018360208201111561090557600080fd5b803590602001918460018302840111600160201b8311171561092657600080fd5b91908080601f016020809104026020016040519081016040528093929190818152602001838380828437600092019190915250929550611857945050505050565b6104406004803603604081101561097d57600080fd5b506001600160a01b038135169060200135611881565b610482600480360360408110156109a957600080fd5b506001600160a01b0381358116916020013516611914565b610347611928565b610347611989565b610347611a9b565b61033d600480360360e08110156109ef57600080fd5b506001600160a01b03813581169160208101359091169060408101359060608101359060ff6080820135169060a08101359060c00135611afb565b61044060048036036040811015610a4057600080fd5b506001600160a01b0381358116916020013516611d05565b61048260048036036040811015610a6e57600080fd5b506001600160a01b0381358116916020013516611d52565b61048260048036036020811015610a9c57600080fd5b5035611d7d565b61048260048036036020811015610ab957600080fd5b5035611d95565b61039f611dac565b61033d60048036036040811015610ade57600080fd5b506001600160a01b038135169060200135611dcd565b61033d60048036036020811015610b0a57600080fd5b50356001600160a01b0316611ddd565b6104e8611ebe565b61033d60048036036080811015610b3857600080fd5b6001600160a01b0382351691602081013591810190606081016040820135600160201b811115610b6757600080fd5b820183602082011115610b7957600080fd5b803590602001918460018302840111600160201b83111715610b9a57600080fd5b91908080601f0160208091040260200160405190810160405280939291908181526020018383808284376000920191909152509295949360208101935035915050600160201b811115610bec57600080fd5b820183602082011115610bfe57600080fd5b803590602001918460018302840111600160201b83111715610c1f57600080fd5b91908080601f016020809104026020016040519081016040528093929190818152602001838380828437600092019190915250929550611ee2945050505050565b61033d60048036036040811015610c7657600080fd5b81359190810190604081016020820135600160201b811115610c9757600080fd5b820183602082011115610ca957600080fd5b803590602001918460018302840111600160201b83111715610cca57600080fd5b91908080601f016020809104026020016040519081016040528093929190818152602001838380828437600092019190915250929550611f41945050505050565b610d1433612120565b610d5633888787878080601f01602080910402602001604051908101604052809392919081815260200183838082843760009201919091525061212392505050565b5050505050505050565b606090565b60038054604080516020601f6002600019610100600188161502019095169490940493840181900481028201810190925282815260609390929091830182828015610df15780601f10610dc657610100808354040283529160200191610df1565b820191906000526020600020905b815481529060010190602001808311610dd457829003601f168201915b5050505050905090565b600080610e0661214f565b9050610e13818585612153565b60019150505b92915050565b6000816001600160a01b03166370a08231306040518263ffffffff1660e01b815260040180826001600160a01b0316815260200191505060206040518083038186803b158015610e6e57600080fd5b505afa158015610e82573d6000803e3d6000fd5b505050506040513d6020811015610e9857600080fd5b50516001600160a01b0383166000908152600d60209081526040808320805490859055600c909252822054929350830391610ee190610edb846305f5e1006121b5565b9061220e565b90506000610eed610f61565b9050610f1b610efc8383612268565b6001600160a01b0387166000908152600b60205260409020549061220e565b6001600160a01b0386166000908152600b6020526040902055610f3e82826122aa565b6001600160a01b039095166000908152600c602052604090209490945550505050565b6000610f6b6122ec565b905090565b60007f00000000000000000000000000000000000000000000000000000000000000006001600160a01b0316826001600160a01b031614610fc857610fc36305f5e100610fbd84866122f2565b90612268565b610fd9565b610fd9610fd48461234f565b61236a565b9392505050565b6040805163743ad7b560e01b81523060048201526001600160a01b03838116602483015291516000927f0000000000000000000000000000000000000000000000000000000000000000169163743ad7b5916044808301926020929190829003018186803b15801561105157600080fd5b505afa158015611065573d6000803e3d6000fd5b505050506040513d602081101561107b57600080fd5b505190505b919050565b60008061109061214f565b90506110be818686866040518060200160405280600081525060405180602001604052806000815250612383565b6110ea8186868660405180602001604052806000815250604051806020016040528060008152506125b0565b60408051808201825260128152714552433737373a204f5645522d414c4c4f5760701b6020808301919091526001600160a01b03808916600090815260078352848120918616815291529190912054611152918791849161114d919088906126ee565b612153565b6111808186868660405180602001604052806000815250604051806020016040528060008152506000612785565b506001949350505050565b7f00000000000000000000000000000000000000000000000000000000000000006001600160a01b031663743ad7b530846040518363ffffffff1660e01b815260040180836001600160a01b03168152602001826001600160a01b031681526020019250505060206040518083038186803b15801561120957600080fd5b505afa15801561121d573d6000803e3d6000fd5b505050506040513d602081101561123357600080fd5b50516001600160a01b0316331461124957600080fd5b61125584848484612a16565b50505050565b60008061126661214f565b90506112947f0000000000000000000000000000000000000000000000000000000000000000823087612b3c565b61129d84612c99565b91506112c983836040518060200160405280600081525060405180602001604052806000815250612cab565b5092915050565b7f6e71edae12b1b97f4d1f60370fef10105fa2faae0126114a169c64845d6126c981565b601290565b7f000000000000000000000000000000000000000000000000000000000000000081565b61136c848484848080601f016020809104026020016040519081016040528093929190818152602001838380828437600092018290525060408051602081019091529081529250612cab915050565b6113bb848484848080601f016020809104026020016040519081016040528093929190818152602001838380828437600092018290525060408051602081019091529081529250612d76915050565b6040805184815290516001600160a01b038616917f5b9ea35ccc2de5176fed8512b7b27b62fd5c98bce089f76ef67287ffa759db9d919081900360200190a250505050565b6000610f6b612e71565b6000610fd98361141861214f565b84612e7d565b61142f61142961214f565b86611d05565b611471576040805162461bcd60e51b815260206004820152600e60248201526d22a9219b9b9b90272796a7a822a960911b604482015290519081900360640190fd5b61148085858585856001612edf565b5050505050565b6000610e198261234f565b60008061149d61214f565b6040805163d505accf60e01b81526001600160a01b038381166004830152306024830152604482018c9052606482018b905260ff8916608483015260a4820188905260c4820187905291519293507f00000000000000000000000000000000000000000000000000000000000000009091169163d505accf9160e48082019260009290919082900301818387803b15801561153757600080fd5b505af1925050508015611548575060015b61160457604080516323f2ebc360e21b81526001600160a01b03838116600483015230602483015260448201899052606482018a90526001608483015260ff881660a483015260c4820187905260e4820186905291517f000000000000000000000000000000000000000000000000000000000000000090921691638fcbaf0c916101048082019260009290919082900301818387803b1580156115eb57600080fd5b505af11580156115ff573d6000803e3d6000fd5b505050505b61160e8189612f16565b98975050505050505050565b60086020526000908152604090205481565b60006116e06116396122ec565b6116da7f00000000000000000000000000000000000000000000000000000000000000006001600160a01b03166370a08231306040518263ffffffff1660e01b815260040180826001600160a01b0316815260200191505060206040518083038186803b1580156116a957600080fd5b505afa1580156116bd573d6000803e3d6000fd5b505050506040513d60208110156116d357600080fd5b5051612c99565b90612f79565b905061108082826040518060200160405280600081525060405180602001604052806000815250612cab565b806001600160a01b031661171e61214f565b6001600160a01b03161415611766576040805162461bcd60e51b815260206004820152600960248201526829a2a62316a7a822a960b91b604482015290519081900360640190fd5b60016006600061177461214f565b6001600160a01b03908116825260208083019390935260409182016000908120918616815292529020805460ff19169115159190911790556117b461214f565b6001600160a01b0316816001600160a01b03167ff4caeb2d6ca8932a215a353d0703c326ec2d81fc68170f320eb2ab49e9df61f960405160405180910390a350565b60048054604080516020601f6002600019610100600188161502019095169490940493840181900481028201810190925282815260609390929091830182828015610df15780601f10610dc657610100808354040283529160200191610df1565b61187c61186261214f565b848484604051806020016040528060008152506001612edf565b505050565b60008061188c61214f565b90506118ba818286866040518060200160405280600081525060405180602001604052806000815250612383565b6118e68182868660405180602001604052806000815250604051806020016040528060008152506125b0565b610e138182868660405180602001604052806000815250604051806020016040528060008152506000612785565b6000610fd96305f5e100610fbd85856122f2565b6060600a805480602002602001604051908101604052809291908181526020018280548015610df157602002820191906000526020600020905b81546001600160a01b03168152600190910190602001808311611962575050505050905090565b600954606090819060010167ffffffffffffffff811180156119aa57600080fd5b506040519080825280602002602001820160405280156119d4578160200160208202803683370190505b5090507f000000000000000000000000000000000000000000000000000000000000000081600081518110611a0557fe5b60200260200101906001600160a01b031690816001600160a01b03168152505060005b60095460ff82161015611a955760098160ff1681548110611a4557fe5b9060005260206000200160009054906101000a90046001600160a01b0316828260010160ff1681518110611a7557fe5b6001600160a01b0390921660209283029190910190910152600101611a28565b50905090565b60606009805480602002602001604051908101604052809291908181526020018280548015610df1576020028201919060005260206000209081546001600160a01b03168152600190910190602001808311611962575050505050905090565b42841015611b3a576040805162461bcd60e51b81526020600482015260076024820152661156141254915160ca1b604482015290519081900360640190fd5b6001600160a01b0380881660008181526008602090815260408083208054600180820190925582517f6e71edae12b1b97f4d1f60370fef10105fa2faae0126114a169c64845d6126c98186015280840196909652958c166060860152608085018b905260a085019590955260c08085018a90528151808603909101815260e08501825280519083012061190160f01b6101008601527f00000000000000000000000000000000000000000000000000000000000000006101028601526101228086019190915281518086039091018152610142850180835281519184019190912090849052610162850180835281905260ff89166101828601526101a285018890526101c285018790529051909492936101e28082019392601f1981019281900390910190855afa158015611c73573d6000803e3d6000fd5b5050604051601f1901519150506001600160a01b03811615801590611ca95750886001600160a01b0316816001600160a01b0316145b611cef576040805162461bcd60e51b81526020600482015260126024820152715065726d697420494e56414c49445f53494760701b604482015290519081900360640190fd5b611cfa898989612153565b505050505050505050565b6000816001600160a01b0316836001600160a01b03161480610fd95750506001600160a01b0390811660009081526006602090815260408083209490931682529290925290205460ff1690565b6001600160a01b03918216600090815260076020908152604080832093909416825291909152205490565b600080611d8861214f565b9050610fd9838283612e7d565b600080611da061214f565b9050610fd98184612f16565b604051806040016040528060058152602001640302e322e360dc1b81525081565b611dd982333384612a16565b5050565b611de561214f565b6001600160a01b0316816001600160a01b03161415611e37576040805162461bcd60e51b815260206004820152600960248201526829a2a62316a7a822a960b91b604482015290519081900360640190fd5b60066000611e4361214f565b6001600160a01b03908116825260208083019390935260409182016000908120918516815292529020805460ff19169055611e7c61214f565b6001600160a01b0316816001600160a01b03167f50546e66e5f44d728365dc3908c63bc5cfeeab470722c1677e3073a6ac294aa160405160405180910390a350565b7f000000000000000000000000000000000000000000000000000000000000000081565b611ef3611eed61214f565b85611d05565b611f35576040805162461bcd60e51b815260206004820152600e60248201526d22a9219b9b9b90272796a7a822a960911b604482015290519081900360640190fd5b61125584848484612d76565b611dd9611f4c61214f565b838360405180602001604052806000815250612d76565b606080611f77836306fdde0360e01b612fbb565b9050805160001415610e1957611f8c836131e1565b915050611080565b606080611fa8836395d89b4160e01b612fbb565b9050805160001415610e1957611f8c836131ee565b606060028206158015611fd05750600082115b8015611fdd575060288211155b61202e576040805162461bcd60e51b815260206004820152601e60248201527f41646472657373537472696e675574696c3a20494e56414c49445f4c454e0000604482015290519081900360640190fd5b60608267ffffffffffffffff8111801561204757600080fd5b506040519080825280601f01601f191660200182016040528015612072576020820181803683370190505b5090506001600160a01b03841660005b6002850481101561211657600860138290030282901c600f600482901c1660f0821682036120af826131fb565b8685600202815181106120be57fe5b60200101906001600160f81b031916908160001a9053506120de816131fb565b8685600202600101815181106120f057fe5b60200101906001600160f81b031916908160001a90535050600190920191506120829050565b5090949350505050565b50565b6001600160a01b0384163014156121445761213f848484613223565b611255565b611480823085612e7d565b3390565b6001600160a01b03808416600081815260076020908152604080832094871680845294825291829020859055815185815291517f8c5be1e5ebec7d5bd14f71427d1e84f3dd0314c0f7b2291e5b200ac8c7c3b9259281900390910190a3505050565b6000826121c457506000610e19565b828202828482816121d157fe5b0414610fd95760405162461bcd60e51b81526004018080602001828103825260218152602001806141526021913960400191505060405180910390fd5b600082820183811015610fd9576040805162461bcd60e51b815260206004820152601b60248201527f536166654d6174683a206164646974696f6e206f766572666c6f770000000000604482015290519081900360640190fd5b6000610fd983836040518060400160405280601a81526020017f536166654d6174683a206469766973696f6e206279207a65726f0000000000008152506134be565b6000610fd983836040518060400160405280601881526020017f536166654d6174683a206d6f64756c6f206279207a65726f0000000000000000815250613523565b60025490565b6001600160a01b038083166000908152600e60209081526040808320938516835292905290812054610fd99061234961232a85611487565b6001600160a01b0387166000908152600b6020526040902054906121b5565b90613585565b6001600160a01b031660009081526001602052604090205490565b6000612374612e71565b828161237c57fe5b0492915050565b6040805163555ddc6560e11b81526001600160a01b03871660048201527f29ddb589b1fb5fc7cf394961c1adf5f8c6454761adf795e67fe149f658abe89560248201529051600091731820a4b7618bde71dce8cdc73aab6c95905fad249163aabbb8ca91604480820192602092909190829003018186803b15801561240757600080fd5b505afa15801561241b573d6000803e3d6000fd5b505050506040513d602081101561243157600080fd5b505190506001600160a01b038116156125a757806001600160a01b03166375ab97828888888888886040518763ffffffff1660e01b815260040180876001600160a01b03168152602001866001600160a01b03168152602001856001600160a01b031681526020018481526020018060200180602001838103835285818151815260200191508051906020019080838360005b838110156124dc5781810151838201526020016124c4565b50505050905090810190601f1680156125095780820380516001836020036101000a031916815260200191505b50838103825284518152845160209182019186019080838360005b8381101561253c578181015183820152602001612524565b50505050905090810190601f1680156125695780820380516001836020036101000a031916815260200191505b5098505050505050505050600060405180830381600087803b15801561258e57600080fd5b505af11580156125a2573d6000803e3d6000fd5b505050505b50505050505050565b60006125bb86611487565b905060005b6009548110156126df576000600982815481106125d957fe5b60009182526020822001546001600160a01b0316915061260784610fbd89612601868e6122f2565b906121b5565b6001600160a01b0383166000908152600b60205260408120549192509061263a90612633908a906121b5565b8390613585565b6001600160a01b038085166000908152600e60209081526040808320938f168352929052205490915061266d90826135ea565b6001600160a01b038481166000908152600e602090815260408083208f8516845290915280822093909355908b16815220546126a99082613585565b6001600160a01b039384166000908152600e60209081526040808320968d168352959052939093209290925550506001016125c0565b506125a787878787878761364f565b6000818484111561277d5760405162461bcd60e51b81526004018080602001828103825283818151815260200191508051906020019080838360005b8381101561274257818101518382015260200161272a565b50505050905090810190601f16801561276f5780820380516001836020036101000a031916815260200191505b509250505060405180910390fd5b505050900390565b6040805163555ddc6560e11b81526001600160a01b03871660048201527fb281fc8c12954d22544db45de3159a39272895b169a852b314f9cc762e44c53b60248201529051600091731820a4b7618bde71dce8cdc73aab6c95905fad249163aabbb8ca91604480820192602092909190829003018186803b15801561280957600080fd5b505afa15801561281d573d6000803e3d6000fd5b505050506040513d602081101561283357600080fd5b505190506001600160a01b038116156129ac57806001600160a01b03166223de298989898989896040518763ffffffff1660e01b815260040180876001600160a01b03168152602001866001600160a01b03168152602001856001600160a01b031681526020018481526020018060200180602001838103835285818151815260200191508051906020019080838360005b838110156128dd5781810151838201526020016128c5565b50505050905090810190601f16801561290a5780820380516001836020036101000a031916815260200191505b50838103825284518152845160209182019186019080838360005b8381101561293d578181015183820152602001612925565b50505050905090810190601f16801561296a5780820380516001836020036101000a031916815260200191505b5098505050505050505050600060405180830381600087803b15801561298f57600080fd5b505af11580156129a3573d6000803e3d6000fd5b50505050610d56565b8115610d56576129c4866001600160a01b0316613971565b15610d56576040805162461bcd60e51b815260206004820152601960248201527f4e4f5420455243373737546f6b656e73526563697069656e7400000000000000604482015290519081900360640190fd5b6000612a26826305f5e1006121b5565b9050612a3285856122f2565b811115612a3e57600080fd5b6001600160a01b038086166000908152600e6020908152604080832093881683529290522054612a6e90826135ea565b6001600160a01b038087166000818152600e60209081526040808320948a16835293815283822094909455908152600d909252902054612aae9083612f79565b6001600160a01b038087166000818152600d6020908152604080832095909555845163a9059cbb60e01b81529388166004850152602484018790529351919363a9059cbb936044808201949293918390030190829087803b158015612b1257600080fd5b505af1158015612b26573d6000803e3d6000fd5b505050506040513d60208110156125a757600080fd5b604080516001600160a01b0385811660248301528481166044830152606480830185905283518084039091018152608490920183526020820180516001600160e01b03166323b872dd60e01b17815292518251600094606094938a169392918291908083835b60208310612bc15780518252601f199092019160209182019101612ba2565b6001836020036101000a0380198251168184511680821785525050505050509050019150506000604051808303816000865af19150503d8060008114612c23576040519150601f19603f3d011682016040523d82523d6000602084013e612c28565b606091505b5091509150818015612c56575080511580612c565750808060200190516020811015612c5357600080fd5b50515b612c915760405162461bcd60e51b81526004018080602001828103825260248152602001806141976024913960400191505060405180910390fd5b505050505050565b6000612ca3612e71565b909102919050565b612cb483612120565b612cc084848484613977565b60005b60095481101561148057600060098281548110612cdc57fe5b60009182526020808320909101546001600160a01b0316808352600b9091526040822054909250612d0e9087906121b5565b6001600160a01b038084166000908152600e60209081526040808320938c1683529290522054909150612d4190826135ea565b6001600160a01b039283166000908152600e60209081526040808320958b168352949052929092209190915550600101612cc3565b612d7f83612120565b6000612d8a85611487565b9050600084612d97610f61565b03905060005b600954811015612e6457600060098281548110612db657fe5b6000918252602090912001546001600160a01b031690508215612e34576000612de785610fbd8a612601868e6122f2565b9050612e15612df68286612268565b6001600160a01b0384166000908152600b60205260409020549061220e565b6001600160a01b0383166000908152600b602052604090205550612e5b565b6001600160a01b0381166000908152600b60209081526040808320839055600d9091528120555b50600101612d9d565b50612c9186868686613bf8565b600054601203600a0a90565b6000612ea983856040518060200160405280600081525060405180602001604052806000815250612d76565b612eb28461236a565b9050610fd97f00000000000000000000000000000000000000000000000000000000000000008383613ea6565b6000612ee961214f565b9050612ef9818888888888612383565b612f078188888888886125b0565b6125a781888888888888612785565b6000612f447f0000000000000000000000000000000000000000000000000000000000000000843085612b3c565b612f4d82612c99565b9050610e1983826040518060200160405280600081525060405180602001604052806000815250612cab565b6000610fd983836040518060400160405280601e81526020017f536166654d6174683a207375627472616374696f6e206f766572666c6f7700008152506126ee565b60408051600481526024810182526020810180516001600160e01b03166001600160e01b031985161781529151815160609360009385936001600160a01b03891693919290918291908083835b602083106130275780518252601f199092019160209182019101613008565b6001836020036101000a038019825116818451168082178552505050505050905001915050600060405180830381855afa9150503d8060008114613087576040519150601f19603f3d011682016040523d82523d6000602084013e61308c565b606091505b509150915081158061309d57508051155b156130bb576040518060200160405280600081525092505050610e19565b8051602014156130f35760008180602001905160208110156130dc57600080fd5b505190506130e981614009565b9350505050610e19565b6040815111156131c95780806020019051602081101561311257600080fd5b8101908080516040519392919084600160201b82111561313157600080fd5b90830190602082018581111561314657600080fd5b8251600160201b81118282018810171561315f57600080fd5b82525081516020918201929091019080838360005b8381101561318c578181015183820152602001613174565b50505050905090810190601f1680156131b95780820380516001836020036101000a031916815260200191505b5060405250505092505050610e19565b50506040805160208101909152600081529392505050565b6060610e19826028611fbd565b6060610e19826006611fbd565b6000600a8260ff16101561321657506030810160f81b611080565b506037810160f81b611080565b7f00000000000000000000000000000000000000000000000000000000000000006001600160a01b0316836001600160a01b031663fc0c546a6040518163ffffffff1660e01b815260040160206040518083038186803b15801561328657600080fd5b505afa15801561329a573d6000803e3d6000fd5b505050506040513d60208110156132b057600080fd5b50516001600160a01b0316146132f7576040805162461bcd60e51b81526020600482015260076024820152661253959053125160ca1b604482015290519081900360640190fd5b60007f00000000000000000000000000000000000000000000000000000000000000006001600160a01b03166370a08231306040518263ffffffff1660e01b815260040180826001600160a01b0316815260200191505060206040518083038186803b15801561336657600080fd5b505afa15801561337a573d6000803e3d6000fd5b505050506040513d602081101561339057600080fd5b5051905061339f848084613ea6565b60007f00000000000000000000000000000000000000000000000000000000000000006001600160a01b03166370a08231306040518263ffffffff1660e01b815260040180826001600160a01b0316815260200191505060206040518083038186803b15801561340e57600080fd5b505afa158015613422573d6000803e3d6000fd5b505050506040513d602081101561343857600080fd5b50519050600061345061344b8385612f79565b612c99565b905060008111613494576040805162461bcd60e51b815260206004820152600a6024820152694e4f2d5550475241444560b01b604482015290519081900360640190fd5b612c9185826040518060200160405280600081525060405180602001604052806000815250612cab565b6000818361350d5760405162461bcd60e51b815260206004820181815283516024840152835190928392604490910191908501908083836000831561274257818101518382015260200161272a565b50600083858161351957fe5b0495945050505050565b600081836135725760405162461bcd60e51b815260206004820181815283516024840152835190928392604490910191908501908083836000831561274257818101518382015260200161272a565b5082848161357c57fe5b06949350505050565b600081830381831280159061359a5750838113155b806135af57506000831280156135af57508381135b610fd95760405162461bcd60e51b81526004018080602001828103825260248152602001806141736024913960400191505060405180910390fd5b60008282018183128015906135ff5750838112155b80613614575060008312801561361457508381125b610fd95760405162461bcd60e51b81526004018080602001828103825260218152602001806141316021913960400191505060405180910390fd5b6001600160a01b03851661369e576040805162461bcd60e51b81526020600482015260116024820152704552433737373a2053454e442d5a45524f60781b604482015290519081900360640190fd5b6001600160a01b0384166136ed576040805162461bcd60e51b81526020600482015260116024820152704552433737373a2053454e442d5a45524f60781b604482015290519081900360640190fd5b6136f5612e71565b83816136fd57fe5b0615613743576040805162461bcd60e51b815260206004820152601060248201526f22a9219b9b9b9d102120a216a3a920a760811b604482015290519081900360640190fd5b61374f86868686611255565b60408051808201825260138152724552433737373a2053454e442d45584345535360681b6020808301919091526001600160a01b0388166000908152600190915291909120546137a09185906126ee565b6001600160a01b0380871660009081526001602052604080822093909355908616815220546137cf908461220e565b60016000866001600160a01b03166001600160a01b0316815260200190815260200160002081905550836001600160a01b0316856001600160a01b0316876001600160a01b03167f06b541ddaa720db2b10a4d0cdac39b8d360425fc073085fac19bc82614677987868686604051808481526020018060200180602001838103835285818151815260200191508051906020019080838360005b83811015613881578181015183820152602001613869565b50505050905090810190601f1680156138ae5780820380516001836020036101000a031916815260200191505b50838103825284518152845160209182019186019080838360005b838110156138e15781810151838201526020016138c9565b50505050905090810190601f16801561390e5780820380516001836020036101000a031916815260200191505b509550505050505060405180910390a4836001600160a01b0316856001600160a01b03167fddf252ad1be2c89b69c2b068fc378daa952ba7f163c4a11628f55a4df523b3ef856040518082815260200191505060405180910390a3505050505050565b3b151590565b6001600160a01b0384166139c6576040805162461bcd60e51b81526020600482015260116024820152704552433737373a204d494e542d5a45524f60781b604482015290519081900360640190fd5b6139ce612e71565b83816139d657fe5b0615613a1c576040805162461bcd60e51b815260206004820152601060248201526f22a9219b9b9b9d102120a216a3a920a760811b604482015290519081900360640190fd5b6000613a2661214f565b9050613a358160008787611255565b600254613a42908561220e565b6002556001600160a01b038516600090815260016020526040902054613a68908561220e565b6001600160a01b038616600090815260016020526040812091909155613a949082908787878784612785565b846001600160a01b0316816001600160a01b03167f2fe5be0146f74c5bce36c0b80911af6c7d86ff27e89d5cfa61fc681327954e5d868686604051808481526020018060200180602001838103835285818151815260200191508051906020019080838360005b83811015613b13578181015183820152602001613afb565b50505050905090810190601f168015613b405780820380516001836020036101000a031916815260200191505b50838103825284518152845160209182019186019080838360005b83811015613b73578181015183820152602001613b5b565b50505050905090810190601f168015613ba05780820380516001836020036101000a031916815260200191505b509550505050505060405180910390a36040805185815290516001600160a01b038716916000917fddf252ad1be2c89b69c2b068fc378daa952ba7f163c4a11628f55a4df523b3ef9181900360200190a35050505050565b6001600160a01b038416613c47576040805162461bcd60e51b81526020600482015260116024820152704552433737373a204255524e2d5a45524f60781b604482015290519081900360640190fd5b613c4f612e71565b8381613c5757fe5b0615613c9d576040805162461bcd60e51b815260206004820152601060248201526f22a9219b9b9b9d102120a216a3a920a760811b604482015290519081900360640190fd5b6000613ca761214f565b9050613cb68186600087611255565b613cc581866000878787612383565b60408051808201825260138152724552433737373a204255524e2d45584345535360681b6020808301919091526001600160a01b038816600090815260019091529190912054613d169186906126ee565b6001600160a01b038616600090815260016020526040902055600254613d3c9085612f79565b600281905550846001600160a01b0316816001600160a01b03167fa78a9be3a7b862d26933ad85fb11d80ef66b8f972d7cbba06621d583943a4098868686604051808481526020018060200180602001838103835285818151815260200191508051906020019080838360005b83811015613dc1578181015183820152602001613da9565b50505050905090810190601f168015613dee5780820380516001836020036101000a031916815260200191505b50838103825284518152845160209182019186019080838360005b83811015613e21578181015183820152602001613e09565b50505050905090810190601f168015613e4e5780820380516001836020036101000a031916815260200191505b509550505050505060405180910390a36040805185815290516000916001600160a01b038816917fddf252ad1be2c89b69c2b068fc378daa952ba7f163c4a11628f55a4df523b3ef9181900360200190a35050505050565b604080516001600160a01b038481166024830152604480830185905283518084039091018152606490920183526020820180516001600160e01b031663a9059cbb60e01b178152925182516000946060949389169392918291908083835b60208310613f235780518252601f199092019160209182019101613f04565b6001836020036101000a0380198251168184511680821785525050505050509050019150506000604051808303816000865af19150503d8060008114613f85576040519150601f19603f3d011682016040523d82523d6000602084013e613f8a565b606091505b5091509150818015613fb8575080511580613fb85750808060200190516020811015613fb557600080fd5b50515b611480576040805162461bcd60e51b815260206004820152601f60248201527f5472616e7366657248656c7065723a205452414e534645525f4641494c454400604482015290519081900360640190fd5b6040805160208082528183019092526060918291906020820181803683370190505090506000805b602081101561409257600085826020811061404857fe5b1a60f81b90506001600160f81b0319811615614089578084848151811061406b57fe5b60200101906001600160f81b031916908160001a9053506001909201915b50600101614031565b5060608167ffffffffffffffff811180156140ac57600080fd5b506040519080825280601f01601f1916602001820160405280156140d7576020820181803683370190505b50905060005b82811015614127578381815181106140f157fe5b602001015160f81c60f81b82828151811061410857fe5b60200101906001600160f81b031916908160001a9053506001016140dd565b5094935050505056fe5369676e6564536166654d6174683a206164646974696f6e206f766572666c6f77536166654d6174683a206d756c7469706c69636174696f6e206f766572666c6f775369676e6564536166654d6174683a207375627472616374696f6e206f766572666c6f775472616e7366657248656c7065723a205452414e534645525f46524f4d5f4641494c4544a26469706673582212209636c8a6e0c017a81862d852f49656f6dff3b4dc6da785a8f9e2aef200b41c8664736f6c634300060c00330000000000000000000000001820a4b7618bde71dce8cdc73aab6c95905fad24a2646970667358221220b86e0a4c06f809e9daae2ab027c61431b4dc2527350a86f77f548279358807b564736f6c634300060c0033",
  "devdoc": {
    "kind": "dev",
    "methods": {},
    "version": 1
  },
  "userdoc": {
    "kind": "user",
    "methods": {},
    "version": 1
  },
  "storageLayout": {
    "storage": [
      {
        "astId": 4858,
        "contract": "contracts/farming/FarmerTokenFactory.sol:FarmerTokenFactory",
        "label": "_nextToken",
        "offset": 0,
        "slot": "0",
        "type": "t_address"
      },
      {
        "astId": 4861,
        "contract": "contracts/farming/FarmerTokenFactory.sol:FarmerTokenFactory",
        "label": "_rewards",
        "offset": 0,
        "slot": "1",
        "type": "t_array(t_address)dyn_storage"
      }
    ],
    "types": {
      "t_address": {
        "encoding": "inplace",
        "label": "address",
        "numberOfBytes": "20"
      },
      "t_array(t_address)dyn_storage": {
        "base": "t_address",
        "encoding": "dynamic_array",
        "label": "address[]",
        "numberOfBytes": "32"
      }
    }
  }
}