{
  "address": "0xf56bA3F585d7a4Ff447769C46Fe2DfBa1D246A03",
  "abi": [
    {
      "inputs": [
        {
          "internalType": "contract IUniswapV2Router01",
          "name": "_router",
          "type": "address"
        }
      ],
      "stateMutability": "nonpayable",
      "type": "constructor"
    },
    {
      "inputs": [],
      "name": "router",
      "outputs": [
        {
          "internalType": "contract IUniswapV2Router01",
          "name": "",
          "type": "address"
        }
      ],
      "stateMutability": "view",
      "type": "function"
    },
    {
      "inputs": [
        {
          "internalType": "address",
          "name": "",
          "type": "address"
        },
        {
          "internalType": "address",
          "name": "from",
          "type": "address"
        },
        {
          "internalType": "address",
          "name": "",
          "type": "address"
        },
        {
          "internalType": "uint256",
          "name": "amount",
          "type": "uint256"
        },
        {
          "internalType": "bytes",
          "name": "userData",
          "type": "bytes"
        },
        {
          "internalType": "bytes",
          "name": "",
          "type": "bytes"
        }
      ],
      "name": "tokensReceived",
      "outputs": [],
      "stateMutability": "nonpayable",
      "type": "function"
    },
    {
      "inputs": [],
      "name": "uniswapFactory",
      "outputs": [
        {
          "internalType": "contract IUniswapV2Factory",
          "name": "",
          "type": "address"
        }
      ],
      "stateMutability": "view",
      "type": "function"
    },
    {
      "stateMutability": "payable",
      "type": "receive"
    }
  ],
  "transactionHash": "0x3f7e5497427175600e1940424f409d33d1439e543756025855a3d524eb7a302f",
  "args": [
    "0x7a250d5630B4cF539739dF2C5dAcb4c659F2488D"
  ],
  "solcInputHash": "17ab2317f1c05b7fec7c306769bb6179",
  "bytecode": "0x60e060405234801561001057600080fd5b506040516112123803806112128339818101604052602081101561003357600080fd5b5051604080516329965a1d60e01b815230600482018190527fb281fc8c12954d22544db45de3159a39272895b169a852b314f9cc762e44c53b602483015260448201529051731820a4b7618bde71dce8cdc73aab6c95905fad24916329965a1d91606480830192600092919082900301818387803b1580156100b457600080fd5b505af11580156100c8573d6000803e3d6000fd5b50505050806001600160a01b031663ad5c46486040518163ffffffff1660e01b815260040160206040518083038186803b15801561010557600080fd5b505afa158015610119573d6000803e3d6000fd5b505050506040513d602081101561012f57600080fd5b50516001600160601b0319606091821b811660c0529082901b166080526040805163c45a015560e01b815290516001600160a01b0383169163c45a0155916004808301926020929190829003018186803b15801561018c57600080fd5b505afa1580156101a0573d6000803e3d6000fd5b505050506040513d60208110156101b657600080fd5b50516001600160601b031960609190911b1660a0525060805160601c60a05160601c60c05160601c610fea610228600039806047528061036252806103cb52806106e3528061072552806107a352806107f752508061020c52806104c552806109a25250806102305250610fea6000f3fe6080604052600436106100375760003560e01c806223de29146100785780638bdb2afa1461016f578063f887ea40146101a057610073565b3661007357336001600160a01b037f0000000000000000000000000000000000000000000000000000000000000000161461007157600080fd5b005b600080fd5b34801561008457600080fd5b50610071600480360360c081101561009b57600080fd5b6001600160a01b03823581169260208101358216926040820135909216916060820135919081019060a0810160808201356401000000008111156100de57600080fd5b8201836020820111156100f057600080fd5b8035906020019184600183028401116401000000008311171561011257600080fd5b91939092909160208101903564010000000081111561013057600080fd5b82018360208201111561014257600080fd5b8035906020019184600183028401116401000000008311171561016457600080fd5b5090925090506101b5565b34801561017b57600080fd5b5061018461020a565b604080516001600160a01b039092168252519081900360200190f35b3480156101ac57600080fd5b5061018461022e565b6101be33610252565b61020033888787878080601f01602080910402602001604051908101604052809392919081815260200183838082843760009201919091525061025592505050565b5050505050505050565b7f000000000000000000000000000000000000000000000000000000000000000081565b7f000000000000000000000000000000000000000000000000000000000000000081565b50565b60008490506000816001600160a01b031663fc0c546a6040518163ffffffff1660e01b815260040160206040518083038186803b15801561029557600080fd5b505afa1580156102a9573d6000803e3d6000fd5b505050506040513d60208110156102bf57600080fd5b505190506102cc81610457565b156102e4576102dd82828787610501565b5050610451565b6000826001600160a01b031663de0e9a3e866040518263ffffffff1660e01b815260040180828152602001915050602060405180830381600087803b15801561032c57600080fd5b505af1158015610340573d6000803e3d6000fd5b505050506040513d602081101561035657600080fd5b505190506000610388837f0000000000000000000000000000000000000000000000000000000000000000843061088d565b9050600081116103c9576040805162461bcd60e51b81526020600482015260076024820152662727afa820a4a960c91b604482015290519081900360640190fd5b7f00000000000000000000000000000000000000000000000000000000000000006001600160a01b0316632e1a7d4d826040518263ffffffff1660e01b815260040180828152602001915050600060405180830381600087803b15801561042f57600080fd5b505af1158015610443573d6000803e3d6000fd5b5050505061020087826108a5565b50505050565b6000816001600160a01b031663c45a01556040518163ffffffff1660e01b815260040160206040518083038186803b15801561049257600080fd5b505afa9250505080156104b757506040513d60208110156104b257600080fd5b505160015b6104c3575060006104fc565b7f00000000000000000000000000000000000000000000000000000000000000006001600160a01b0316816001600160a01b0316149150505b919050565b6000836001600160a01b0316630dfe16816040518163ffffffff1660e01b815260040160206040518083038186803b15801561053c57600080fd5b505afa158015610550573d6000803e3d6000fd5b505050506040513d602081101561056657600080fd5b50516040805163d21220a760e01b815290519192506000916001600160a01b0387169163d21220a7916004808301926020929190829003018186803b1580156105ae57600080fd5b505afa1580156105c2573d6000803e3d6000fd5b505050506040513d60208110156105d857600080fd5b505160408051635dbd605960e01b8152600481018690526001600160a01b038881166024830152915192935090881691635dbd6059916044808201926020929091908290030181600087803b15801561063057600080fd5b505af1158015610644573d6000803e3d6000fd5b505050506040513d602081101561065a57600080fd5b50506040805163226bf2d160e21b8152306004820152815160009283926001600160a01b038a16926389afcb449260248084019391929182900301818787803b1580156106a657600080fd5b505af11580156106ba573d6000803e3d6000fd5b505050506040513d60408110156106d057600080fd5b50805160209091015190925090506000807f00000000000000000000000000000000000000000000000000000000000000006001600160a01b039081169087161461071c57848661071f565b85855b915091507f00000000000000000000000000000000000000000000000000000000000000006001600160a01b0316826001600160a01b031614610794576040805162461bcd60e51b81526020600482015260086024820152672120a22fa820a4a960c11b604482015290519081900360640190fd5b600080876001600160a01b03167f00000000000000000000000000000000000000000000000000000000000000006001600160a01b0316146107d75784866107da565b85855b9150915060006107ec8486843061088d565b9050600083820190507f00000000000000000000000000000000000000000000000000000000000000006001600160a01b0316632e1a7d4d826040518263ffffffff1660e01b815260040180828152602001915050600060405180830381600087803b15801561085b57600080fd5b505af115801561086f573d6000803e3d6000fd5b5050505061087d8c826108a5565b5050505050505050505050505050565b600061089c858585868661099d565b95945050505050565b604080516000808252602082019092526001600160a01b0384169083906040518082805190602001908083835b602083106108f15780518252601f1990920191602091820191016108d2565b6001836020036101000a03801982511681845116808217855250505050505090500191505060006040518083038185875af1925050503d8060008114610953576040519150601f19603f3d011682016040523d82523d6000602084013e610958565b606091505b50509050806109985760405162461bcd60e51b8152600401808060200182810382526023815260200180610f926023913960400191505060405180910390fd5b505050565b6000807f00000000000000000000000000000000000000000000000000000000000000006001600160a01b031663e6a4390588886040518363ffffffff1660e01b815260040180836001600160a01b03168152602001826001600160a01b031681526020019250505060206040518083038186803b158015610a1e57600080fd5b505afa158015610a32573d6000803e3d6000fd5b505050506040513d6020811015610a4857600080fd5b505190506001600160a01b038116610a6457600091505061089c565b8315610a7557610a75878286610cd6565b6000816001600160a01b0316630dfe16816040518163ffffffff1660e01b815260040160206040518083038186803b158015610ab057600080fd5b505afa158015610ac4573d6000803e3d6000fd5b505050506040513d6020811015610ada57600080fd5b505160408051630240bc6b60e21b8152905191925060009182916001600160a01b03861691630902f1ac91600480820192606092909190829003018186803b158015610b2557600080fd5b505afa158015610b39573d6000803e3d6000fd5b505050506040513d6060811015610b4f57600080fd5b5080516020909101516dffffffffffffffffffffffffffff91821693501690506000806001600160a01b038c811690861614610b8c578284610b8f565b83835b91509150610b9e8a8383610e40565b9650600080866001600160a01b03168e6001600160a01b031614610bc457886000610bc8565b6000895b604080516000808252602082019092529294509092506001600160a01b038a169163022c0d9f91859185918f9190506040518563ffffffff1660e01b815260040180858152602001848152602001836001600160a01b0316815260200180602001828103825283818151815260200191508051906020019080838360005b83811015610c5e578181015183820152602001610c46565b50505050905090810190601f168015610c8b5780820380516001836020036101000a031916815260200191505b5095505050505050600060405180830381600087803b158015610cad57600080fd5b505af1158015610cc1573d6000803e3d6000fd5b50505050505050505050505095945050505050565b604080516001600160a01b038481166024830152604480830185905283518084039091018152606490920183526020820180516001600160e01b031663a9059cbb60e01b178152925182516000946060949389169392918291908083835b60208310610d535780518252601f199092019160209182019101610d34565b6001836020036101000a0380198251168184511680821785525050505050509050019150506000604051808303816000865af19150503d8060008114610db5576040519150601f19603f3d011682016040523d82523d6000602084013e610dba565b606091505b5091509150818015610de8575080511580610de85750808060200190516020811015610de557600080fd5b50515b610e39576040805162461bcd60e51b815260206004820152601f60248201527f5472616e7366657248656c7065723a205452414e534645525f4641494c454400604482015290519081900360640190fd5b5050505050565b6000808411610e4e57600080fd5b600083118015610e5e5750600082115b610e6757600080fd5b6000610e75856103e5610eb4565b90506000610e838285610eb4565b90506000610e9d83610e97886103e8610eb4565b90610f16565b9050808281610ea857fe5b04979650505050505050565b600082610ec357506000610f10565b82820282848281610ed057fe5b0414610f0d5760405162461bcd60e51b8152600401808060200182810382526021815260200180610f716021913960400191505060405180910390fd5b90505b92915050565b600082820183811015610f0d576040805162461bcd60e51b815260206004820152601b60248201527f536166654d6174683a206164646974696f6e206f766572666c6f770000000000604482015290519081900360640190fdfe536166654d6174683a206d756c7469706c69636174696f6e206f766572666c6f775472616e7366657248656c7065723a204554485f5452414e534645525f4641494c4544a264697066735822122087593eb39a193a63e66387dc321d705ad6f8fea66072b11e38f53f1620ef966d64736f6c634300060c0033",
  "devdoc": {
    "kind": "dev",
    "methods": {},
    "version": 1
  },
  "userdoc": {
    "kind": "user",
    "methods": {},
    "version": 1
  },
  "storageLayout": {
    "storage": [],
    "types": null
  }
}