{
  "address": "0x256E8486d445b66b67c4aeE7b55dD502ed6A9e43",
  "abi": [
    {
      "inputs": [
        {
          "internalType": "address",
          "name": "__router",
          "type": "address"
        }
      ],
      "stateMutability": "nonpayable",
      "type": "constructor"
    },
    {
      "anonymous": false,
      "inputs": [
        {
          "indexed": false,
          "internalType": "address",
          "name": "poolWrapper",
          "type": "address"
        }
      ],
      "name": "AdapterCreated",
      "type": "event"
    },
    {
      "inputs": [],
      "name": "POOL_ADAPTER_BYTECODE_HASH",
      "outputs": [
        {
          "internalType": "bytes32",
          "name": "",
          "type": "bytes32"
        }
      ],
      "stateMutability": "view",
      "type": "function"
    },
    {
      "inputs": [
        {
          "internalType": "address",
          "name": "poolWrapper",
          "type": "address"
        }
      ],
      "name": "calculateAdapterAddress",
      "outputs": [
        {
          "internalType": "address",
          "name": "calculatedAddress",
          "type": "address"
        }
      ],
      "stateMutability": "view",
      "type": "function"
    },
    {
      "inputs": [
        {
          "internalType": "address",
          "name": "poolWrapper",
          "type": "address"
        }
      ],
      "name": "createAdapter",
      "outputs": [],
      "stateMutability": "nonpayable",
      "type": "function"
    },
    {
      "inputs": [
        {
          "internalType": "address",
          "name": "poolWrapper",
          "type": "address"
        }
      ],
      "name": "getAdapterAddress",
      "outputs": [
        {
          "internalType": "address",
          "name": "wrapperAddress",
          "type": "address"
        }
      ],
      "stateMutability": "nonpayable",
      "type": "function"
    },
    {
      "inputs": [],
      "name": "nextToken",
      "outputs": [
        {
          "internalType": "address",
          "name": "",
          "type": "address"
        }
      ],
      "stateMutability": "view",
      "type": "function"
    },
    {
      "inputs": [
        {
          "internalType": "address",
          "name": "",
          "type": "address"
        },
        {
          "internalType": "address",
          "name": "from",
          "type": "address"
        },
        {
          "internalType": "address",
          "name": "",
          "type": "address"
        },
        {
          "internalType": "uint256",
          "name": "amount",
          "type": "uint256"
        },
        {
          "internalType": "bytes",
          "name": "userData",
          "type": "bytes"
        },
        {
          "internalType": "bytes",
          "name": "",
          "type": "bytes"
        }
      ],
      "name": "tokensReceived",
      "outputs": [],
      "stateMutability": "nonpayable",
      "type": "function"
    },
    {
      "inputs": [],
      "name": "uniswapRouter",
      "outputs": [
        {
          "internalType": "contract IUniswapV2Router01",
          "name": "",
          "type": "address"
        }
      ],
      "stateMutability": "view",
      "type": "function"
    }
  ],
  "transactionHash": "0x82bc6cdd4e8f2c05065e10dcad805be6bf529f9fb7c67e53a550bd040ae0fd7e",
  "args": [
    "0x7a250d5630B4cF539739dF2C5dAcb4c659F2488D"
  ],
  "solcInputHash": "f8e8bb3d68a03bedfebe384b804318ef",
  "bytecode": "0x60a060405234801561001057600080fd5b50604051611ca3380380611ca38339818101604052602081101561003357600080fd5b5051604080516329965a1d60e01b815230600482018190527fb281fc8c12954d22544db45de3159a39272895b169a852b314f9cc762e44c53b602483015260448201529051731820a4b7618bde71dce8cdc73aab6c95905fad24916329965a1d91606480830192600092919082900301818387803b1580156100b457600080fd5b505af11580156100c8573d6000803e3d6000fd5b50505050606081901b6001600160601b0319166080526001600160a01b0316611ba56100fe6000398061031b5250611ba56000f3fe608060405234801561001057600080fd5b506004361061007c5760003560e01c80639240033a1161005b5780639240033a146101b75780639499ac54146101d1578063acf461f9146101d9578063dfbaee2e146101ff5761007c565b806223de29146100815780636f6654471461016d578063735de9f7146101af575b600080fd5b61016b600480360360c081101561009757600080fd5b6001600160a01b03823581169260208101358216926040820135909216916060820135919081019060a0810160808201356401000000008111156100da57600080fd5b8201836020820111156100ec57600080fd5b8035906020019184600183028401116401000000008311171561010e57600080fd5b91939092909160208101903564010000000081111561012c57600080fd5b82018360208201111561013e57600080fd5b8035906020019184600183028401116401000000008311171561016057600080fd5b509092509050610225565b005b6101936004803603602081101561018357600080fd5b50356001600160a01b031661027a565b604080516001600160a01b039092168252519081900360200190f35b610193610319565b6101bf61033d565b60408051918252519081900360200190f35b61019361036a565b61016b600480360360208110156101ef57600080fd5b50356001600160a01b0316610379565b6101936004803603602081101561021557600080fd5b50356001600160a01b0316610414565b61022e3361045d565b61027033888787878080601f01602080910402602001604051908101604052809392919081815260200183838082843760009201919091525061046092505050565b5050505050505050565b6040516000906001600160f81b03199030906001600160a01b038516906102a3602082016104b3565b6020820181038252601f19601f820116604052508051906020012060405160200180856001600160f81b0319168152600101846001600160a01b031660601b81526014018381526020018281526020019450505050506040516020818303038152906040528051906020012060001c9050919050565b7f000000000000000000000000000000000000000000000000000000000000000090565b60405161034c602082016104b3565b6020820181038252601f19601f820116604052508051906020012081565b6000546001600160a01b031690565b600080546001600160a01b0319166001600160a01b0383169081179091556040516103a3906104b3565b8190604051809103906000f59050801580156103c3573d6000803e3d6000fd5b5050600080546001600160a01b0319169055604080516001600160a01b038316815290517f26bdcb646ad71620005047421fb0169ac41ef04913ddf770ad9d6625555a4ffc9181900360200190a150565b600061041f8261027a565b9050610433816001600160a01b03166104ad565b6104585761044082610379565b610452816001600160a01b03166104ad565b61045857fe5b919050565b50565b6040805162461bcd60e51b815260206004820152601c60248201527f526563656976696e6720746f6b656e73206e6f7420616c6c6f77656400000000604482015290519081900360640190fd5b3b151590565b6116af806104c18339019056fe6101206040523480156200001257600080fd5b50604080516329965a1d60e01b815230600482018190527fb281fc8c12954d22544db45de3159a39272895b169a852b314f9cc762e44c53b602483015260448201529051731820a4b7618bde71dce8cdc73aab6c95905fad24916329965a1d91606480830192600092919082900301818387803b1580156200009357600080fd5b505af1158015620000a8573d6000803e3d6000fd5b5050505060003390506000816001600160a01b0316639499ac546040518163ffffffff1660e01b815260040160206040518083038186803b158015620000ed57600080fd5b505afa15801562000102573d6000803e3d6000fd5b505050506040513d60208110156200011957600080fd5b50516001600160601b0319606082901b1660805260408051637e062a3560e11b815290519192506000916001600160a01b0384169163fc0c546a916004808301926020929190829003018186803b1580156200017457600080fd5b505afa15801562000189573d6000803e3d6000fd5b505050506040513d6020811015620001a057600080fd5b50516001600160601b0319606082901b1660a05260408051630dfe168160e01b815290519192506001600160a01b03831691630dfe168191600480820192602092909190829003018186803b158015620001f957600080fd5b505afa1580156200020e573d6000803e3d6000fd5b505050506040513d60208110156200022557600080fd5b505160601b6001600160601b03191660c0526040805163d21220a760e01b815290516001600160a01b0383169163d21220a7916004808301926020929190829003018186803b1580156200027857600080fd5b505afa1580156200028d573d6000803e3d6000fd5b505050506040513d6020811015620002a457600080fd5b505160601b6001600160601b03191660e0526040805163735de9f760e01b815290516001600160a01b0385169163735de9f7916004808301926020929190829003018186803b158015620002f757600080fd5b505afa1580156200030c573d6000803e3d6000fd5b505050506040513d60208110156200032357600080fd5b5051604080516315ab88c960e31b815290516001600160a01b039092169163ad5c464891600480820192602092909190829003018186803b1580156200036857600080fd5b505afa1580156200037d573d6000803e3d6000fd5b505050506040513d60208110156200039457600080fd5b50516001600160601b031960609190911b166101005250505060805160601c60a05160601c60c05160601c60e05160601c6101005160601c61123f6200047060003980605f528060bc528061014d52806101c452508060e6528061053252806109ba5280610d45525080608952806103b0528061046452806106015280610641528061074b52806108b05280610d0f525080610488528061055c52806106a652806107e152806108df52806109895280610a515280610d905280610dca52508061050e5280610ad15280610b565280610b7d525061123f6000f3fe6080604052600436106100585760003560e01c806223de29146101f15780630dfe1681146102e857806316f0115b146103195780638d7e41a81461032e578063ac210cc714610370578063d21220a714610385576101ec565b366101ec577f00000000000000000000000000000000000000000000000000000000000000006001600160a01b03167f00000000000000000000000000000000000000000000000000000000000000006001600160a01b03161415801561011157507f00000000000000000000000000000000000000000000000000000000000000006001600160a01b03167f00000000000000000000000000000000000000000000000000000000000000006001600160a01b031614155b1561014b576040805162461bcd60e51b815260206004820152600560248201526409cde8aa8960db1b604482015290519081900360640190fd5b7f00000000000000000000000000000000000000000000000000000000000000006001600160a01b031663d0e30db0346040518263ffffffff1660e01b81526004016000604051808303818588803b1580156101a657600080fd5b505af11580156101ba573d6000803e3d6000fd5b50505050506101ea7f0000000000000000000000000000000000000000000000000000000000000000343361039a565b005b600080fd5b3480156101fd57600080fd5b506101ea600480360360c081101561021457600080fd5b6001600160a01b03823581169260208101358216926040820135909216916060820135919081019060a08101608082013564010000000081111561025757600080fd5b82018360208201111561026957600080fd5b8035906020019184600183028401116401000000008311171561028b57600080fd5b9193909290916020810190356401000000008111156102a957600080fd5b8201836020820111156102bb57600080fd5b803590602001918460018302840111640100000000831117156102dd57600080fd5b509092509050610417565b3480156102f457600080fd5b506102fd610462565b604080516001600160a01b039092168252519081900360200190f35b34801561032557600080fd5b506102fd610486565b34801561033a57600080fd5b5061035e6004803603604081101561035157600080fd5b50803590602001356104aa565b60408051918252519081900360200190f35b34801561037c57600080fd5b506102fd61050c565b34801561039157600080fd5b506102fd610530565b6000806103a78585610554565b915091506000807f00000000000000000000000000000000000000000000000000000000000000006001600160a01b0316876001600160a01b0316146103ee5783836103f1565b82845b91509150600061040183836108ac565b905061040d8682610acc565b5050505050505050565b61042033610c22565b61040d33888787878080601f016020809104026020016040519081016040528093929190818152602001838380828437600092019190915250610c2592505050565b7f000000000000000000000000000000000000000000000000000000000000000081565b7f000000000000000000000000000000000000000000000000000000000000000081565b60006107ca6104f16104be856107cd610ea8565b6104eb6104e66104d188623cda29610ea8565b6104de88623cda20610ea8565b899101610ea8565b610f08565b90610f5a565b816104f857fe5b049050806105065750600281045b92915050565b7f000000000000000000000000000000000000000000000000000000000000000081565b7f000000000000000000000000000000000000000000000000000000000000000081565b6000806000807f00000000000000000000000000000000000000000000000000000000000000006001600160a01b0316630902f1ac6040518163ffffffff1660e01b815260040160606040518083038186803b1580156105b357600080fd5b505afa1580156105c7573d6000803e3d6000fd5b505050506040513d60608110156105dd57600080fd5b5080516020909101516dffffffffffffffffffffffffffff918216935016905060007f00000000000000000000000000000000000000000000000000000000000000006001600160a01b0390811690881614610639578161063b565b825b905060007f00000000000000000000000000000000000000000000000000000000000000006001600160a01b0316886001600160a01b03161461067e5783610680565b825b9050600061068e83896104aa565b90508088039550886001600160a01b031663a9059cbb7f0000000000000000000000000000000000000000000000000000000000000000836040518363ffffffff1660e01b815260040180836001600160a01b0316815260200182815260200192505050602060405180830381600087803b15801561070c57600080fd5b505af1158015610720573d6000803e3d6000fd5b505050506040513d602081101561073657600080fd5b506107449050818484610f9c565b96506000807f00000000000000000000000000000000000000000000000000000000000000006001600160a01b03168b6001600160a01b03161461078a5788600061078e565b6000895b604080516000808252602082019283905263022c0d9f60e01b835260248201858152604483018590523060648401819052608060848501908152845160a486018190529799509597506001600160a01b037f0000000000000000000000000000000000000000000000000000000000000000169663022c0d9f968a968a969395939493919260c48601928190849084905b8381101561083757818101518382015260200161081f565b50505050905090810190601f1680156108645780820380516001836020036101000a031916815260200191505b5095505050505050600060405180830381600087803b15801561088657600080fd5b505af115801561089a573d6000803e3d6000fd5b50505050505050505050509250929050565b60007f00000000000000000000000000000000000000000000000000000000000000006001600160a01b031663a9059cbb7f0000000000000000000000000000000000000000000000000000000000000000856040518363ffffffff1660e01b815260040180836001600160a01b0316815260200182815260200192505050602060405180830381600087803b15801561094557600080fd5b505af1158015610959573d6000803e3d6000fd5b505050506040513d602081101561096f57600080fd5b50506040805163a9059cbb60e01b81526001600160a01b037f0000000000000000000000000000000000000000000000000000000000000000811660048301526024820185905291517f00000000000000000000000000000000000000000000000000000000000000009092169163a9059cbb916044808201926020929091908290030181600087803b158015610a0557600080fd5b505af1158015610a19573d6000803e3d6000fd5b505050506040513d6020811015610a2f57600080fd5b5050604080516335313c2160e11b815230600482015290516001600160a01b037f00000000000000000000000000000000000000000000000000000000000000001691636a6278429160248083019260209291908290030181600087803b158015610a9957600080fd5b505af1158015610aad573d6000803e3d6000fd5b505050506040513d6020811015610ac357600080fd5b50519392505050565b610b7b7f00000000000000000000000000000000000000000000000000000000000000006001600160a01b031663fc0c546a6040518163ffffffff1660e01b815260040160206040518083038186803b158015610b2857600080fd5b505afa158015610b3c573d6000803e3d6000fd5b505050506040513d6020811015610b5257600080fd5b50517f000000000000000000000000000000000000000000000000000000000000000083610fea565b7f00000000000000000000000000000000000000000000000000000000000000006001600160a01b0316632659985082846040518363ffffffff1660e01b815260040180838152602001826001600160a01b0316815260200192505050602060405180830381600087803b158015610bf257600080fd5b505af1158015610c06573d6000803e3d6000fd5b505050506040513d6020811015610c1c57600080fd5b50505050565b50565b60008490506000816001600160a01b031663fc0c546a6040518163ffffffff1660e01b815260040160206040518083038186803b158015610c6557600080fd5b505afa158015610c79573d6000803e3d6000fd5b505050506040513d6020811015610c8f57600080fd5b505160408051636f074d1f60e11b81526004810187905290519192506000916001600160a01b0385169163de0e9a3e91602480830192602092919082900301818787803b158015610cdf57600080fd5b505af1158015610cf3573d6000803e3d6000fd5b505050506040513d6020811015610d0957600080fd5b505190507f00000000000000000000000000000000000000000000000000000000000000006001600160a01b039081169083161480610d7957507f00000000000000000000000000000000000000000000000000000000000000006001600160a01b0316826001600160a01b0316145b15610d8e57610d8982828861039a565b610e9f565b7f00000000000000000000000000000000000000000000000000000000000000006001600160a01b0316826001600160a01b03161415610e68577f00000000000000000000000000000000000000000000000000000000000000006001600160a01b03166389afcb44876040518263ffffffff1660e01b815260040180826001600160a01b031681526020019150506040805180830381600087803b158015610e3657600080fd5b505af1158015610e4a573d6000803e3d6000fd5b505050506040513d6040811015610e6057600080fd5b50610e9f9050565b6040805162461bcd60e51b8152602060048201526007602482015266125b9d985b1a5960ca1b604482015290519081900360640190fd5b50505050505050565b600082610eb757506000610506565b82820282848281610ec457fe5b0414610f015760405162461bcd60e51b81526004018080602001828103825260218152602001806111e96021913960400191505060405180910390fd5b9392505050565b60006003821115610f4b575080600160028204015b81811015610f4557809150600281828581610f3457fe5b040181610f3d57fe5b049050610f1d565b50610f55565b8115610f55575060015b919050565b6000610f0183836040518060400160405280601e81526020017f536166654d6174683a207375627472616374696f6e206f766572666c6f7700008152506110f7565b600080610fab856103e5610ea8565b90506000610fb98285610ea8565b90506000610fd383610fcd886103e8610ea8565b9061118e565b9050808281610fde57fe5b04979650505050505050565b60408051636eb1769f60e11b81523060048201526001600160a01b0384811660248301529151839286169163dd62ed3e916044808301926020929190829003018186803b15801561103a57600080fd5b505afa15801561104e573d6000803e3d6000fd5b505050506040513d602081101561106457600080fd5b505110156110f257826001600160a01b031663095ea7b3836000196040518363ffffffff1660e01b815260040180836001600160a01b0316815260200182815260200192505050602060405180830381600087803b1580156110c557600080fd5b505af11580156110d9573d6000803e3d6000fd5b505050506040513d60208110156110ef57600080fd5b50505b505050565b600081848411156111865760405162461bcd60e51b81526004018080602001828103825283818151815260200191508051906020019080838360005b8381101561114b578181015183820152602001611133565b50505050905090810190601f1680156111785780820380516001836020036101000a031916815260200191505b509250505060405180910390fd5b505050900390565b600082820183811015610f01576040805162461bcd60e51b815260206004820152601b60248201527f536166654d6174683a206164646974696f6e206f766572666c6f770000000000604482015290519081900360640190fdfe536166654d6174683a206d756c7469706c69636174696f6e206f766572666c6f77a2646970667358221220491023463fb0443a4199b027b02aca6a7d866ac5b596fe0ef480914c69231c2864736f6c634300060c0033a2646970667358221220efa48a3d64275dfb6e495bbf6ca1f4ee89ca6e96126d42c188acd272f1f0ddc764736f6c634300060c0033",
  "devdoc": {
    "kind": "dev",
    "methods": {},
    "version": 1
  },
  "userdoc": {
    "kind": "user",
    "methods": {},
    "version": 1
  },
  "storageLayout": {
    "storage": [
      {
        "astId": 11340,
        "contract": "contracts/protocols/uniswap/UniswapPoolAdapterFactory.sol:UniswapPoolAdapterFactory",
        "label": "_nextToken",
        "offset": 0,
        "slot": "0",
        "type": "t_address"
      }
    ],
    "types": {
      "t_address": {
        "encoding": "inplace",
        "label": "address",
        "numberOfBytes": "20"
      }
    }
  }
}