{
  "address": "0xFA630d8A3396528425CdA2924E2A7b020Ad27717",
  "abi": [
    {
      "inputs": [],
      "stateMutability": "nonpayable",
      "type": "constructor"
    },
    {
      "anonymous": false,
      "inputs": [
        {
          "indexed": true,
          "internalType": "address",
          "name": "owner",
          "type": "address"
        },
        {
          "indexed": true,
          "internalType": "address",
          "name": "spender",
          "type": "address"
        },
        {
          "indexed": false,
          "internalType": "uint256",
          "name": "value",
          "type": "uint256"
        }
      ],
      "name": "Approval",
      "type": "event"
    },
    {
      "anonymous": false,
      "inputs": [
        {
          "indexed": true,
          "internalType": "address",
          "name": "operator",
          "type": "address"
        },
        {
          "indexed": true,
          "internalType": "address",
          "name": "tokenHolder",
          "type": "address"
        }
      ],
      "name": "AuthorizedOperator",
      "type": "event"
    },
    {
      "anonymous": false,
      "inputs": [
        {
          "indexed": true,
          "internalType": "address",
          "name": "operator",
          "type": "address"
        },
        {
          "indexed": true,
          "internalType": "address",
          "name": "from",
          "type": "address"
        },
        {
          "indexed": false,
          "internalType": "uint256",
          "name": "amount",
          "type": "uint256"
        },
        {
          "indexed": false,
          "internalType": "bytes",
          "name": "data",
          "type": "bytes"
        },
        {
          "indexed": false,
          "internalType": "bytes",
          "name": "operatorData",
          "type": "bytes"
        }
      ],
      "name": "Burned",
      "type": "event"
    },
    {
      "anonymous": false,
      "inputs": [
        {
          "indexed": true,
          "internalType": "address",
          "name": "target",
          "type": "address"
        },
        {
          "indexed": false,
          "internalType": "uint256",
          "name": "amount",
          "type": "uint256"
        }
      ],
      "name": "FlashMint",
      "type": "event"
    },
    {
      "anonymous": false,
      "inputs": [
        {
          "indexed": true,
          "internalType": "address",
          "name": "operator",
          "type": "address"
        },
        {
          "indexed": true,
          "internalType": "address",
          "name": "to",
          "type": "address"
        },
        {
          "indexed": false,
          "internalType": "uint256",
          "name": "amount",
          "type": "uint256"
        },
        {
          "indexed": false,
          "internalType": "bytes",
          "name": "data",
          "type": "bytes"
        },
        {
          "indexed": false,
          "internalType": "bytes",
          "name": "operatorData",
          "type": "bytes"
        }
      ],
      "name": "Minted",
      "type": "event"
    },
    {
      "anonymous": false,
      "inputs": [
        {
          "indexed": true,
          "internalType": "address",
          "name": "operator",
          "type": "address"
        },
        {
          "indexed": true,
          "internalType": "address",
          "name": "tokenHolder",
          "type": "address"
        }
      ],
      "name": "RevokedOperator",
      "type": "event"
    },
    {
      "anonymous": false,
      "inputs": [
        {
          "indexed": true,
          "internalType": "address",
          "name": "operator",
          "type": "address"
        },
        {
          "indexed": true,
          "internalType": "address",
          "name": "from",
          "type": "address"
        },
        {
          "indexed": true,
          "internalType": "address",
          "name": "to",
          "type": "address"
        },
        {
          "indexed": false,
          "internalType": "uint256",
          "name": "amount",
          "type": "uint256"
        },
        {
          "indexed": false,
          "internalType": "bytes",
          "name": "data",
          "type": "bytes"
        },
        {
          "indexed": false,
          "internalType": "bytes",
          "name": "operatorData",
          "type": "bytes"
        }
      ],
      "name": "Sent",
      "type": "event"
    },
    {
      "anonymous": false,
      "inputs": [
        {
          "indexed": true,
          "internalType": "address",
          "name": "from",
          "type": "address"
        },
        {
          "indexed": true,
          "internalType": "address",
          "name": "to",
          "type": "address"
        },
        {
          "indexed": false,
          "internalType": "uint256",
          "name": "value",
          "type": "uint256"
        }
      ],
      "name": "Transfer",
      "type": "event"
    },
    {
      "inputs": [],
      "name": "DOMAIN_SEPARATOR",
      "outputs": [
        {
          "internalType": "bytes32",
          "name": "",
          "type": "bytes32"
        }
      ],
      "stateMutability": "view",
      "type": "function"
    },
    {
      "inputs": [],
      "name": "PERMIT_TYPEHASH",
      "outputs": [
        {
          "internalType": "bytes32",
          "name": "",
          "type": "bytes32"
        }
      ],
      "stateMutability": "view",
      "type": "function"
    },
    {
      "inputs": [],
      "name": "WRAPPER_VERSION",
      "outputs": [
        {
          "internalType": "string",
          "name": "",
          "type": "string"
        }
      ],
      "stateMutability": "view",
      "type": "function"
    },
    {
      "inputs": [
        {
          "internalType": "address",
          "name": "holder",
          "type": "address"
        },
        {
          "internalType": "address",
          "name": "spender",
          "type": "address"
        }
      ],
      "name": "allowance",
      "outputs": [
        {
          "internalType": "uint256",
          "name": "",
          "type": "uint256"
        }
      ],
      "stateMutability": "view",
      "type": "function"
    },
    {
      "inputs": [
        {
          "internalType": "address",
          "name": "spender",
          "type": "address"
        },
        {
          "internalType": "uint256",
          "name": "value",
          "type": "uint256"
        }
      ],
      "name": "approve",
      "outputs": [
        {
          "internalType": "bool",
          "name": "",
          "type": "bool"
        }
      ],
      "stateMutability": "nonpayable",
      "type": "function"
    },
    {
      "inputs": [
        {
          "internalType": "address",
          "name": "operator",
          "type": "address"
        }
      ],
      "name": "authorizeOperator",
      "outputs": [],
      "stateMutability": "nonpayable",
      "type": "function"
    },
    {
      "inputs": [
        {
          "internalType": "uint256",
          "name": "amount",
          "type": "uint256"
        },
        {
          "internalType": "bytes",
          "name": "data",
          "type": "bytes"
        }
      ],
      "name": "burn",
      "outputs": [],
      "stateMutability": "nonpayable",
      "type": "function"
    },
    {
      "inputs": [],
      "name": "decimals",
      "outputs": [
        {
          "internalType": "uint8",
          "name": "",
          "type": "uint8"
        }
      ],
      "stateMutability": "pure",
      "type": "function"
    },
    {
      "inputs": [],
      "name": "defaultOperators",
      "outputs": [
        {
          "internalType": "address[]",
          "name": "operators",
          "type": "address[]"
        }
      ],
      "stateMutability": "view",
      "type": "function"
    },
    {
      "inputs": [],
      "name": "granularity",
      "outputs": [
        {
          "internalType": "uint256",
          "name": "",
          "type": "uint256"
        }
      ],
      "stateMutability": "view",
      "type": "function"
    },
    {
      "inputs": [
        {
          "internalType": "address",
          "name": "operator",
          "type": "address"
        },
        {
          "internalType": "address",
          "name": "tokenHolder",
          "type": "address"
        }
      ],
      "name": "isOperatorFor",
      "outputs": [
        {
          "internalType": "bool",
          "name": "",
          "type": "bool"
        }
      ],
      "stateMutability": "view",
      "type": "function"
    },
    {
      "inputs": [],
      "name": "name",
      "outputs": [
        {
          "internalType": "string",
          "name": "",
          "type": "string"
        }
      ],
      "stateMutability": "view",
      "type": "function"
    },
    {
      "inputs": [
        {
          "internalType": "address",
          "name": "",
          "type": "address"
        }
      ],
      "name": "nonces",
      "outputs": [
        {
          "internalType": "uint256",
          "name": "",
          "type": "uint256"
        }
      ],
      "stateMutability": "view",
      "type": "function"
    },
    {
      "inputs": [
        {
          "internalType": "address",
          "name": "account",
          "type": "address"
        },
        {
          "internalType": "uint256",
          "name": "amount",
          "type": "uint256"
        },
        {
          "internalType": "bytes",
          "name": "data",
          "type": "bytes"
        },
        {
          "internalType": "bytes",
          "name": "operatorData",
          "type": "bytes"
        }
      ],
      "name": "operatorBurn",
      "outputs": [],
      "stateMutability": "nonpayable",
      "type": "function"
    },
    {
      "inputs": [
        {
          "internalType": "address",
          "name": "sender",
          "type": "address"
        },
        {
          "internalType": "address",
          "name": "recipient",
          "type": "address"
        },
        {
          "internalType": "uint256",
          "name": "amount",
          "type": "uint256"
        },
        {
          "internalType": "bytes",
          "name": "data",
          "type": "bytes"
        },
        {
          "internalType": "bytes",
          "name": "operatorData",
          "type": "bytes"
        }
      ],
      "name": "operatorSend",
      "outputs": [],
      "stateMutability": "nonpayable",
      "type": "function"
    },
    {
      "inputs": [
        {
          "internalType": "address",
          "name": "operator",
          "type": "address"
        }
      ],
      "name": "revokeOperator",
      "outputs": [],
      "stateMutability": "nonpayable",
      "type": "function"
    },
    {
      "inputs": [
        {
          "internalType": "address",
          "name": "recipient",
          "type": "address"
        },
        {
          "internalType": "uint256",
          "name": "amount",
          "type": "uint256"
        },
        {
          "internalType": "bytes",
          "name": "data",
          "type": "bytes"
        }
      ],
      "name": "send",
      "outputs": [],
      "stateMutability": "nonpayable",
      "type": "function"
    },
    {
      "inputs": [],
      "name": "symbol",
      "outputs": [
        {
          "internalType": "string",
          "name": "",
          "type": "string"
        }
      ],
      "stateMutability": "view",
      "type": "function"
    },
    {
      "inputs": [],
      "name": "token",
      "outputs": [
        {
          "internalType": "contract ERC20",
          "name": "",
          "type": "address"
        }
      ],
      "stateMutability": "view",
      "type": "function"
    },
    {
      "inputs": [
        {
          "internalType": "address",
          "name": "",
          "type": "address"
        },
        {
          "internalType": "address",
          "name": "from",
          "type": "address"
        },
        {
          "internalType": "address",
          "name": "",
          "type": "address"
        },
        {
          "internalType": "uint256",
          "name": "amount",
          "type": "uint256"
        },
        {
          "internalType": "bytes",
          "name": "userData",
          "type": "bytes"
        },
        {
          "internalType": "bytes",
          "name": "",
          "type": "bytes"
        }
      ],
      "name": "tokensReceived",
      "outputs": [],
      "stateMutability": "nonpayable",
      "type": "function"
    },
    {
      "inputs": [
        {
          "internalType": "address",
          "name": "recipient",
          "type": "address"
        },
        {
          "internalType": "uint256",
          "name": "amount",
          "type": "uint256"
        }
      ],
      "name": "transfer",
      "outputs": [
        {
          "internalType": "bool",
          "name": "",
          "type": "bool"
        }
      ],
      "stateMutability": "nonpayable",
      "type": "function"
    },
    {
      "inputs": [
        {
          "internalType": "address",
          "name": "holder",
          "type": "address"
        },
        {
          "internalType": "address",
          "name": "recipient",
          "type": "address"
        },
        {
          "internalType": "uint256",
          "name": "amount",
          "type": "uint256"
        }
      ],
      "name": "transferFrom",
      "outputs": [
        {
          "internalType": "bool",
          "name": "",
          "type": "bool"
        }
      ],
      "stateMutability": "nonpayable",
      "type": "function"
    },
    {
      "inputs": [],
      "name": "totalSupply",
      "outputs": [
        {
          "internalType": "uint256",
          "name": "",
          "type": "uint256"
        }
      ],
      "stateMutability": "view",
      "type": "function"
    },
    {
      "inputs": [
        {
          "internalType": "address",
          "name": "tokenHolder",
          "type": "address"
        }
      ],
      "name": "balanceOf",
      "outputs": [
        {
          "internalType": "uint256",
          "name": "",
          "type": "uint256"
        }
      ],
      "stateMutability": "view",
      "type": "function"
    },
    {
      "inputs": [
        {
          "internalType": "uint256",
          "name": "amount",
          "type": "uint256"
        }
      ],
      "name": "wrap",
      "outputs": [
        {
          "internalType": "uint256",
          "name": "",
          "type": "uint256"
        }
      ],
      "stateMutability": "nonpayable",
      "type": "function"
    },
    {
      "inputs": [
        {
          "internalType": "uint256",
          "name": "value",
          "type": "uint256"
        },
        {
          "internalType": "uint256",
          "name": "deadline",
          "type": "uint256"
        },
        {
          "internalType": "uint256",
          "name": "nonce",
          "type": "uint256"
        },
        {
          "internalType": "uint8",
          "name": "v",
          "type": "uint8"
        },
        {
          "internalType": "bytes32",
          "name": "r",
          "type": "bytes32"
        },
        {
          "internalType": "bytes32",
          "name": "s",
          "type": "bytes32"
        }
      ],
      "name": "wrapWithPermit",
      "outputs": [
        {
          "internalType": "uint256",
          "name": "",
          "type": "uint256"
        }
      ],
      "stateMutability": "nonpayable",
      "type": "function"
    },
    {
      "inputs": [
        {
          "internalType": "uint256",
          "name": "amount",
          "type": "uint256"
        },
        {
          "internalType": "address",
          "name": "recipient",
          "type": "address"
        }
      ],
      "name": "wrapTo",
      "outputs": [
        {
          "internalType": "uint256",
          "name": "outputAmount",
          "type": "uint256"
        }
      ],
      "stateMutability": "nonpayable",
      "type": "function"
    },
    {
      "inputs": [
        {
          "internalType": "address",
          "name": "recipient",
          "type": "address"
        }
      ],
      "name": "gulp",
      "outputs": [
        {
          "internalType": "uint256",
          "name": "amount",
          "type": "uint256"
        }
      ],
      "stateMutability": "nonpayable",
      "type": "function"
    },
    {
      "inputs": [
        {
          "internalType": "uint256",
          "name": "amount",
          "type": "uint256"
        }
      ],
      "name": "unwrap",
      "outputs": [
        {
          "internalType": "uint256",
          "name": "unwrappedAmount",
          "type": "uint256"
        }
      ],
      "stateMutability": "nonpayable",
      "type": "function"
    },
    {
      "inputs": [
        {
          "internalType": "uint256",
          "name": "amount",
          "type": "uint256"
        },
        {
          "internalType": "address",
          "name": "recipient",
          "type": "address"
        }
      ],
      "name": "unwrapTo",
      "outputs": [
        {
          "internalType": "uint256",
          "name": "unwrappedAmount",
          "type": "uint256"
        }
      ],
      "stateMutability": "nonpayable",
      "type": "function"
    },
    {
      "inputs": [
        {
          "internalType": "address",
          "name": "target",
          "type": "address"
        },
        {
          "internalType": "uint256",
          "name": "amount",
          "type": "uint256"
        },
        {
          "internalType": "bytes",
          "name": "data",
          "type": "bytes"
        }
      ],
      "name": "flashMint",
      "outputs": [],
      "stateMutability": "nonpayable",
      "type": "function"
    },
    {
      "inputs": [
        {
          "internalType": "address",
          "name": "owner",
          "type": "address"
        },
        {
          "internalType": "address",
          "name": "spender",
          "type": "address"
        },
        {
          "internalType": "uint256",
          "name": "value",
          "type": "uint256"
        },
        {
          "internalType": "uint256",
          "name": "deadline",
          "type": "uint256"
        },
        {
          "internalType": "uint8",
          "name": "v",
          "type": "uint8"
        },
        {
          "internalType": "bytes32",
          "name": "r",
          "type": "bytes32"
        },
        {
          "internalType": "bytes32",
          "name": "s",
          "type": "bytes32"
        }
      ],
      "name": "permit",
      "outputs": [],
      "stateMutability": "nonpayable",
      "type": "function"
    }
  ],
  "bytecode": "0x60c06040523480156200001157600080fd5b50604080516329965a1d60e01b815230600482018190527fac7fbab5f54a3ca8194167523c6753bfeb96a445279294b6125b68cce2177054602483015260448201529051731820a4b7618bde71dce8cdc73aab6c95905fad24916329965a1d91606480830192600092919082900301818387803b1580156200009257600080fd5b505af1158015620000a7573d6000803e3d6000fd5b5050604080516329965a1d60e01b815230600482018190527faea199e31a596269b42cdafd93407f14436db6e4cad65417994c2eb37381e05a602483015260448201529051731820a4b7618bde71dce8cdc73aab6c95905fad2493506329965a1d9250606480830192600092919082900301818387803b1580156200012b57600080fd5b505af115801562000140573d6000803e3d6000fd5b5050604080516329965a1d60e01b815230600482018190527fb281fc8c12954d22544db45de3159a39272895b169a852b314f9cc762e44c53b602483015260448201529051731820a4b7618bde71dce8cdc73aab6c95905fad2493506329965a1d9250606480830192600092919082900301818387803b158015620001c457600080fd5b505af1158015620001d9573d6000803e3d6000fd5b505050506000336001600160a01b0316639499ac546040518163ffffffff1660e01b815260040160206040518083038186803b1580156200021957600080fd5b505afa1580156200022e573d6000803e3d6000fd5b505050506040513d60208110156200024557600080fd5b5051606081901b6001600160601b03191660805290506200027281620005c8602090811b620018ce17901c565b6040516020018082805190602001908083835b60208310620002a65780518252601f19909201916020918201910162000285565b51815160209384036101000a6000190180199092169116179052632d37373760e01b9190930190815260408051808303601b19018152600490920190528051620002fa955060039450920191905062000b95565b5062000311816200060760201b620018ff1760201c565b6040516020018082805190602001908083835b60208310620003455780518252601f19909201916020918201910162000324565b51815160209384036101000a60001901801990921691161790526237373760e81b9190930190815260408051808303601c1901815260039092019052805162000398955060049450920191905062000b95565b506200040e816001600160a01b031663313ce5676040518163ffffffff1660e01b815260040160206040518083038186803b158015620003d757600080fd5b505afa158015620003ec573d6000803e3d6000fd5b505050506040513d60208110156200040357600080fd5b505160ff1662000635565b604080516329965a1d60e01b815230600482018190527f25d236b07c82ae6ff3fc3a505a958b70ece0b81ba97eb926f710865e5b69a2cd602483015260448201529051731820a4b7618bde71dce8cdc73aab6c95905fad24916329965a1d91606480830192600092919082900301818387803b1580156200048e57600080fd5b505af1158015620004a3573d6000803e3d6000fd5b505050507f8b73c3c69bb8fe3d512ecc4cf759cc79239f7b179b0ffacaa9a75d522b39400f60036040518082805460018160011615610100020316600290048015620005295780601f106200050657610100808354040283529182019162000529565b820191906000526020600020905b81548152906001019060200180831162000514575b50506040805191829003822082820190915260018252603160f81b60209092019190915291507fc89efdaa54c0f20c7adf612882df0950f5a951637e0307cdcb4c672f298b8bc690506200057c6200063a565b6040805160208082019690965280820194909452606084019290925260808301523060a08084019190915281518084038201815260c09093019091528151919092012090525062000c31565b606080620005de836306fdde0360e01b6200063e565b9050805160001415620005ff57620005f6836200087e565b91505062000602565b90505b919050565b6060806200061d836395d89b4160e01b6200063e565b9050805160001415620005ff57620005f68362000898565b600055565b4690565b60408051600481526024810182526020810180516001600160e01b03166001600160e01b031985161781529151815160609360009385936001600160a01b03891693919290918291908083835b60208310620006ac5780518252601f1990920191602091820191016200068b565b6001836020036101000a038019825116818451168082178552505050505050905001915050600060405180830381855afa9150503d80600081146200070e576040519150601f19603f3d011682016040523d82523d6000602084013e62000713565b606091505b50915091508115806200072557508051155b156200074557604051806020016040528060008152509250505062000878565b805160201415620007825760008180602001905160208110156200076857600080fd5b505190506200077781620008b2565b935050505062000878565b6040815111156200086357808060200190516020811015620007a357600080fd5b8101908080516040519392919084640100000000821115620007c457600080fd5b908301906020820185811115620007da57600080fd5b8251640100000000811182820188101715620007f557600080fd5b82525081516020918201929091019080838360005b83811015620008245781810151838201526020016200080a565b50505050905090810190601f168015620008525780820380516001836020036101000a031916815260200191505b506040525050509250505062000878565b60405180602001604052806000815250925050505b92915050565b6060620005ff826028620009fb60201b620019281760201c565b6060620005ff826006620009fb60201b620019281760201c565b6040805160208082528183019092526060918291906020820181803683370190505090506000805b602081101562000958576000858260208110620008f357fe5b1a60f81b90507fff000000000000000000000000000000000000000000000000000000000000008116156200094e57808484815181106200093057fe5b60200101906001600160f81b031916908160001a9053506001909201915b50600101620008da565b506060816001600160401b03811180156200097257600080fd5b506040519080825280601f01601f1916602001820160405280156200099e576020820181803683370190505b50905060005b82811015620009f257838181518110620009ba57fe5b602001015160f81c60f81b828281518110620009d257fe5b60200101906001600160f81b031916908160001a905350600101620009a4565b50949350505050565b60606002820615801562000a0f5750600082115b801562000a1d575060288211155b62000a6f576040805162461bcd60e51b815260206004820152601e60248201527f41646472657373537472696e675574696c3a20494e56414c49445f4c454e0000604482015290519081900360640190fd5b6060826001600160401b038111801562000a8857600080fd5b506040519080825280601f01601f19166020018201604052801562000ab4576020820181803683370190505b5090506001600160a01b03841660005b6002850481101562000b6057600860138290030282901c600f600482901c1660f08216820362000af48262000b6a565b86856002028151811062000b0457fe5b60200101906001600160f81b031916908160001a90535062000b268162000b6a565b86856002026001018151811062000b3957fe5b60200101906001600160f81b031916908160001a905350506001909201915062000ac49050565b5090949350505050565b6000600a8260ff16101562000b8757506030810160f81b62000602565b506037810160f81b62000602565b828054600181600116156101000203166002900490600052602060002090601f016020900481019282601f1062000bd857805160ff191683800117855562000c08565b8280016001018555821562000c08579182015b8281111562000c0857825182559160200191906001019062000beb565b5062000c1692915062000c1a565b5090565b5b8082111562000c16576000815560010162000c1b565b60805160601c60a05161345662000c8f60003980610e4b5280611542525080610dbd528061104552806110f8528061119652806118215280611aea5280612ad95280612b585280612e605280612f365280612fde52506134566000f3fe608060405234801561001057600080fd5b50600436106101ef5760003560e01c80637ecebe001161010f578063dd62ed3e116100a2578063fad8b32a11610071578063fad8b32a1461094d578063fc0c546a14610973578063fc673c4f14610997578063fe9d930314610ad5576101ef565b8063dd62ed3e146108dd578063de0e9a3e1461090b578063ea598cb014610928578063ed9a5f5114610945576101ef565b80639bd9bbc6116100de5780639bd9bbc614610779578063a9059cbb14610832578063d505accf1461085e578063d95b6371146108af576101ef565b80637ecebe00146106ff5780638c28cbe814610725578063959b8c3f1461074b57806395d89b4114610771576101ef565b8063313ce567116101875780635dbd6059116101565780635dbd60591461052657806362ad1b831461055257806370a082311461069b578063796ab980146106c1576101ef565b8063313ce567146104755780633644e515146104935780633ea214651461049b578063556f0dc71461051e576101ef565b806318160ddd116101c357806318160ddd146103f157806323b872dd1461040b578063265998501461044157806330adf81f1461046d576101ef565b806223de29146101f457806306e48538146102dc57806306fdde0314610334578063095ea7b3146103b1575b600080fd5b6102da600480360360c081101561020a57600080fd5b6001600160a01b03823581169260208101358216926040820135909216916060820135919081019060a081016080820135600160201b81111561024c57600080fd5b82018360208201111561025e57600080fd5b803590602001918460018302840111600160201b8311171561027f57600080fd5b919390929091602081019035600160201b81111561029c57600080fd5b8201836020820111156102ae57600080fd5b803590602001918460018302840111600160201b831117156102cf57600080fd5b509092509050610b80565b005b6102e4610bd5565b60408051602080825283518183015283519192839290830191858101910280838360005b83811015610320578181015183820152602001610308565b505050509050019250505060405180910390f35b61033c610bda565b6040805160208082528351818301528351919283929083019185019080838360005b8381101561037657818101518382015260200161035e565b50505050905090810190601f1680156103a35780820380516001836020036101000a031916815260200191505b509250505060405180910390f35b6103dd600480360360408110156103c757600080fd5b506001600160a01b038135169060200135610c70565b604080519115158252519081900360200190f35b6103f9610c94565b60408051918252519081900360200190f35b6103dd6004803603606081101561042157600080fd5b506001600160a01b03813581169160208101359091169060400135610ca3565b6103f96004803603604081101561045757600080fd5b50803590602001356001600160a01b0316610dab565b6103f9610e20565b61047d610e44565b6040805160ff9092168252519081900360200190f35b6103f9610e49565b6102da600480360360608110156104b157600080fd5b6001600160a01b0382351691602081013591810190606081016040820135600160201b8111156104e057600080fd5b8201836020820111156104f257600080fd5b803590602001918460018302840111600160201b8311171561051357600080fd5b509092509050610e6d565b6103f9610f50565b6103f96004803603604081101561053c57600080fd5b50803590602001356001600160a01b0316610f5a565b6102da600480360360a081101561056857600080fd5b6001600160a01b03823581169260208101359091169160408201359190810190608081016060820135600160201b8111156105a257600080fd5b8201836020820111156105b457600080fd5b803590602001918460018302840111600160201b831117156105d557600080fd5b91908080601f0160208091040260200160405190810160405280939291908181526020018383808284376000920191909152509295949360208101935035915050600160201b81111561062757600080fd5b82018360208201111561063957600080fd5b803590602001918460018302840111600160201b8311171561065a57600080fd5b91908080601f016020809104026020016040519081016040528093929190818152602001838380828437600092019190915250929550610f6e945050505050565b6103f9600480360360208110156106b157600080fd5b50356001600160a01b0316610fd7565b6103f9600480360360c08110156106d757600080fd5b5080359060208101359060408101359060ff6060820135169060808101359060a00135610fea565b6103f96004803603602081101561071557600080fd5b50356001600160a01b0316611172565b6103f96004803603602081101561073b57600080fd5b50356001600160a01b0316611184565b6102da6004803603602081101561076157600080fd5b50356001600160a01b0316611264565b61033c61134e565b6102da6004803603606081101561078f57600080fd5b6001600160a01b0382351691602081013591810190606081016040820135600160201b8111156107be57600080fd5b8201836020820111156107d057600080fd5b803590602001918460018302840111600160201b831117156107f157600080fd5b91908080601f0160208091040260200160405190810160405280939291908181526020018383808284376000920191909152509295506113af945050505050565b6103dd6004803603604081101561084857600080fd5b506001600160a01b0381351690602001356113d9565b6102da600480360360e081101561087457600080fd5b506001600160a01b03813581169160208101359091169060408101359060608101359060ff6080820135169060a08101359060c0013561146c565b6103dd600480360360408110156108c557600080fd5b506001600160a01b0381358116916020013516611676565b6103f9600480360360408110156108f357600080fd5b506001600160a01b03813581169160200135166116c3565b6103f96004803603602081101561092157600080fd5b50356116ee565b6103f96004803603602081101561093e57600080fd5b5035611706565b61033c61171d565b6102da6004803603602081101561096357600080fd5b50356001600160a01b031661173e565b61097b61181f565b604080516001600160a01b039092168252519081900360200190f35b6102da600480360360808110156109ad57600080fd5b6001600160a01b0382351691602081013591810190606081016040820135600160201b8111156109dc57600080fd5b8201836020820111156109ee57600080fd5b803590602001918460018302840111600160201b83111715610a0f57600080fd5b91908080601f0160208091040260200160405190810160405280939291908181526020018383808284376000920191909152509295949360208101935035915050600160201b811115610a6157600080fd5b820183602082011115610a7357600080fd5b803590602001918460018302840111600160201b83111715610a9457600080fd5b91908080601f016020809104026020016040519081016040528093929190818152602001838380828437600092019190915250929550611843945050505050565b6102da60048036036040811015610aeb57600080fd5b81359190810190604081016020820135600160201b811115610b0c57600080fd5b820183602082011115610b1e57600080fd5b803590602001918460018302840111600160201b83111715610b3f57600080fd5b91908080601f0160208091040260200160405190810160405280939291908181526020018383808284376000920191909152509295506118a8945050505050565b610b8933611a8b565b610bcb33888787878080601f016020809104026020016040519081016040528093929190818152602001838380828437600092019190915250611a8e92505050565b5050505050505050565b606090565b60038054604080516020601f6002600019610100600188161502019095169490940493840181900481028201810190925282815260609390929091830182828015610c665780601f10610c3b57610100808354040283529160200191610c66565b820191906000526020600020905b815481529060010190602001808311610c4957829003601f168201915b5050505050905090565b600080610c7b611b10565b9050610c88818585611b14565b60019150505b92915050565b6000610c9e611b76565b905090565b600080610cae611b10565b9050610cdc818686866040518060200160405280600081525060405180602001604052806000815250611b7c565b610d08818686866040518060200160405280600081525060405180602001604052806000815250611da9565b60408051808201825260128152714552433737373a204f5645522d414c4c4f5760701b6020808301919091526001600160a01b03808916600090815260078352848120918616815291529190912054610d709187918491610d6b919088906120cb565b611b14565b610d9e8186868660405180602001604052806000815250604051806020016040528060008152506000612162565b60019150505b9392505050565b600080610db6611b10565b9050610de47f00000000000000000000000000000000000000000000000000000000000000008230876123f3565b610ded84612550565b9150610e1983836040518060200160405280600081525060405180602001604052806000815250612562565b5092915050565b7f6e71edae12b1b97f4d1f60370fef10105fa2faae0126114a169c64845d6126c981565b601290565b7f000000000000000000000000000000000000000000000000000000000000000081565b610ebc848484848080601f016020809104026020016040519081016040528093929190818152602001838380828437600092018290525060408051602081019091529081529250612562915050565b610f0b848484848080601f0160208091040260200160405190810160405280939291908181526020018383808284376000920182905250604080516020810190915290815292506127e3915050565b6040805184815290516001600160a01b038616917f5b9ea35ccc2de5176fed8512b7b27b62fd5c98bce089f76ef67287ffa759db9d919081900360200190a250505050565b6000610c9e612a91565b6000610da483610f68611b10565b84612a9d565b610f7f610f79611b10565b86611676565b610fc1576040805162461bcd60e51b815260206004820152600e60248201526d22a9219b9b9b90272796a7a822a960911b604482015290519081900360640190fd5b610fd085858585856001612aff565b5050505050565b6000610fe282612b36565b90505b919050565b600080610ff5611b10565b6040805163d505accf60e01b81526001600160a01b038381166004830152306024830152604482018c9052606482018b905260ff8916608483015260a4820188905260c4820187905291519293507f00000000000000000000000000000000000000000000000000000000000000009091169163d505accf9160e48082019260009290919082900301818387803b15801561108f57600080fd5b505af19250505080156110a0575060015b61115c57604080516323f2ebc360e21b81526001600160a01b03838116600483015230602483015260448201899052606482018a90526001608483015260ff881660a483015260c4820187905260e4820186905291517f000000000000000000000000000000000000000000000000000000000000000090921691638fcbaf0c916101048082019260009290919082900301818387803b15801561114357600080fd5b505af1158015611157573d6000803e3d6000fd5b505050505b6111668189612b51565b98975050505050505050565b60086020526000908152604090205481565b6000611238611191611b76565b6112327f00000000000000000000000000000000000000000000000000000000000000006001600160a01b03166370a08231306040518263ffffffff1660e01b815260040180826001600160a01b0316815260200191505060206040518083038186803b15801561120157600080fd5b505afa158015611215573d6000803e3d6000fd5b505050506040513d602081101561122b57600080fd5b5051612550565b90612bb4565b9050610fe582826040518060200160405280600081525060405180602001604052806000815250612562565b806001600160a01b0316611276611b10565b6001600160a01b031614156112be576040805162461bcd60e51b815260206004820152600960248201526829a2a62316a7a822a960b91b604482015290519081900360640190fd5b6001600660006112cc611b10565b6001600160a01b03908116825260208083019390935260409182016000908120918616815292529020805460ff191691151591909117905561130c611b10565b6001600160a01b0316816001600160a01b03167ff4caeb2d6ca8932a215a353d0703c326ec2d81fc68170f320eb2ab49e9df61f960405160405180910390a350565b60048054604080516020601f6002600019610100600188161502019095169490940493840181900481028201810190925282815260609390929091830182828015610c665780601f10610c3b57610100808354040283529160200191610c66565b6113d46113ba611b10565b848484604051806020016040528060008152506001612aff565b505050565b6000806113e4611b10565b9050611412818286866040518060200160405280600081525060405180602001604052806000815250611b7c565b61143e818286866040518060200160405280600081525060405180602001604052806000815250611da9565b610c888182868660405180602001604052806000815250604051806020016040528060008152506000612162565b428410156114ab576040805162461bcd60e51b81526020600482015260076024820152661156141254915160ca1b604482015290519081900360640190fd5b6001600160a01b0380881660008181526008602090815260408083208054600180820190925582517f6e71edae12b1b97f4d1f60370fef10105fa2faae0126114a169c64845d6126c98186015280840196909652958c166060860152608085018b905260a085019590955260c08085018a90528151808603909101815260e08501825280519083012061190160f01b6101008601527f00000000000000000000000000000000000000000000000000000000000000006101028601526101228086019190915281518086039091018152610142850180835281519184019190912090849052610162850180835281905260ff89166101828601526101a285018890526101c285018790529051909492936101e28082019392601f1981019281900390910190855afa1580156115e4573d6000803e3d6000fd5b5050604051601f1901519150506001600160a01b0381161580159061161a5750886001600160a01b0316816001600160a01b0316145b611660576040805162461bcd60e51b81526020600482015260126024820152715065726d697420494e56414c49445f53494760701b604482015290519081900360640190fd5b61166b898989611b14565b505050505050505050565b6000816001600160a01b0316836001600160a01b03161480610da45750506001600160a01b0390811660009081526006602090815260408083209490931682529290925290205460ff1690565b6001600160a01b03918216600090815260076020908152604080832093909416825291909152205490565b6000806116f9611b10565b9050610da4838283612a9d565b600080611711611b10565b9050610da48184612b51565b604051806040016040528060058152602001640302e322e360dc1b81525081565b611746611b10565b6001600160a01b0316816001600160a01b03161415611798576040805162461bcd60e51b815260206004820152600960248201526829a2a62316a7a822a960b91b604482015290519081900360640190fd5b600660006117a4611b10565b6001600160a01b03908116825260208083019390935260409182016000908120918516815292529020805460ff191690556117dd611b10565b6001600160a01b0316816001600160a01b03167f50546e66e5f44d728365dc3908c63bc5cfeeab470722c1677e3073a6ac294aa160405160405180910390a350565b7f000000000000000000000000000000000000000000000000000000000000000081565b61185461184e611b10565b85611676565b611896576040805162461bcd60e51b815260206004820152600e60248201526d22a9219b9b9b90272796a7a822a960911b604482015290519081900360640190fd5b6118a2848484846127e3565b50505050565b6118ca6118b3611b10565b8383604051806020016040528060008152506127e3565b5050565b6060806118e2836306fdde0360e01b612bf6565b9050805160001415610fe2576118f783612e1c565b915050610fe5565b606080611913836395d89b4160e01b612bf6565b9050805160001415610fe2576118f783612e29565b60606002820615801561193b5750600082115b8015611948575060288211155b611999576040805162461bcd60e51b815260206004820152601e60248201527f41646472657373537472696e675574696c3a20494e56414c49445f4c454e0000604482015290519081900360640190fd5b60608267ffffffffffffffff811180156119b257600080fd5b506040519080825280601f01601f1916602001820160405280156119dd576020820181803683370190505b5090506001600160a01b03841660005b60028504811015611a8157600860138290030282901c600f600482901c1660f082168203611a1a82612e36565b868560020281518110611a2957fe5b60200101906001600160f81b031916908160001a905350611a4981612e36565b868560020260010181518110611a5b57fe5b60200101906001600160f81b031916908160001a90535050600190920191506119ed9050565b5090949350505050565b50565b6001600160a01b0384163014611aae57611aa9848484612e5e565b6118a2565b611ad8308360405180602001604052806000815250604051806020016040528060008152506127e3565b6000611ae3836130f9565b9050610fd07f00000000000000000000000000000000000000000000000000000000000000008583613112565b3390565b6001600160a01b03808416600081815260076020908152604080832094871680845294825291829020859055815185815291517f8c5be1e5ebec7d5bd14f71427d1e84f3dd0314c0f7b2291e5b200ac8c7c3b9259281900390910190a3505050565b60025490565b6040805163555ddc6560e11b81526001600160a01b03871660048201527f29ddb589b1fb5fc7cf394961c1adf5f8c6454761adf795e67fe149f658abe89560248201529051600091731820a4b7618bde71dce8cdc73aab6c95905fad249163aabbb8ca91604480820192602092909190829003018186803b158015611c0057600080fd5b505afa158015611c14573d6000803e3d6000fd5b505050506040513d6020811015611c2a57600080fd5b505190506001600160a01b03811615611da057806001600160a01b03166375ab97828888888888886040518763ffffffff1660e01b815260040180876001600160a01b03168152602001866001600160a01b03168152602001856001600160a01b031681526020018481526020018060200180602001838103835285818151815260200191508051906020019080838360005b83811015611cd5578181015183820152602001611cbd565b50505050905090810190601f168015611d025780820380516001836020036101000a031916815260200191505b50838103825284518152845160209182019186019080838360005b83811015611d35578181015183820152602001611d1d565b50505050905090810190601f168015611d625780820380516001836020036101000a031916815260200191505b5098505050505050505050600060405180830381600087803b158015611d8757600080fd5b505af1158015611d9b573d6000803e3d6000fd5b505050505b50505050505050565b6001600160a01b038516611df8576040805162461bcd60e51b81526020600482015260116024820152704552433737373a2053454e442d5a45524f60781b604482015290519081900360640190fd5b6001600160a01b038416611e47576040805162461bcd60e51b81526020600482015260116024820152704552433737373a2053454e442d5a45524f60781b604482015290519081900360640190fd5b611e4f612a91565b8381611e5757fe5b0615611e9d576040805162461bcd60e51b815260206004820152601060248201526f22a9219b9b9b9d102120a216a3a920a760811b604482015290519081900360640190fd5b611ea9868686866118a2565b60408051808201825260138152724552433737373a2053454e442d45584345535360681b6020808301919091526001600160a01b038816600090815260019091529190912054611efa9185906120cb565b6001600160a01b038087166000908152600160205260408082209390935590861681522054611f299084613275565b60016000866001600160a01b03166001600160a01b0316815260200190815260200160002081905550836001600160a01b0316856001600160a01b0316876001600160a01b03167f06b541ddaa720db2b10a4d0cdac39b8d360425fc073085fac19bc82614677987868686604051808481526020018060200180602001838103835285818151815260200191508051906020019080838360005b83811015611fdb578181015183820152602001611fc3565b50505050905090810190601f1680156120085780820380516001836020036101000a031916815260200191505b50838103825284518152845160209182019186019080838360005b8381101561203b578181015183820152602001612023565b50505050905090810190601f1680156120685780820380516001836020036101000a031916815260200191505b509550505050505060405180910390a4836001600160a01b0316856001600160a01b03167fddf252ad1be2c89b69c2b068fc378daa952ba7f163c4a11628f55a4df523b3ef856040518082815260200191505060405180910390a3505050505050565b6000818484111561215a5760405162461bcd60e51b81526004018080602001828103825283818151815260200191508051906020019080838360005b8381101561211f578181015183820152602001612107565b50505050905090810190601f16801561214c5780820380516001836020036101000a031916815260200191505b509250505060405180910390fd5b505050900390565b6040805163555ddc6560e11b81526001600160a01b03871660048201527fb281fc8c12954d22544db45de3159a39272895b169a852b314f9cc762e44c53b60248201529051600091731820a4b7618bde71dce8cdc73aab6c95905fad249163aabbb8ca91604480820192602092909190829003018186803b1580156121e657600080fd5b505afa1580156121fa573d6000803e3d6000fd5b505050506040513d602081101561221057600080fd5b505190506001600160a01b0381161561238957806001600160a01b03166223de298989898989896040518763ffffffff1660e01b815260040180876001600160a01b03168152602001866001600160a01b03168152602001856001600160a01b031681526020018481526020018060200180602001838103835285818151815260200191508051906020019080838360005b838110156122ba5781810151838201526020016122a2565b50505050905090810190601f1680156122e75780820380516001836020036101000a031916815260200191505b50838103825284518152845160209182019186019080838360005b8381101561231a578181015183820152602001612302565b50505050905090810190601f1680156123475780820380516001836020036101000a031916815260200191505b5098505050505050505050600060405180830381600087803b15801561236c57600080fd5b505af1158015612380573d6000803e3d6000fd5b50505050610bcb565b8115610bcb576123a1866001600160a01b03166132cf565b15610bcb576040805162461bcd60e51b815260206004820152601960248201527f4e4f5420455243373737546f6b656e73526563697069656e7400000000000000604482015290519081900360640190fd5b604080516001600160a01b0385811660248301528481166044830152606480830185905283518084039091018152608490920183526020820180516001600160e01b03166323b872dd60e01b17815292518251600094606094938a169392918291908083835b602083106124785780518252601f199092019160209182019101612459565b6001836020036101000a0380198251168184511680821785525050505050509050019150506000604051808303816000865af19150503d80600081146124da576040519150601f19603f3d011682016040523d82523d6000602084013e6124df565b606091505b509150915081801561250d57508051158061250d575080806020019051602081101561250a57600080fd5b50515b6125485760405162461bcd60e51b81526004018080602001828103825260248152602001806133fd6024913960400191505060405180910390fd5b505050505050565b600061255a612a91565b909102919050565b6001600160a01b0384166125b1576040805162461bcd60e51b81526020600482015260116024820152704552433737373a204d494e542d5a45524f60781b604482015290519081900360640190fd5b6125b9612a91565b83816125c157fe5b0615612607576040805162461bcd60e51b815260206004820152601060248201526f22a9219b9b9b9d102120a216a3a920a760811b604482015290519081900360640190fd5b6000612611611b10565b905061262081600087876118a2565b60025461262d9085613275565b6002556001600160a01b0385166000908152600160205260409020546126539085613275565b6001600160a01b03861660009081526001602052604081209190915561267f9082908787878784612162565b846001600160a01b0316816001600160a01b03167f2fe5be0146f74c5bce36c0b80911af6c7d86ff27e89d5cfa61fc681327954e5d868686604051808481526020018060200180602001838103835285818151815260200191508051906020019080838360005b838110156126fe5781810151838201526020016126e6565b50505050905090810190601f16801561272b5780820380516001836020036101000a031916815260200191505b50838103825284518152845160209182019186019080838360005b8381101561275e578181015183820152602001612746565b50505050905090810190601f16801561278b5780820380516001836020036101000a031916815260200191505b509550505050505060405180910390a36040805185815290516001600160a01b038716916000917fddf252ad1be2c89b69c2b068fc378daa952ba7f163c4a11628f55a4df523b3ef9181900360200190a35050505050565b6001600160a01b038416612832576040805162461bcd60e51b81526020600482015260116024820152704552433737373a204255524e2d5a45524f60781b604482015290519081900360640190fd5b61283a612a91565b838161284257fe5b0615612888576040805162461bcd60e51b815260206004820152601060248201526f22a9219b9b9b9d102120a216a3a920a760811b604482015290519081900360640190fd5b6000612892611b10565b90506128a181866000876118a2565b6128b081866000878787611b7c565b60408051808201825260138152724552433737373a204255524e2d45584345535360681b6020808301919091526001600160a01b0388166000908152600190915291909120546129019186906120cb565b6001600160a01b0386166000908152600160205260409020556002546129279085612bb4565b600281905550846001600160a01b0316816001600160a01b03167fa78a9be3a7b862d26933ad85fb11d80ef66b8f972d7cbba06621d583943a4098868686604051808481526020018060200180602001838103835285818151815260200191508051906020019080838360005b838110156129ac578181015183820152602001612994565b50505050905090810190601f1680156129d95780820380516001836020036101000a031916815260200191505b50838103825284518152845160209182019186019080838360005b83811015612a0c5781810151838201526020016129f4565b50505050905090810190601f168015612a395780820380516001836020036101000a031916815260200191505b509550505050505060405180910390a36040805185815290516000916001600160a01b038816917fddf252ad1be2c89b69c2b068fc378daa952ba7f163c4a11628f55a4df523b3ef9181900360200190a35050505050565b600054601203600a0a90565b6000612ac9838560405180602001604052806000815250604051806020016040528060008152506127e3565b612ad2846130f9565b9050610da47f00000000000000000000000000000000000000000000000000000000000000008383613112565b6000612b09611b10565b9050612b19818888888888611b7c565b612b27818888888888611da9565b611da081888888888888612162565b6001600160a01b031660009081526001602052604090205490565b6000612b7f7f00000000000000000000000000000000000000000000000000000000000000008430856123f3565b612b8882612550565b9050610c8e83826040518060200160405280600081525060405180602001604052806000815250612562565b6000610da483836040518060400160405280601e81526020017f536166654d6174683a207375627472616374696f6e206f766572666c6f7700008152506120cb565b60408051600481526024810182526020810180516001600160e01b03166001600160e01b031985161781529151815160609360009385936001600160a01b03891693919290918291908083835b60208310612c625780518252601f199092019160209182019101612c43565b6001836020036101000a038019825116818451168082178552505050505050905001915050600060405180830381855afa9150503d8060008114612cc2576040519150601f19603f3d011682016040523d82523d6000602084013e612cc7565b606091505b5091509150811580612cd857508051155b15612cf6576040518060200160405280600081525092505050610c8e565b805160201415612d2e576000818060200190516020811015612d1757600080fd5b50519050612d24816132d5565b9350505050610c8e565b604081511115612e0457808060200190516020811015612d4d57600080fd5b8101908080516040519392919084600160201b821115612d6c57600080fd5b908301906020820185811115612d8157600080fd5b8251600160201b811182820188101715612d9a57600080fd5b82525081516020918201929091019080838360005b83811015612dc7578181015183820152602001612daf565b50505050905090810190601f168015612df45780820380516001836020036101000a031916815260200191505b5060405250505092505050610c8e565b50506040805160208101909152600081529392505050565b6060610fe2826028611928565b6060610fe2826006611928565b6000600a8260ff161015612e5157506030810160f81b610fe5565b506037810160f81b610fe5565b7f00000000000000000000000000000000000000000000000000000000000000006001600160a01b0316836001600160a01b031663fc0c546a6040518163ffffffff1660e01b815260040160206040518083038186803b158015612ec157600080fd5b505afa158015612ed5573d6000803e3d6000fd5b505050506040513d6020811015612eeb57600080fd5b50516001600160a01b031614612f32576040805162461bcd60e51b81526020600482015260076024820152661253959053125160ca1b604482015290519081900360640190fd5b60007f00000000000000000000000000000000000000000000000000000000000000006001600160a01b03166370a08231306040518263ffffffff1660e01b815260040180826001600160a01b0316815260200191505060206040518083038186803b158015612fa157600080fd5b505afa158015612fb5573d6000803e3d6000fd5b505050506040513d6020811015612fcb57600080fd5b50519050612fda848084613112565b60007f00000000000000000000000000000000000000000000000000000000000000006001600160a01b03166370a08231306040518263ffffffff1660e01b815260040180826001600160a01b0316815260200191505060206040518083038186803b15801561304957600080fd5b505afa15801561305d573d6000803e3d6000fd5b505050506040513d602081101561307357600080fd5b50519050600061308b6130868385612bb4565b612550565b9050600081116130cf576040805162461bcd60e51b815260206004820152600a6024820152694e4f2d5550475241444560b01b604482015290519081900360640190fd5b61254885826040518060200160405280600081525060405180602001604052806000815250612562565b6000613103612a91565b828161310b57fe5b0492915050565b604080516001600160a01b038481166024830152604480830185905283518084039091018152606490920183526020820180516001600160e01b031663a9059cbb60e01b178152925182516000946060949389169392918291908083835b6020831061318f5780518252601f199092019160209182019101613170565b6001836020036101000a0380198251168184511680821785525050505050509050019150506000604051808303816000865af19150503d80600081146131f1576040519150601f19603f3d011682016040523d82523d6000602084013e6131f6565b606091505b5091509150818015613224575080511580613224575080806020019051602081101561322157600080fd5b50515b610fd0576040805162461bcd60e51b815260206004820152601f60248201527f5472616e7366657248656c7065723a205452414e534645525f4641494c454400604482015290519081900360640190fd5b600082820183811015610da4576040805162461bcd60e51b815260206004820152601b60248201527f536166654d6174683a206164646974696f6e206f766572666c6f770000000000604482015290519081900360640190fd5b3b151590565b6040805160208082528183019092526060918291906020820181803683370190505090506000805b602081101561335e57600085826020811061331457fe5b1a60f81b90506001600160f81b0319811615613355578084848151811061333757fe5b60200101906001600160f81b031916908160001a9053506001909201915b506001016132fd565b5060608167ffffffffffffffff8111801561337857600080fd5b506040519080825280601f01601f1916602001820160405280156133a3576020820181803683370190505b50905060005b828110156133f3578381815181106133bd57fe5b602001015160f81c60f81b8282815181106133d457fe5b60200101906001600160f81b031916908160001a9053506001016133a9565b5094935050505056fe5472616e7366657248656c7065723a205452414e534645525f46524f4d5f4641494c4544a2646970667358221220cd826a4ff7b4f6fcf5b21603437ae350b3b7ede24313414dac167ada408c59dd64736f6c634300060c0033",
  "immutableReferences": {
    "15022": [
      {
        "length": 32,
        "start": 3517
      },
      {
        "length": 32,
        "start": 4165
      },
      {
        "length": 32,
        "start": 4344
      },
      {
        "length": 32,
        "start": 4502
      },
      {
        "length": 32,
        "start": 6177
      },
      {
        "length": 32,
        "start": 6890
      },
      {
        "length": 32,
        "start": 10969
      },
      {
        "length": 32,
        "start": 11096
      },
      {
        "length": 32,
        "start": 11872
      },
      {
        "length": 32,
        "start": 12086
      },
      {
        "length": 32,
        "start": 12254
      }
    ],
    "15030": [
      {
        "length": 32,
        "start": 3659
      },
      {
        "length": 32,
        "start": 5442
      }
    ]
  },
  "source": "// SPDX-License-Identifier: MIT\npragma solidity >=0.6.2 <0.7.0;\n\nimport \"@openzeppelin/contracts/math/SafeMath.sol\";\nimport \"@openzeppelin/contracts/token/ERC20/ERC20.sol\";\nimport \"@openzeppelin/contracts/token/ERC777/IERC777Recipient.sol\";\nimport \"@uniswap/lib/contracts/libraries/SafeERC20Namer.sol\";\nimport \"@uniswap/lib/contracts/libraries/TransferHelper.sol\";\nimport \"../Receiver.sol\";\nimport \"./ERC777WithGranularity.sol\";\nimport \"./IWrapperFactory.sol\";\nimport \"./IWrapped777.sol\";\nimport \"./IPermit.sol\";\n\ncontract Wrapped777 is ERC777WithGranularity, Receiver, IWrapped777 {\n  using SafeMath for uint256;\n\n  string public constant WRAPPER_VERSION = \"0.2.0\";\n\n  ERC20 public immutable override token;\n\n  event FlashMint(address indexed target, uint256 amount);\n\n  ////////// For permit:\n  bytes32 public immutable DOMAIN_SEPARATOR;\n  // keccak256(\"Permit(address owner,address spender,uint256 value,uint256 nonce,uint256 deadline)\");\n  bytes32 public constant PERMIT_TYPEHASH = 0x6e71edae12b1b97f4d1f60370fef10105fa2faae0126114a169c64845d6126c9;\n  mapping(address => uint) public nonces;\n\n  constructor() public {\n    address _token = IWrapperFactory(msg.sender).nextToken();\n    token = ERC20(_token);\n\n    _name = string(abi.encodePacked(SafeERC20Namer.tokenName(_token), \"-777\"));\n    _symbol = string(abi.encodePacked(SafeERC20Namer.tokenSymbol(_token), \"777\"));\n\n    setDecimals(ERC20(_token).decimals());\n\n    ERC1820_REGISTRY.setInterfaceImplementer(address(this), keccak256(\"Wrapped777\"), address(this));\n\n    DOMAIN_SEPARATOR = keccak256(\n      abi.encode(\n        keccak256('EIP712Domain(string name,string version,uint256 chainId,address verifyingContract)'),\n        keccak256(bytes(_name)),\n        keccak256(bytes('1')),\n        chainId(),\n        address(this)\n      )\n    );\n  }\n\n  function totalSupply() public view override(ERC777WithGranularity, IERC777) returns (uint256) {\n    return ERC777WithGranularity.totalSupply();\n  }\n\n  function balanceOf(address tokenHolder) public view override(ERC777WithGranularity, IERC777) returns (uint256) {\n    return ERC777WithGranularity.balanceOf(tokenHolder);\n  }\n\n  /**\n   * @dev Wraps ERC-20 tokens from the caller and sends wrapped tokens to the caller\n   *\n   * @param amount Number of tokens to wrap\n   * @return Amount of wrapper tokens minted (same as the input amount if the token has 18 decimals)\n   */\n  function wrap(uint256 amount) external override returns (uint256) {\n    address sender = _msgSender();\n    return _wrap(sender, amount);\n  }\n\n  /**\n   * @dev Same as wrap(), but approves the token transfer using a ERC2612 permit signature\n   *\n   * @param value Number of tokens to wrap\n   * @return Amount of wrapper tokens minted (same as the input amount if the token has 18 decimals)\n   */\n  function wrapWithPermit(uint value, uint deadline, uint256 nonce, uint8 v, bytes32 r, bytes32 s) external returns (uint256) {\n    address sender = _msgSender();\n    try IPermit(address(token)).permit(sender, address(this), value, deadline, v, r, s) {\n    } catch {\n      // Dai\n      IPermit(address(token)).permit(sender, address(this), nonce, deadline, true /* allowed */, v, r, s);\n    }\n\n    return _wrap(sender, value);\n  }\n\n  function _wrap(address sender, uint256 amount) private returns (uint256 outputAmount) {\n    TransferHelper.safeTransferFrom(address(token), sender, address(this), amount);\n\n    outputAmount = from20to777(amount);\n    _mint(sender, outputAmount, \"\", \"\");\n  }\n\n  /**\n   * @dev Same as wrap(), but allows setting a recipient address\n   *\n   * @param amount Number of tokens to wrap\n   * @param recipient Address to receive tokens\n   * @return outputAmount Amount of wrapper tokens minted (same as the input amount if the token has 18 decimals)\n   */\n  function wrapTo(uint256 amount, address recipient) external override returns (uint256 outputAmount) {\n    address sender = _msgSender();\n    TransferHelper.safeTransferFrom(address(token), sender, address(this), amount);\n\n    outputAmount = from20to777(amount);\n    _mint(recipient, outputAmount, \"\", \"\");\n  }\n\n  /**\n   * @dev Same as wrap(), but allows setting a recipient address\n   *\n   * @param amount Number of tokens to wrap\n   * @param recipient Address to receive tokens\n   * @return amount Amount of wrapper tokens minted (same as the input amount if the token has 18 decimals)\n   */\n  function gulp(address recipient) external override returns (uint256 amount) {\n    amount = from20to777(token.balanceOf(address(this))).sub(ERC777WithGranularity.totalSupply());\n    _mint(recipient, amount, \"\", \"\");\n  }\n\n  /**\n   * @dev Unwraps tokens from the sender, returns them the inner ERC-20\n   *\n   * @param amount Number of tokens to unwrap\n   * @return unwrappedAmount Amount of unwrapped tokens (same as the input amount if the token has 18 decimals)\n   */\n  function unwrap(uint256 amount) external override returns (uint256 unwrappedAmount) {\n    address sender = _msgSender();\n    return _unwrap(amount, sender, sender);\n  }\n\n\n  /**\n   * @dev Same as unwrap(), but sends unwrapped tokens to separate address\n   *\n   * @param amount Number of tokens to unwrap\n   * @param recipient Address to receive the tokens\n   * @return unwrappedAmount Amount of unwrapped tokens (same as the input amount if the token has 18 decimals)\n   */\n  function unwrapTo(uint256 amount, address recipient) external override returns (uint256 unwrappedAmount) {\n    return _unwrap(amount, _msgSender(), recipient);\n  }\n\n  function _unwrap(uint256 amount, address from, address recipient) private returns (uint256 unwrappedAmount) {\n    _burn(from, amount, \"\", \"\");\n\n    unwrappedAmount = from777to20(amount);\n    TransferHelper.safeTransfer(address(token), recipient, unwrappedAmount);\n  }\n\n  function _tokensReceived(IERC777 _token, address from, uint256 amount, bytes memory) internal override {\n    if (address(_token) != address(this)) {\n      tryTokenUpgrade(address(_token), from, amount);\n      return;\n    }\n\n    _burn(address(this), amount, \"\", \"\");\n\n    uint256 adjustedAmount = from777to20(amount);\n    TransferHelper.safeTransfer(address(token), from, adjustedAmount);\n  }\n\n  /**\n   * @dev Mints an unbounded amount of wrapper tokens to the target. Tokens must be repaid by the\n   * end of the transaction, or it will revert.\n   *\n   * @param target Address to receive the tokens (must be a ERC777Recipient)\n   * @param amount Number of tokens to mint\n   * @param data Arbitrary data to pass to the receive hook\n   */\n  function flashMint(address target, uint256 amount, bytes calldata data) external {\n    _mint(target, amount, data, '');\n    _burn(target, amount, data, '');\n\n    emit FlashMint(target, amount);\n  }\n\n  function tryTokenUpgrade(address oldWrapper, address sender, uint256 amount) private {\n    if (address(Wrapped777(oldWrapper).token()) != address(token)) {\n      revert(\"INVALID\");\n    }\n\n    uint256 startingBalance = token.balanceOf(address(this));\n\n    TransferHelper.safeTransfer(oldWrapper, oldWrapper, amount);\n\n    uint256 endBalance = token.balanceOf(address(this));\n\n    uint256 numUpgradedTokens = from20to777(endBalance.sub(startingBalance));\n    require(numUpgradedTokens > 0, \"NO-UPGRADE\");\n\n    _mint(sender, numUpgradedTokens, \"\", \"\");\n  }\n\n  /**\n   * @dev ERC2612 permit\n   */\n  function permit(address owner, address spender, uint value, uint deadline, uint8 v, bytes32 r, bytes32 s) external {\n    require(deadline >= block.timestamp, 'EXPIRED');\n    bytes32 digest = keccak256(\n      abi.encodePacked(\n        '\\x19\\x01',\n        DOMAIN_SEPARATOR,\n        keccak256(abi.encode(PERMIT_TYPEHASH, owner, spender, value, nonces[owner]++, deadline))\n      )\n    );\n    address recoveredAddress = ecrecover(digest, v, r, s);\n    require(recoveredAddress != address(0) && recoveredAddress == owner, 'Permit INVALID_SIG');\n    _approve(owner, spender, value);\n  }\n\n  function chainId() private pure returns (uint _chainId) {\n    assembly {\n      _chainId := chainid()\n    }\n  }\n}\n",
  "sourcePath": "/Users/dmihal/keystone/defi-777/contracts/contracts/tokens/Wrapped777.sol",
  "compiler": {
    "name": "solc",
    "version": "0.6.12+commit.27d51765.Emscripten.clang"
  },
  "schemaVersion": "3.1.0",
  "updatedAt": "2020-11-19T12:54:29.981Z",
  "devdoc": {
    "kind": "dev",
    "methods": {
      "allowance(address,address)": {
        "details": "See {IERC20-allowance}. Note that operator and allowance concepts are orthogonal: operators may not have allowance, and accounts with allowance may not be operators themselves."
      },
      "approve(address,uint256)": {
        "details": "See {IERC20-approve}. Note that accounts cannot have allowance issued by their operators."
      },
      "authorizeOperator(address)": {
        "details": "See {IERC777-authorizeOperator}."
      },
      "burn(uint256,bytes)": {
        "details": "See {IERC777-burn}. Also emits a {IERC20-Transfer} event for ERC20 compatibility."
      },
      "decimals()": {
        "details": "See {ERC20-decimals}. Always returns 18, as per the [ERC777 EIP](https://eips.ethereum.org/EIPS/eip-777#backward-compatibility)."
      },
      "defaultOperators()": {
        "details": "See {IERC777-defaultOperators}."
      },
      "flashMint(address,uint256,bytes)": {
        "details": "Mints an unbounded amount of wrapper tokens to the target. Tokens must be repaid by the end of the transaction, or it will revert.",
        "params": {
          "amount": "Number of tokens to mint",
          "data": "Arbitrary data to pass to the receive hook",
          "target": "Address to receive the tokens (must be a ERC777Recipient)"
        }
      },
      "granularity()": {
        "details": "See {IERC777-granularity}. This implementation always returns `1`."
      },
      "gulp(address)": {
        "details": "Same as wrap(), but allows setting a recipient address",
        "params": {
          "amount": "Number of tokens to wrap",
          "recipient": "Address to receive tokens"
        },
        "returns": {
          "amount": "Amount of wrapper tokens minted (same as the input amount if the token has 18 decimals)"
        }
      },
      "isOperatorFor(address,address)": {
        "details": "See {IERC777-isOperatorFor}."
      },
      "name()": {
        "details": "See {IERC777-name}."
      },
      "operatorBurn(address,uint256,bytes,bytes)": {
        "details": "See {IERC777-operatorBurn}. Emits {Burned} and {IERC20-Transfer} events."
      },
      "operatorSend(address,address,uint256,bytes,bytes)": {
        "details": "See {IERC777-operatorSend}. Emits {Sent} and {IERC20-Transfer} events."
      },
      "permit(address,address,uint256,uint256,uint8,bytes32,bytes32)": {
        "details": "ERC2612 permit"
      },
      "revokeOperator(address)": {
        "details": "See {IERC777-revokeOperator}."
      },
      "send(address,uint256,bytes)": {
        "details": "See {IERC777-send}. Also emits a {IERC20-Transfer} event for ERC20 compatibility."
      },
      "symbol()": {
        "details": "See {IERC777-symbol}."
      },
      "transfer(address,uint256)": {
        "details": "See {IERC20-transfer}. Unlike `send`, `recipient` is _not_ required to implement the {IERC777Recipient} interface if it is a contract. Also emits a {Sent} event."
      },
      "transferFrom(address,address,uint256)": {
        "details": "See {IERC20-transferFrom}. Note that operator and allowance concepts are orthogonal: operators cannot call `transferFrom` (unless they have allowance), and accounts with allowance cannot call `operatorSend` (unless they are operators). Emits {Sent}, {IERC20-Transfer} and {IERC20-Approval} events."
      },
      "unwrap(uint256)": {
        "details": "Unwraps tokens from the sender, returns them the inner ERC-20",
        "params": {
          "amount": "Number of tokens to unwrap"
        },
        "returns": {
          "unwrappedAmount": "Amount of unwrapped tokens (same as the input amount if the token has 18 decimals)"
        }
      },
      "unwrapTo(uint256,address)": {
        "details": "Same as unwrap(), but sends unwrapped tokens to separate address",
        "params": {
          "amount": "Number of tokens to unwrap",
          "recipient": "Address to receive the tokens"
        },
        "returns": {
          "unwrappedAmount": "Amount of unwrapped tokens (same as the input amount if the token has 18 decimals)"
        }
      },
      "wrap(uint256)": {
        "details": "Wraps ERC-20 tokens from the caller and sends wrapped tokens to the caller",
        "params": {
          "amount": "Number of tokens to wrap"
        },
        "returns": {
          "_0": "Amount of wrapper tokens minted (same as the input amount if the token has 18 decimals)"
        }
      },
      "wrapTo(uint256,address)": {
        "details": "Same as wrap(), but allows setting a recipient address",
        "params": {
          "amount": "Number of tokens to wrap",
          "recipient": "Address to receive tokens"
        },
        "returns": {
          "outputAmount": "Amount of wrapper tokens minted (same as the input amount if the token has 18 decimals)"
        }
      },
      "wrapWithPermit(uint256,uint256,uint256,uint8,bytes32,bytes32)": {
        "details": "Same as wrap(), but approves the token transfer using a ERC2612 permit signature",
        "params": {
          "value": "Number of tokens to wrap"
        },
        "returns": {
          "_0": "Amount of wrapper tokens minted (same as the input amount if the token has 18 decimals)"
        }
      }
    },
    "version": 1
  },
  "userdoc": {
    "kind": "user",
    "methods": {},
    "version": 1
  }
}