{
  "address": "0x527123c9B17818E4f5a02aa303400d746230739f",
  "abi": [
    {
      "anonymous": false,
      "inputs": [
        {
          "indexed": false,
          "internalType": "address",
          "name": "farmerToken",
          "type": "address"
        },
        {
          "indexed": false,
          "internalType": "address",
          "name": "rewardWrapper",
          "type": "address"
        }
      ],
      "name": "WrapperCreated",
      "type": "event"
    },
    {
      "inputs": [],
      "name": "ADAPTER_HASH",
      "outputs": [
        {
          "internalType": "bytes32",
          "name": "",
          "type": "bytes32"
        }
      ],
      "stateMutability": "view",
      "type": "function"
    },
    {
      "inputs": [
        {
          "internalType": "address",
          "name": "farmerToken",
          "type": "address"
        },
        {
          "internalType": "address",
          "name": "rewardWrapper",
          "type": "address"
        }
      ],
      "name": "calculateWrapperAddress",
      "outputs": [
        {
          "internalType": "address",
          "name": "calculatedAddress",
          "type": "address"
        }
      ],
      "stateMutability": "view",
      "type": "function"
    },
    {
      "inputs": [
        {
          "internalType": "address",
          "name": "farmerToken",
          "type": "address"
        },
        {
          "internalType": "address",
          "name": "rewardWrapper",
          "type": "address"
        }
      ],
      "name": "createWrapper",
      "outputs": [],
      "stateMutability": "nonpayable",
      "type": "function"
    },
    {
      "inputs": [
        {
          "internalType": "address",
          "name": "farmerToken",
          "type": "address"
        },
        {
          "internalType": "address",
          "name": "rewardWrapper",
          "type": "address"
        }
      ],
      "name": "getWrapperAddress",
      "outputs": [
        {
          "internalType": "address",
          "name": "wrapperAddress",
          "type": "address"
        }
      ],
      "stateMutability": "nonpayable",
      "type": "function"
    },
    {
      "inputs": [],
      "name": "nextReward",
      "outputs": [
        {
          "internalType": "address",
          "name": "",
          "type": "address"
        }
      ],
      "stateMutability": "view",
      "type": "function"
    },
    {
      "inputs": [],
      "name": "nextToken",
      "outputs": [
        {
          "internalType": "address",
          "name": "",
          "type": "address"
        }
      ],
      "stateMutability": "view",
      "type": "function"
    }
  ],
  "transactionHash": "0x479f3d0aee6d08e56ed8577aae2d517e57d3880bac512db7aed49a54a8e1adda",
  "args": [],
  "solcInputHash": "5630e9f2be32fc38307760daf36c506b",
  "bytecode": "0x608060405234801561001057600080fd5b50612b3f806100206000396000f3fe60806040523480156200001157600080fd5b50600436106200006a5760003560e01c80636da4fe26146200006f578063743ad7b514620000955780638795651714620000c65780639499ac5414620000f7578063db426e2d1462000101578063eda23f651462000134575b600080fd5b6200007962000150565b604080516001600160a01b039092168252519081900360200190f35b6200007960048036036040811015620000ad57600080fd5b506001600160a01b03813581169160200135166200015f565b6200007960048036036040811015620000de57600080fd5b506001600160a01b038135811691602001351662000174565b62000079620001ca565b62000132600480360360408110156200011957600080fd5b506001600160a01b0381358116916020013516620001d9565b005b6200013e620001e9565b60408051918252519081900360200190f35b6001546001600160a01b031690565b60006200016d838362000218565b9392505050565b600062000182838362000218565b905062000198816001600160a01b0316620002f0565b620001c457620001a98383620002f6565b620001bd816001600160a01b0316620002f0565b620001c457fe5b92915050565b6000546001600160a01b031690565b620001e58282620002f6565b5050565b604051620001fa6020820162000400565b6020820181038252601f19601f820116604052508051906020012081565b600060ff60f81b30848460405160200180836001600160a01b031660601b8152601401826001600160a01b031660601b8152601401925050506040516020818303038152906040528051906020012060405180602001620002799062000400565b6020820181038252601f19601f820116604052508051906020012060405160200180856001600160f81b0319168152600101846001600160a01b031660601b81526014018381526020018281526020019450505050506040516020818303038152906040528051906020012060001c905092915050565b3b151590565b600080546001600160a01b038085166001600160a01b0319928316179092556001805492841692909116919091179055604080516bffffffffffffffffffffffff19606085811b82166020808501919091529085901b909116603483015282516028818403018152604890920192839052815191012090620003789062000400565b8190604051809103906000f590508015801562000399573d6000803e3d6000fd5b5050600080546001600160a01b0319908116909155600180549091169055604080516001600160a01b0384811682528316602082015281517feca658fb45a042c9a15f37be8099dbc152e104331b942dc253680509f9727d07929181900390910190a15050565b6126fb806200040f8339019056fe60e06040523480156200001157600080fd5b506000339050806001600160a01b0316639499ac546040518163ffffffff1660e01b815260040160206040518083038186803b1580156200005157600080fd5b505afa15801562000066573d6000803e3d6000fd5b505050506040513d60208110156200007d57600080fd5b505160601b6001600160601b031916608052604080516336d27f1360e11b815290516000916001600160a01b03841691636da4fe2691600480820192602092909190829003018186803b158015620000d457600080fd5b505afa158015620000e9573d6000803e3d6000fd5b505050506040513d60208110156200010057600080fd5b505160408051637e062a3560e11b815290519192506000916001600160a01b0384169163fc0c546a916004808301926020929190829003018186803b1580156200014957600080fd5b505afa1580156200015e573d6000803e3d6000fd5b505050506040513d60208110156200017557600080fd5b5051606081811b6001600160601b031990811660a0529084901b1660c0529050620001ac816200048a602090811b62000f5117901c565b6040516020018082805190602001908083835b60208310620001e05780518252601f199092019160209182019101620001bf565b51815160209384036101000a6000190180199092169116179052690b4dcdcdc8165a595b1960b21b9190930190815260408051808303601519018152600a909201905280516200023a955060019450920191905062000a53565b506200025181620004c960201b62000f821760201c565b6040516020018082805190602001908083835b60208310620002855780518252601f19909201916020918201910162000264565b51815160209384036101000a6000190180199092169116179052633737377960e01b9190930190815260408051808303601b19018152600490920190528051620002d9955060029450920191905062000a53565b506200034f816001600160a01b031663313ce5676040518163ffffffff1660e01b815260040160206040518083038186803b1580156200031857600080fd5b505afa1580156200032d573d6000803e3d6000fd5b505050506040513d60208110156200034457600080fd5b505160ff16620004f7565b604080516329965a1d60e01b815230600482018190527fac7fbab5f54a3ca8194167523c6753bfeb96a445279294b6125b68cce2177054602483015260448201529051731820a4b7618bde71dce8cdc73aab6c95905fad24916329965a1d91606480830192600092919082900301818387803b158015620003cf57600080fd5b505af1158015620003e4573d6000803e3d6000fd5b5050604080516329965a1d60e01b815230600482018190527faea199e31a596269b42cdafd93407f14436db6e4cad65417994c2eb37381e05a602483015260448201529051731820a4b7618bde71dce8cdc73aab6c95905fad2493506329965a1d9250606480830192600092919082900301818387803b1580156200046857600080fd5b505af11580156200047d573d6000803e3d6000fd5b5050505050505062000aef565b606080620004a0836306fdde0360e01b620004fc565b9050805160001415620004c157620004b8836200073c565b915050620004c4565b90505b919050565b606080620004df836395d89b4160e01b620004fc565b9050805160001415620004c157620004b88362000756565b600055565b60408051600481526024810182526020810180516001600160e01b03166001600160e01b031985161781529151815160609360009385936001600160a01b03891693919290918291908083835b602083106200056a5780518252601f19909201916020918201910162000549565b6001836020036101000a038019825116818451168082178552505050505050905001915050600060405180830381855afa9150503d8060008114620005cc576040519150601f19603f3d011682016040523d82523d6000602084013e620005d1565b606091505b5091509150811580620005e357508051155b156200060357604051806020016040528060008152509250505062000736565b805160201415620006405760008180602001905160208110156200062657600080fd5b50519050620006358162000770565b935050505062000736565b60408151111562000721578080602001905160208110156200066157600080fd5b81019080805160405193929190846401000000008211156200068257600080fd5b9083019060208201858111156200069857600080fd5b8251640100000000811182820188101715620006b357600080fd5b82525081516020918201929091019080838360005b83811015620006e2578181015183820152602001620006c8565b50505050905090810190601f168015620007105780820380516001836020036101000a031916815260200191505b506040525050509250505062000736565b60405180602001604052806000815250925050505b92915050565b6060620004c1826028620008b960201b62000fab1760201c565b6060620004c1826006620008b960201b62000fab1760201c565b6040805160208082528183019092526060918291906020820181803683370190505090506000805b602081101562000816576000858260208110620007b157fe5b1a60f81b90507fff000000000000000000000000000000000000000000000000000000000000008116156200080c5780848481518110620007ee57fe5b60200101906001600160f81b031916908160001a9053506001909201915b5060010162000798565b506060816001600160401b03811180156200083057600080fd5b506040519080825280601f01601f1916602001820160405280156200085c576020820181803683370190505b50905060005b82811015620008b0578381815181106200087857fe5b602001015160f81c60f81b8282815181106200089057fe5b60200101906001600160f81b031916908160001a90535060010162000862565b50949350505050565b606060028206158015620008cd5750600082115b8015620008db575060288211155b6200092d576040805162461bcd60e51b815260206004820152601e60248201527f41646472657373537472696e675574696c3a20494e56414c49445f4c454e0000604482015290519081900360640190fd5b6060826001600160401b03811180156200094657600080fd5b506040519080825280601f01601f19166020018201604052801562000972576020820181803683370190505b5090506001600160a01b03841660005b6002850481101562000a1e57600860138290030282901c600f600482901c1660f082168203620009b28262000a28565b868560020281518110620009c257fe5b60200101906001600160f81b031916908160001a905350620009e48162000a28565b868560020260010181518110620009f757fe5b60200101906001600160f81b031916908160001a9053505060019092019150620009829050565b5090949350505050565b6000600a8260ff16101562000a4557506030810160f81b620004c4565b506037810160f81b620004c4565b828054600181600116156101000203166002900490600052602060002090601f016020900481019282601f1062000a9657805160ff191683800117855562000ac6565b8280016001018555821562000ac6579182015b8281111562000ac657825182559160200191906001019062000aa9565b5062000ad492915062000ad8565b5090565b5b8082111562000ad4576000815560010162000ad9565b60805160601c60a05160601c60c05160601c611bae62000b4d60003980610d52528061127c528061131e5250806108385280610ac05280610ef2528061125a5250806108675280610a915280610d76528061122b5250611bae6000f3fe608060405234801561001057600080fd5b50600436106101375760003560e01c806395d89b41116100b8578063d95b63711161007c578063d95b637114610577578063dd62ed3e146105a5578063fad8b32a146105d3578063fc0c546a146105f9578063fc673c4f14610601578063fe9d93031461073f57610137565b806395d89b411461045e5780639bd9bbc614610466578063a9059cbb1461051f578063ac210cc71461054b578063d811fcf01461056f57610137565b8063313ce567116100ff578063313ce567146102a1578063556f0dc7146102bf57806362ad1b83146102c757806370a0823114610412578063959b8c3f1461043857610137565b806306e485381461013c57806306fdde0314610194578063095ea7b31461021157806318160ddd1461025157806323b872dd1461026b575b600080fd5b610144610776565b60408051602080825283518183015283519192839290830191858101910280838360005b83811015610180578181015183820152602001610168565b505050509050019250505060405180910390f35b61019c61077b565b6040805160208082528351818301528351919283929083019185019080838360005b838110156101d65781810151838201526020016101be565b50505050905090810190601f1680156102035780820380516001836020036101000a031916815260200191505b509250505060405180910390f35b61023d6004803603604081101561022757600080fd5b506001600160a01b038135169060200135610810565b604080519115158252519081900360200190f35b610259610834565b60408051918252519081900360200190f35b61023d6004803603606081101561028157600080fd5b506001600160a01b038135811691602081013590911690604001356108f4565b6102a9610a17565b6040805160ff9092168252519081900360200190f35b610259610a1c565b610410600480360360a08110156102dd57600080fd5b6001600160a01b03823581169260208101359091169160408201359190810190608081016060820135600160201b81111561031757600080fd5b82018360208201111561032957600080fd5b803590602001918460018302840111600160201b8311171561034a57600080fd5b91908080601f0160208091040260200160405190810160405280939291908181526020018383808284376000920191909152509295949360208101935035915050600160201b81111561039c57600080fd5b8201836020820111156103ae57600080fd5b803590602001918460018302840111600160201b831117156103cf57600080fd5b91908080601f016020809104026020016040519081016040528093929190818152602001838380828437600092019190915250929550610a2b945050505050565b005b6102596004803603602081101561042857600080fd5b50356001600160a01b0316610a8d565b6104106004803603602081101561044e57600080fd5b50356001600160a01b0316610b61565b61019c610c49565b6104106004803603606081101561047c57600080fd5b6001600160a01b0382351691602081013591810190606081016040820135600160201b8111156104ab57600080fd5b8201836020820111156104bd57600080fd5b803590602001918460018302840111600160201b831117156104de57600080fd5b91908080601f016020809104026020016040519081016040528093929190818152602001838380828437600092019190915250929550610ca7945050505050565b61023d6004803603604081101561053557600080fd5b506001600160a01b038135169060200135610cd1565b610553610d50565b604080516001600160a01b039092168252519081900360200190f35b610553610d74565b61023d6004803603604081101561058d57600080fd5b506001600160a01b0381358116916020013516610d98565b610259600480360360408110156105bb57600080fd5b506001600160a01b0381358116916020013516610de6565b610410600480360360208110156105e957600080fd5b50356001600160a01b0316610e11565b610553610ef0565b6104106004803603608081101561061757600080fd5b6001600160a01b0382351691602081013591810190606081016040820135600160201b81111561064657600080fd5b82018360208201111561065857600080fd5b803590602001918460018302840111600160201b8311171561067957600080fd5b91908080601f0160208091040260200160405190810160405280939291908181526020018383808284376000920191909152509295949360208101935035915050600160201b8111156106cb57600080fd5b8201836020820111156106dd57600080fd5b803590602001918460018302840111600160201b831117156106fe57600080fd5b91908080601f016020809104026020016040519081016040528093929190818152602001838380828437600092019190915250929550610f14945050505050565b6104106004803603604081101561075557600080fd5b81359190810190604081016020820135600160201b8111156106cb57600080fd5b606090565b60018054604080516020601f600260001961010087891615020190951694909404938401819004810282018101909252828152606093909290918301828280156108065780601f106107db57610100808354040283529160200191610806565b820191906000526020600020905b8154815290600101906020018083116107e957829003601f168201915b5050505050905090565b60008061081b61110e565b9050610828818585611112565b60019150505b92915050565b60007f00000000000000000000000000000000000000000000000000000000000000006001600160a01b03166370a082317f00000000000000000000000000000000000000000000000000000000000000006040518263ffffffff1660e01b815260040180826001600160a01b0316815260200191505060206040518083038186803b1580156108c357600080fd5b505afa1580156108d7573d6000803e3d6000fd5b505050506040513d60208110156108ed57600080fd5b5051905090565b60006001600160a01b03831661093b5760405162461bcd60e51b8152600401808060200182810382526024815260200180611ab76024913960400191505060405180910390fd5b6001600160a01b0384166109805760405162461bcd60e51b8152600401808060200182810382526026815260200180611b306026913960400191505060405180910390fd5b600061098a61110e565b90506109b88186868660405180602001604052806000815250604051806020016040528060008152506111b9565b610a0c8582610a0786604051806060016040528060298152602001611b07602991396001600160a01b03808c166000908152600460209081526040808320938b16835292905220549190611541565b611112565b506001949350505050565b601290565b6000610a266115d8565b905090565b610a3c610a3661110e565b86610d98565b610a775760405162461bcd60e51b815260040180806020018281038252602c815260200180611adb602c913960400191505060405180910390fd5b610a86858585858560016115e4565b5050505050565b60007f00000000000000000000000000000000000000000000000000000000000000006001600160a01b031663aca2efc77f0000000000000000000000000000000000000000000000000000000000000000846040518363ffffffff1660e01b815260040180836001600160a01b03168152602001826001600160a01b031681526020019250505060206040518083038186803b158015610b2d57600080fd5b505afa158015610b41573d6000803e3d6000fd5b505050506040513d6020811015610b5757600080fd5b505190505b919050565b806001600160a01b0316610b7361110e565b6001600160a01b03161415610bb95760405162461bcd60e51b8152600401808060200182810382526024815260200180611a726024913960400191505060405180910390fd5b600160036000610bc761110e565b6001600160a01b03908116825260208083019390935260409182016000908120918616815292529020805460ff1916911515919091179055610c0761110e565b6001600160a01b0316816001600160a01b03167ff4caeb2d6ca8932a215a353d0703c326ec2d81fc68170f320eb2ab49e9df61f960405160405180910390a350565b60028054604080516020601f60001961010060018716150201909416859004938401819004810282018101909252828152606093909290918301828280156108065780601f106107db57610100808354040283529160200191610806565b610ccc610cb261110e565b8484846040518060200160405280600081525060016115e4565b505050565b60006001600160a01b038316610d185760405162461bcd60e51b8152600401808060200182810382526024815260200180611ab76024913960400191505060405180910390fd5b6000610d2261110e565b90506108288182868660405180602001604052806000815250604051806020016040528060008152506111b9565b7f000000000000000000000000000000000000000000000000000000000000000081565b7f000000000000000000000000000000000000000000000000000000000000000081565b6000816001600160a01b0316836001600160a01b03161480610ddf57506001600160a01b0380831660009081526003602090815260408083209387168352929052205460ff165b9392505050565b6001600160a01b03918216600090815260046020908152604080832093909416825291909152205490565b610e1961110e565b6001600160a01b0316816001600160a01b03161415610e695760405162461bcd60e51b8152600401808060200182810382526021815260200180611a966021913960400191505060405180910390fd5b60036000610e7561110e565b6001600160a01b03908116825260208083019390935260409182016000908120918516815292529020805460ff19169055610eae61110e565b6001600160a01b0316816001600160a01b03167f50546e66e5f44d728365dc3908c63bc5cfeeab470722c1677e3073a6ac294aa160405160405180910390a350565b7f000000000000000000000000000000000000000000000000000000000000000081565b6040805162461bcd60e51b815260206004820152600d60248201526c139bdd081cdd5c1c1bdc9d1959609a1b604482015290519081900360640190fd5b606080610f65836306fdde0360e01b6116a7565b905080516000141561082e57610f7a836118cd565b915050610b5c565b606080610f96836395d89b4160e01b6116a7565b905080516000141561082e57610f7a836118da565b606060028206158015610fbe5750600082115b8015610fcb575060288211155b61101c576040805162461bcd60e51b815260206004820152601e60248201527f41646472657373537472696e675574696c3a20494e56414c49445f4c454e0000604482015290519081900360640190fd5b60608267ffffffffffffffff8111801561103557600080fd5b506040519080825280601f01601f191660200182016040528015611060576020820181803683370190505b5090506001600160a01b03841660005b6002850481101561110457600860138290030282901c600f600482901c1660f08216820361109d826118e7565b8685600202815181106110ac57fe5b60200101906001600160f81b031916908160001a9053506110cc816118e7565b8685600202600101815181106110de57fe5b60200101906001600160f81b031916908160001a90535050600190920191506110709050565b5090949350505050565b3390565b6001600160a01b0382166111575760405162461bcd60e51b8152600401808060200182810382526023815260200180611b566023913960400191505060405180910390fd5b6001600160a01b03808416600081815260046020908152604080832094871680845294825291829020859055815185815291517f8c5be1e5ebec7d5bd14f71427d1e84f3dd0314c0f7b2291e5b200ac8c7c3b9259281900390910190a3505050565b6111c16115d8565b83816111c957fe5b061561121c576040805162461bcd60e51b815260206004820152601b60248201527f4552433737373a20496e76616c6964206772616e756c61726974790000000000604482015290519081900360640190fd5b60006112278461190f565b90507f00000000000000000000000000000000000000000000000000000000000000006001600160a01b031663264413187f0000000000000000000000000000000000000000000000000000000000000000887f0000000000000000000000000000000000000000000000000000000000000000856040518563ffffffff1660e01b815260040180856001600160a01b03168152602001846001600160a01b03168152602001836001600160a01b03168152602001828152602001945050505050600060405180830381600087803b15801561130257600080fd5b505af1158015611316573d6000803e3d6000fd5b5050505060007f00000000000000000000000000000000000000000000000000000000000000006001600160a01b0316638c28cbe8876040518263ffffffff1660e01b815260040180826001600160a01b03168152602001915050602060405180830381600087803b15801561138b57600080fd5b505af115801561139f573d6000803e3d6000fd5b505050506040513d60208110156113b557600080fd5b50519050848110156113c657600080fd5b856001600160a01b0316876001600160a01b0316896001600160a01b03167f06b541ddaa720db2b10a4d0cdac39b8d360425fc073085fac19bc82614677987888888604051808481526020018060200180602001838103835285818151815260200191508051906020019080838360005b8381101561144f578181015183820152602001611437565b50505050905090810190601f16801561147c5780820380516001836020036101000a031916815260200191505b50838103825284518152845160209182019186019080838360005b838110156114af578181015183820152602001611497565b50505050905090810190601f1680156114dc5780820380516001836020036101000a031916815260200191505b509550505050505060405180910390a4856001600160a01b0316876001600160a01b03167fddf252ad1be2c89b69c2b068fc378daa952ba7f163c4a11628f55a4df523b3ef876040518082815260200191505060405180910390a35050505050505050565b600081848411156115d05760405162461bcd60e51b81526004018080602001828103825283818151815260200191508051906020019080838360005b8381101561159557818101518382015260200161157d565b50505050905090810190601f1680156115c25780820380516001836020036101000a031916815260200191505b509250505060405180910390fd5b505050900390565b600054601203600a0a90565b6001600160a01b0386166116295760405162461bcd60e51b8152600401808060200182810382526022815260200180611a506022913960400191505060405180910390fd5b6001600160a01b038516611684576040805162461bcd60e51b815260206004820181905260248201527f4552433737373a2073656e6420746f20746865207a65726f2061646472657373604482015290519081900360640190fd5b600061168e61110e565b905061169e8188888888886111b9565b50505050505050565b60408051600481526024810182526020810180516001600160e01b03166001600160e01b031985161781529151815160609360009385936001600160a01b03891693919290918291908083835b602083106117135780518252601f1990920191602091820191016116f4565b6001836020036101000a038019825116818451168082178552505050505050905001915050600060405180830381855afa9150503d8060008114611773576040519150601f19603f3d011682016040523d82523d6000602084013e611778565b606091505b509150915081158061178957508051155b156117a757604051806020016040528060008152509250505061082e565b8051602014156117df5760008180602001905160208110156117c857600080fd5b505190506117d581611928565b935050505061082e565b6040815111156118b5578080602001905160208110156117fe57600080fd5b8101908080516040519392919084600160201b82111561181d57600080fd5b90830190602082018581111561183257600080fd5b8251600160201b81118282018810171561184b57600080fd5b82525081516020918201929091019080838360005b83811015611878578181015183820152602001611860565b50505050905090810190601f1680156118a55780820380516001836020036101000a031916815260200191505b506040525050509250505061082e565b50506040805160208101909152600081529392505050565b606061082e826028610fab565b606061082e826006610fab565b6000600a8260ff16101561190257506030810160f81b610b5c565b506037810160f81b610b5c565b60006119196115d8565b828161192157fe5b0492915050565b6040805160208082528183019092526060918291906020820181803683370190505090506000805b60208110156119b157600085826020811061196757fe5b1a60f81b90506001600160f81b03198116156119a8578084848151811061198a57fe5b60200101906001600160f81b031916908160001a9053506001909201915b50600101611950565b5060608167ffffffffffffffff811180156119cb57600080fd5b506040519080825280601f01601f1916602001820160405280156119f6576020820181803683370190505b50905060005b82811015611a4657838181518110611a1057fe5b602001015160f81c60f81b828281518110611a2757fe5b60200101906001600160f81b031916908160001a9053506001016119fc565b5094935050505056fe4552433737373a2073656e642066726f6d20746865207a65726f20616464726573734552433737373a20617574686f72697a696e672073656c66206173206f70657261746f724552433737373a207265766f6b696e672073656c66206173206f70657261746f724552433737373a207472616e7366657220746f20746865207a65726f20616464726573734552433737373a2063616c6c6572206973206e6f7420616e206f70657261746f7220666f7220686f6c6465724552433737373a207472616e7366657220616d6f756e74206578636565647320616c6c6f77616e63654552433737373a207472616e736665722066726f6d20746865207a65726f20616464726573734552433737373a20617070726f766520746f20746865207a65726f2061646472657373a2646970667358221220a82b38775ca76d34f7750b3fb08c61edbcfb87b99e5bd993a83031c9b3f0f98364736f6c634300060c0033a2646970667358221220c4e5425bc4e5673b5056ef3d3ee8cf0c7a34622093ff29b67c69ff30032e65c364736f6c634300060c0033",
  "devdoc": {
    "kind": "dev",
    "methods": {},
    "version": 1
  },
  "userdoc": {
    "kind": "user",
    "methods": {},
    "version": 1
  },
  "storageLayout": {
    "storage": [
      {
        "astId": 5545,
        "contract": "contracts/farming/YieldAdapterFactory.sol:YieldAdapterFactory",
        "label": "_nextToken",
        "offset": 0,
        "slot": "0",
        "type": "t_address"
      },
      {
        "astId": 5547,
        "contract": "contracts/farming/YieldAdapterFactory.sol:YieldAdapterFactory",
        "label": "_nextReward",
        "offset": 0,
        "slot": "1",
        "type": "t_address"
      }
    ],
    "types": {
      "t_address": {
        "encoding": "inplace",
        "label": "address",
        "numberOfBytes": "20"
      }
    }
  }
}